{"abi":[{"type":"constructor","inputs":[{"name":"attestorAddresses","type":"address[]","internalType":"address[]"},{"name":"minRequiredSigs","type":"uint8","internalType":"uint8"},{"name":"initialHeight","type":"uint64","internalType":"uint64"},{"name":"initialTimestampSeconds","type":"uint64","internalType":"uint64"},{"name":"roleManager","type":"address","internalType":"address"}],"stateMutability":"nonpayable"},{"type":"function","name":"DEFAULT_ADMIN_ROLE","inputs":[],"outputs":[{"name":"","type":"bytes32","internalType":"bytes32"}],"stateMutability":"view"},{"type":"function","name":"PROOF_SUBMITTER_ROLE","inputs":[],"outputs":[{"name":"","type":"bytes32","internalType":"bytes32"}],"stateMutability":"view"},{"type":"function","name":"getAttestationSet","inputs":[],"outputs":[{"name":"attestorAddresses","type":"address[]","internalType":"address[]"},{"name":"minRequiredSigs","type":"uint8","internalType":"uint8"}],"stateMutability":"view"},{"type":"function","name":"getClientState","inputs":[],"outputs":[{"name":"","type":"bytes","internalType":"bytes"}],"stateMutability":"view"},{"type":"function","name":"getConsensusTimestamp","inputs":[{"name":"revisionHeight","type":"uint64","internalType":"uint64"}],"outputs":[{"name":"","type":"uint64","internalType":"uint64"}],"stateMutability":"view"},{"type":"function","name":"getRoleAdmin","inputs":[{"name":"role","type":"bytes32","internalType":"bytes32"}],"outputs":[{"name":"","type":"bytes32","internalType":"bytes32"}],"stateMutability":"view"},{"type":"function","name":"grantRole","inputs":[{"name":"role","type":"bytes32","internalType":"bytes32"},{"name":"account","type":"address","internalType":"address"}],"outputs":[],"stateMutability":"nonpayable"},{"type":"function","name":"hasRole","inputs":[{"name":"role","type":"bytes32","internalType":"bytes32"},{"name":"account","type":"address","internalType":"address"}],"outputs":[{"name":"","type":"bool","internalType":"bool"}],"stateMutability":"view"},{"type":"function","name":"misbehaviour","inputs":[{"name":"","type":"bytes","internalType":"bytes"}],"outputs":[],"stateMutability":"view"},{"type":"function","name":"renounceRole","inputs":[{"name":"role","type":"bytes32","internalType":"bytes32"},{"name":"callerConfirmation","type":"address","internalType":"address"}],"outputs":[],"stateMutability":"nonpayable"},{"type":"function","name":"revokeRole","inputs":[{"name":"role","type":"bytes32","internalType":"bytes32"},{"name":"account","type":"address","internalType":"address"}],"outputs":[],"stateMutability":"nonpayable"},{"type":"function","name":"supportsInterface","inputs":[{"name":"interfaceId","type":"bytes4","internalType":"bytes4"}],"outputs":[{"name":"","type":"bool","internalType":"bool"}],"stateMutability":"view"},{"type":"function","name":"updateClient","inputs":[{"name":"updateMsg","type":"bytes","internalType":"bytes"}],"outputs":[{"name":"","type":"uint8","internalType":"enum ILightClientMsgs.UpdateResult"}],"stateMutability":"nonpayable"},{"type":"function","name":"verifyMembership","inputs":[{"name":"msg_","type":"tuple","internalType":"struct ILightClientMsgs.MsgVerifyMembership","components":[{"name":"proof","type":"bytes","internalType":"bytes"},{"name":"proofHeight","type":"tuple","internalType":"struct IICS02ClientMsgs.Height","components":[{"name":"revisionNumber","type":"uint64","internalType":"uint64"},{"name":"revisionHeight","type":"uint64","internalType":"uint64"}]},{"name":"path","type":"bytes[]","internalType":"bytes[]"},{"name":"value","type":"bytes","internalType":"bytes"}]}],"outputs":[{"name":"","type":"uint256","internalType":"uint256"}],"stateMutability":"view"},{"type":"function","name":"verifyNonMembership","inputs":[{"name":"msg_","type":"tuple","internalType":"struct ILightClientMsgs.MsgVerifyNonMembership","components":[{"name":"proof","type":"bytes","internalType":"bytes"},{"name":"proofHeight","type":"tuple","internalType":"struct IICS02ClientMsgs.Height","components":[{"name":"revisionNumber","type":"uint64","internalType":"uint64"},{"name":"revisionHeight","type":"uint64","internalType":"uint64"}]},{"name":"path","type":"bytes[]","internalType":"bytes[]"}]}],"outputs":[{"name":"","type":"uint256","internalType":"uint256"}],"stateMutability":"view"},{"type":"event","name":"RoleAdminChanged","inputs":[{"name":"role","type":"bytes32","indexed":true,"internalType":"bytes32"},{"name":"previousAdminRole","type":"bytes32","indexed":true,"internalType":"bytes32"},{"name":"newAdminRole","type":"bytes32","indexed":true,"internalType":"bytes32"}],"anonymous":false},{"type":"event","name":"RoleGranted","inputs":[{"name":"role","type":"bytes32","indexed":true,"internalType":"bytes32"},{"name":"account","type":"address","indexed":true,"internalType":"address"},{"name":"sender","type":"address","indexed":true,"internalType":"address"}],"anonymous":false},{"type":"event","name":"RoleRevoked","inputs":[{"name":"role","type":"bytes32","indexed":true,"internalType":"bytes32"},{"name":"account","type":"address","indexed":true,"internalType":"address"},{"name":"sender","type":"address","indexed":true,"internalType":"address"}],"anonymous":false},{"type":"error","name":"AccessControlBadConfirmation","inputs":[]},{"type":"error","name":"AccessControlUnauthorizedAccount","inputs":[{"name":"account","type":"address","internalType":"address"},{"name":"neededRole","type":"bytes32","internalType":"bytes32"}]},{"type":"error","name":"BadQuorum","inputs":[{"name":"minRequired","type":"uint8","internalType":"uint8"},{"name":"attestationCount","type":"uint256","internalType":"uint256"}]},{"type":"error","name":"ConsensusTimestampNotFound","inputs":[{"name":"height","type":"uint64","internalType":"uint64"}]},{"type":"error","name":"DuplicateSigner","inputs":[{"name":"signer","type":"address","internalType":"address"}]},{"type":"error","name":"ECDSAInvalidSignature","inputs":[]},{"type":"error","name":"ECDSAInvalidSignatureLength","inputs":[{"name":"length","type":"uint256","internalType":"uint256"}]},{"type":"error","name":"ECDSAInvalidSignatureS","inputs":[{"name":"s","type":"bytes32","internalType":"bytes32"}]},{"type":"error","name":"EmptyPackets","inputs":[]},{"type":"error","name":"EmptySignatures","inputs":[]},{"type":"error","name":"EmptyValue","inputs":[]},{"type":"error","name":"FeatureNotSupported","inputs":[]},{"type":"error","name":"FrozenClientState","inputs":[]},{"type":"error","name":"HeightMismatch","inputs":[{"name":"expected","type":"uint64","internalType":"uint64"},{"name":"provided","type":"uint64","internalType":"uint64"}]},{"type":"error","name":"InvalidPathLength","inputs":[{"name":"expectedLength","type":"uint256","internalType":"uint256"},{"name":"providedLength","type":"uint256","internalType":"uint256"}]},{"type":"error","name":"InvalidSignatureLength","inputs":[{"name":"signature","type":"bytes","internalType":"bytes"}]},{"type":"error","name":"InvalidState","inputs":[{"name":"height","type":"uint64","internalType":"uint64"},{"name":"timestamp","type":"uint64","internalType":"uint64"}]},{"type":"error","name":"NoAttestors","inputs":[]},{"type":"error","name":"NotMember","inputs":[]},{"type":"error","name":"NotNonMember","inputs":[]},{"type":"error","name":"SignatureInvalid","inputs":[{"name":"signature","type":"bytes","internalType":"bytes"}]},{"type":"error","name":"ThresholdNotMet","inputs":[{"name":"validSigners","type":"uint256","internalType":"uint256"},{"name":"minRequired","type":"uint8","internalType":"uint8"}]},{"type":"error","name":"UnknownSigner","inputs":[{"name":"signer","type":"address","internalType":"address"}]}],"bytecode":{"object":"0x60806040523461032d57611ec58038038061001981610349565b928339810160a08282031261032d5781516001600160401b03811161032d57820181601f8201121561032d578051916001600160401b0383116102c8578260051b916020610068818501610349565b8095815201906020829482010192831161032d57602001905b8282106103315750505060208301519260ff841680940361032d576100a860408201610382565b6100c060806100b960608501610382565b930161036e565b9284511561031e57851515806102f2575b855190156102dc575060405195608087016001600160401b038111888210176102c857604052858752602087019081526060604088019360018060401b03169788855201915f835286519060018060401b0382116102c8576801000000000000000082116102c85760015482600155808310610284575b5060015f5260205f205f5b838110610267575050505060ff90511669ff00000000000000000060025493610100600160481b03905160081b169251151560481b169260018060501b0319161717176002555f5b83518110156101fb5760018060a01b0360208260051b8601015116805f52600360205260ff60405f2054166101e957906001915f52600360205260405f208260ff198254161790550161019b565b637010e27960e11b5f5260045260245ffd5b505f84815260046020526040902080546001600160401b0319166001600160401b039092169190911790556001600160a01b03811661024e575061023d61048c565b505b604051611916908161050f8239f35b8061025b61026192610396565b5061040c565b5061023f565b82516001600160a01b031681830155602090920191600101610153565b60015f527fb10e2d527612073b26eecdfd717e6a320cf44b4afac2b0732d9fcbe2b7fa0cf69081019083015b8181106102bd5750610148565b5f81556001016102b0565b634e487b7160e01b5f52604160045260245ffd5b866365846b7f60e01b5f5260045260245260445ffd5b5084515f19870160ff811161030a5760ff16106100d1565b634e487b7160e01b5f52601160045260245ffd5b6343d0a89360e11b5f5260045ffd5b5f80fd5b6020809161033e8461036e565b815201910190610081565b6040519190601f01601f191682016001600160401b038111838210176102c857604052565b51906001600160a01b038216820361032d57565b51906001600160401b038216820361032d57565b6001600160a01b0381165f9081525f516020611ea55f395f51905f52602052604090205460ff16610407576001600160a01b03165f8181525f516020611ea55f395f51905f5260205260408120805460ff191660011790553391905f516020611e255f395f51905f528180a4600190565b505f90565b6001600160a01b0381165f9081525f516020611e455f395f51905f52602052604090205460ff16610407576001600160a01b03165f8181525f516020611e455f395f51905f5260205260408120805460ff191660011790553391905f516020611e855f395f51905f52905f516020611e255f395f51905f529080a4600190565b5f80525f516020611e455f395f51905f526020525f516020611e655f395f51905f525460ff1661050a575f8080525f516020611e455f395f51905f526020525f516020611e655f395f51905f52805460ff1916600117905533905f516020611e855f395f51905f525f516020611e255f395f51905f528280a4600190565b5f9056fe6080806040526004361015610012575f80fd5b5f3560e01c90816301ffc9a7146106ab575080630bece356146105e8578063248a9ca3146105be5780632f2ff15d1461058f57806336568abe146105335780634d6d9ffb146104865780635832611b146104405780635972185a14610406578063682ed5f01461035157806391d1485414610308578063a217fddf146102ee578063a845a7f314610261578063d547741f1461022b578063ddba65371461015f5763ef913a4b146100c1575f80fd5b3461015b575f60031936011261015b576101576040516020808201526080604082015261014b816100f460c0820161121d565b60ff600254818116606085015267ffffffffffffffff8160081c16608085015260481c16151560a0830152037fffffffffffffffffffffffffffffffffffffffffffffffffffffffffffffffe0810183528261085e565b604051918291826107cd565b0390f35b5f80fd5b3461015b5761016d36610749565b505060ff60025460481c16610203575f80527f4c48d1d2b0f4f7485fc28e3db22341d96a20aa29e6efa8149da9751603abd4e06020527f6e0c24a6e293ff9b755263dbaa15ba3796b0b8d3fe17cfb4ddf8143b268eac475460ff16156101f6575b7fda81d7c2000000000000000000000000000000000000000000000000000000005f5260045ffd5b6101fe61126c565b6101ce565b7f928b1233000000000000000000000000000000000000000000000000000000005f5260045ffd5b3461015b5761025f61023c3661079a565b9061025a610255825f525f602052600160405f20015490565b6112f4565b6116cd565b005b3461015b575f60031936011261015b5760ff6002541660405161028e816102878161121d565b038261085e565b60405190604082019260408352815180945260206060840192015f945b8086106102c057505082935060208301520390f35b909260208060019273ffffffffffffffffffffffffffffffffffffffff8751168152019401950194906102ab565b3461015b575f60031936011261015b5760206040515f8152f35b3461015b576103163661079a565b905f525f60205273ffffffffffffffffffffffffffffffffffffffff60405f2091165f52602052602060ff60405f2054166040519015158152f35b3461015b57602060031936011261015b5760043567ffffffffffffffff811161015b5760a0600319823603011261015b5760ff60025460481c16610203575f80527f4c48d1d2b0f4f7485fc28e3db22341d96a20aa29e6efa8149da9751603abd4e060209081527f6e0c24a6e293ff9b755263dbaa15ba3796b0b8d3fe17cfb4ddf8143b268eac475490916103f19160ff16156103f9575b60040161108b565b604051908152f35b61040161126c565b6103e9565b3461015b575f60031936011261015b5760206040517fbd893629a699470e4ec82a5715bb4981fdaacc5d0a728bf5f55b801d8f4ef10b8152f35b3461015b57602060031936011261015b5760043567ffffffffffffffff811680910361015b575f526004602052602067ffffffffffffffff60405f205416604051908152f35b3461015b57602060031936011261015b5760043567ffffffffffffffff811161015b576080600319823603011261015b5760ff60025460481c16610203575f80527f4c48d1d2b0f4f7485fc28e3db22341d96a20aa29e6efa8149da9751603abd4e060209081527f6e0c24a6e293ff9b755263dbaa15ba3796b0b8d3fe17cfb4ddf8143b268eac475490916103f19160ff1615610526575b600401610e97565b61052e61126c565b61051e565b3461015b576105413661079a565b3373ffffffffffffffffffffffffffffffffffffffff8216036105675761025f916116cd565b7f6697b232000000000000000000000000000000000000000000000000000000005f5260045ffd5b3461015b5761025f6105a03661079a565b906105b9610255825f525f602052600160405f20015490565b6115fb565b3461015b57602060031936011261015b5760206103f16004355f525f602052600160405f20015490565b3461015b576105f636610749565b60ff60025460481c16610203575f80527f4c48d1d2b0f4f7485fc28e3db22341d96a20aa29e6efa8149da9751603abd4e06020527f6e0c24a6e293ff9b755263dbaa15ba3796b0b8d3fe17cfb4ddf8143b268eac475461065e929060ff161561069e57610a3c565b6040516003821015610671576020918152f35b7f4e487b71000000000000000000000000000000000000000000000000000000005f52602160045260245ffd5b6106a661126c565b610a3c565b3461015b57602060031936011261015b57600435907fffffffff00000000000000000000000000000000000000000000000000000000821680920361015b57817f7965db0b000000000000000000000000000000000000000000000000000000006020931490811561071f575b5015158152f35b7f01ffc9a70000000000000000000000000000000000000000000000000000000091501483610718565b90602060031983011261015b5760043567ffffffffffffffff811161015b578260238201121561015b5780600401359267ffffffffffffffff841161015b576024848301011161015b576024019190565b600319604091011261015b576004359060243573ffffffffffffffffffffffffffffffffffffffff8116810361015b5790565b7fffffffffffffffffffffffffffffffffffffffffffffffffffffffffffffffe0601f602060409481855280519182918282880152018686015e5f8582860101520116010190565b6040810190811067ffffffffffffffff82111761083157604052565b7f4e487b71000000000000000000000000000000000000000000000000000000005f52604160045260245ffd5b90601f7fffffffffffffffffffffffffffffffffffffffffffffffffffffffffffffffe0910116810190811067ffffffffffffffff82111761083157604052565b92919267ffffffffffffffff821161083157604051916108e760207fffffffffffffffffffffffffffffffffffffffffffffffffffffffffffffffe0601f840116018461085e565b82948184528183011161015b578281602093845f960137010152565b9080601f8301121561015b5781602061091e9335910161089f565b90565b67ffffffffffffffff81116108315760051b60200190565b60208183031261015b5780359067ffffffffffffffff821161015b57019060408282031261015b576040519161096e83610815565b803567ffffffffffffffff811161015b578261098b918301610903565b835260208101359067ffffffffffffffff821161015b57019080601f8301121561015b5781356109ba81610921565b926109c8604051948561085e565b81845260208085019260051b8201019183831161015b5760208201905b8382106109f9575050505050602082015290565b813567ffffffffffffffff811161015b57602091610a1c87848094880101610903565b8152019101906109e5565b519067ffffffffffffffff8216820361015b57565b610a4891810190610939565b60205f818351604051918183925191829101835e8101838152039060025afa15610c3357610a7c5f5160208301519061135a565b5160408180518101031261015b57604051610a9681610815565b610ab16040610aa760208501610a27565b9384845201610a27565b67ffffffffffffffff60208301938285521680151580610c20575b15610be657505067ffffffffffffffff8151165f52600460205267ffffffffffffffff60405f20541680610b95575067ffffffffffffffff9051918183169260025490838260081c168511610b58575b50505116905f52600460205260405f20907fffffffffffffffffffffffffffffffffffffffffffffffff00000000000000008254161790555f90565b68ffffffffffffffff007fffffffffffffffffffffffffffffffffffffffffffffff0000000000000000ff9160081b169116176002555f80610b1c565b9167ffffffffffffffff9150511603610bad57600290565b69010000000000000000007fffffffffffffffffffffffffffffffffffffffffffff00ffffffffffffffffff6002541617600255600190565b67ffffffffffffffff92507fdcbc5460000000000000000000000000000000000000000000000000000000005f526004521660245260445ffd5b5067ffffffffffffffff82161515610acc565b6040513d5f823e3d90fd5b9035907fffffffffffffffffffffffffffffffffffffffffffffffffffffffffffffffe18136030182121561015b570180359067ffffffffffffffff821161015b57602001918160051b3603831361015b57565b3567ffffffffffffffff8116810361015b5790565b15610caf5750565b67ffffffffffffffff907ff7caaa5c000000000000000000000000000000000000000000000000000000005f521660045260245ffd5b9035907fffffffffffffffffffffffffffffffffffffffffffffffffffffffffffffffe18136030182121561015b570180359067ffffffffffffffff821161015b5760200191813603831361015b57565b60208183031261015b5780519067ffffffffffffffff821161015b57019060408282031261015b5760405191610d6b83610815565b610d7481610a27565b835260208101519067ffffffffffffffff821161015b570181601f8201121561015b57805190610da382610921565b92610db1604051948561085e565b82845260208085019360061b8301019181831161015b57602001925b828410610de05750505050602082015290565b60408483031261015b5760206040918251610dfa81610815565b865181528287015183820152815201930192610dcd565b15610e1a575050565b9067ffffffffffffffff80927fc7441689000000000000000000000000000000000000000000000000000000005f52166004521660245260445ffd5b8051821015610e6a5760209160051b010190565b7f4e487b71000000000000000000000000000000000000000000000000000000005f52603260045260245ffd5b6060810190610ea68282610c3e565b90506001610eb48484610c3e565b9290500361105b5750610ec960408201610c92565b9167ffffffffffffffff831690815f52600460205267ffffffffffffffff60405f20541692610efa85851515610ca7565b610f0f610f078280610ce5565b810190610939565b60205f818351604051918183925191829101835e8101838152039060025afa15610c3357610f7893610f5e610f7392610f4e5f5160208301519061135a565b5160208082518301019101610d36565b9667ffffffffffffffff885116918214610e11565b610c3e565b15610e6a57610f93610f8c82602093610ce5565b369161089f565b818151910120920180515115611033575f5b8151805182101561100b57610fbb828692610e56565b515114610fca57600101610fa5565b6020929350610fd99151610e56565b510151610fe35790565b7f9a960b4f000000000000000000000000000000000000000000000000000000005f5260045ffd5b7f291fc442000000000000000000000000000000000000000000000000000000005f5260045ffd5b7f1e6c84da000000000000000000000000000000000000000000000000000000005f5260045ffd5b7f88b3170e000000000000000000000000000000000000000000000000000000005f52600160045260245260445ffd5b608081016110998183610ce5565b9050156111f55760608201906110af8284610c3e565b905060016110bd8486610c3e565b9290500361105b57506110d260408401610c92565b9067ffffffffffffffff8216805f52600460205267ffffffffffffffff60405f2054169361110284861515610ca7565b61110f610f078780610ce5565b60205f818351604051918183925191829101835e8101838152039060025afa15610c33576111699261114e61116392610f4e5f5160208301519061135a565b9567ffffffffffffffff875116918214610e11565b85610c3e565b15610e6a57602091611181610f8c8361118d94610ce5565b83815191012095610ce5565b908092918101031261015b576020903591019081515115611033575f5b8251805182101561100b576111c0828792610e56565b515114806111dd575b6111d5576001016111aa565b505050905090565b508160206111ec838651610e56565b510151146111c9565b7f1208b21b000000000000000000000000000000000000000000000000000000005f5260045ffd5b602060015491828152019060015f5260205f20905f5b8181106112405750505090565b825473ffffffffffffffffffffffffffffffffffffffff16845260209093019260019283019201611233565b335f9081527f4c48d1d2b0f4f7485fc28e3db22341d96a20aa29e6efa8149da9751603abd4e0602052604090205460ff16156112a457565b7fe2517d3f000000000000000000000000000000000000000000000000000000005f52336004527fbd893629a699470e4ec82a5715bb4981fdaacc5d0a728bf5f55b801d8f4ef10b60245260445ffd5b805f525f60205260405f2073ffffffffffffffffffffffffffffffffffffffff33165f5260205260ff60405f2054161561132b5750565b7fe2517d3f000000000000000000000000000000000000000000000000000000005f523360045260245260445ffd5b9190918251156115d357825160ff60025416907fffffffffffffffffffffffffffffffffffffffffffffffffffffffffffffffff82019060ff82116115a65760ff8651921610156115785750508251927fffffffffffffffffffffffffffffffffffffffffffffffffffffffffffffffe06113ed6113d786610921565b956113e5604051978861085e565b808752610921565b013660208601375f5b8151811015611571576114098183610e56565b51604181510361153b5773ffffffffffffffffffffffffffffffffffffffff61143e6114358387611795565b909291926117cf565b169081156115015750805f52600360205260ff60405f205416156114d6575f5b82811061147b5750906001916114748288610e56565b52016113f6565b8173ffffffffffffffffffffffffffffffffffffffff61149b838a610e56565b5116146114aa5760010161145e565b507fe021c4f2000000000000000000000000000000000000000000000000000000005f5260045260245ffd5b7fd7e8a2c2000000000000000000000000000000000000000000000000000000005f5260045260245ffd5b611537906040519182917f9e3c1b3d000000000000000000000000000000000000000000000000000000008352600483016107cd565b0390fd5b611537906040519182917f2ee17a3d000000000000000000000000000000000000000000000000000000008352600483016107cd565b5050509050565b7f378b0805000000000000000000000000000000000000000000000000000000005f5260045260245260445ffd5b7f4e487b71000000000000000000000000000000000000000000000000000000005f52601160045260245ffd5b7f301b38b6000000000000000000000000000000000000000000000000000000005f5260045ffd5b805f525f60205260405f2073ffffffffffffffffffffffffffffffffffffffff83165f5260205260ff60405f205416155f146116c757805f525f60205260405f2073ffffffffffffffffffffffffffffffffffffffff83165f5260205260405f2060017fffffffffffffffffffffffffffffffffffffffffffffffffffffffffffffff0082541617905573ffffffffffffffffffffffffffffffffffffffff339216907f2f8788117e7eff1d82e926ec794901d17c78024a50270940304540a733656f0d5f80a4600190565b50505f90565b805f525f60205260405f2073ffffffffffffffffffffffffffffffffffffffff83165f5260205260ff60405f2054165f146116c757805f525f60205260405f2073ffffffffffffffffffffffffffffffffffffffff83165f5260205260405f207fffffffffffffffffffffffffffffffffffffffffffffffffffffffffffffff00815416905573ffffffffffffffffffffffffffffffffffffffff339216907ff6391f5c32d9c69d2a47ea670b442974b53935d1edc7fd64eb21e047a839171b5f80a4600190565b81519190604183036117c5576117be9250602082015190606060408401519301515f1a9061187a565b9192909190565b50505f9160029190565b600481101561067157806117e1575050565b60018103611811577ff645eedf000000000000000000000000000000000000000000000000000000005f5260045ffd5b6002810361184557507ffce698f7000000000000000000000000000000000000000000000000000000005f5260045260245ffd5b60031461184f5750565b7fd78bce0c000000000000000000000000000000000000000000000000000000005f5260045260245ffd5b91907f7fffffffffffffffffffffffffffffff5d576e7357a4501ddfe92f46681b20a084116118fe579160209360809260ff5f9560405194855216868401526040830152606082015282805260015afa15610c33575f5173ffffffffffffffffffffffffffffffffffffffff8116156118f457905f905f90565b505f906001905f90565b5050505f916003919056fea164736f6c634300081c000a2f8788117e7eff1d82e926ec794901d17c78024a50270940304540a733656f0d4c48d1d2b0f4f7485fc28e3db22341d96a20aa29e6efa8149da9751603abd4e06e0c24a6e293ff9b755263dbaa15ba3796b0b8d3fe17cfb4ddf8143b268eac47bd893629a699470e4ec82a5715bb4981fdaacc5d0a728bf5f55b801d8f4ef10bad3228b676f7d3cd4284a5443f17f1962b36e491b30a40b2405849e597ba5fb5","linkReferences":{}},"methodIdentifiers":{"DEFAULT_ADMIN_ROLE()":"a217fddf","PROOF_SUBMITTER_ROLE()":"5972185a","getAttestationSet()":"a845a7f3","getClientState()":"ef913a4b","getConsensusTimestamp(uint64)":"5832611b","getRoleAdmin(bytes32)":"248a9ca3","grantRole(bytes32,address)":"2f2ff15d","hasRole(bytes32,address)":"91d14854","misbehaviour(bytes)":"ddba6537","renounceRole(bytes32,address)":"36568abe","revokeRole(bytes32,address)":"d547741f","supportsInterface(bytes4)":"01ffc9a7","updateClient(bytes)":"0bece356","verifyMembership((bytes,(uint64,uint64),bytes[],bytes))":"682ed5f0","verifyNonMembership((bytes,(uint64,uint64),bytes[]))":"4d6d9ffb"},"id":29}