{"abi":[{"type":"constructor","inputs":[{"name":"attestorAddresses","type":"address[]","internalType":"address[]"},{"name":"minRequiredSigs","type":"uint8","internalType":"uint8"},{"name":"initialHeight","type":"uint64","internalType":"uint64"},{"name":"initialTimestampSeconds","type":"uint64","internalType":"uint64"},{"name":"roleManager","type":"address","internalType":"address"}],"stateMutability":"nonpayable"},{"type":"function","name":"DEFAULT_ADMIN_ROLE","inputs":[],"outputs":[{"name":"","type":"bytes32","internalType":"bytes32"}],"stateMutability":"view"},{"type":"function","name":"PROOF_SUBMITTER_ROLE","inputs":[],"outputs":[{"name":"","type":"bytes32","internalType":"bytes32"}],"stateMutability":"view"},{"type":"function","name":"getAttestorSet","inputs":[],"outputs":[{"name":"attestorAddresses","type":"address[]","internalType":"address[]"},{"name":"minRequiredSigs","type":"uint8","internalType":"uint8"}],"stateMutability":"view"},{"type":"function","name":"getClientState","inputs":[],"outputs":[{"name":"","type":"bytes","internalType":"bytes"}],"stateMutability":"view"},{"type":"function","name":"getConsensusTimestamp","inputs":[{"name":"revisionHeight","type":"uint64","internalType":"uint64"}],"outputs":[{"name":"","type":"uint64","internalType":"uint64"}],"stateMutability":"view"},{"type":"function","name":"getRoleAdmin","inputs":[{"name":"role","type":"bytes32","internalType":"bytes32"}],"outputs":[{"name":"","type":"bytes32","internalType":"bytes32"}],"stateMutability":"view"},{"type":"function","name":"grantRole","inputs":[{"name":"role","type":"bytes32","internalType":"bytes32"},{"name":"account","type":"address","internalType":"address"}],"outputs":[],"stateMutability":"nonpayable"},{"type":"function","name":"hasRole","inputs":[{"name":"role","type":"bytes32","internalType":"bytes32"},{"name":"account","type":"address","internalType":"address"}],"outputs":[{"name":"","type":"bool","internalType":"bool"}],"stateMutability":"view"},{"type":"function","name":"misbehaviour","inputs":[{"name":"","type":"bytes","internalType":"bytes"}],"outputs":[],"stateMutability":"view"},{"type":"function","name":"renounceRole","inputs":[{"name":"role","type":"bytes32","internalType":"bytes32"},{"name":"callerConfirmation","type":"address","internalType":"address"}],"outputs":[],"stateMutability":"nonpayable"},{"type":"function","name":"revokeRole","inputs":[{"name":"role","type":"bytes32","internalType":"bytes32"},{"name":"account","type":"address","internalType":"address"}],"outputs":[],"stateMutability":"nonpayable"},{"type":"function","name":"supportsInterface","inputs":[{"name":"interfaceId","type":"bytes4","internalType":"bytes4"}],"outputs":[{"name":"","type":"bool","internalType":"bool"}],"stateMutability":"view"},{"type":"function","name":"updateClient","inputs":[{"name":"updateMsg","type":"bytes","internalType":"bytes"}],"outputs":[{"name":"","type":"uint8","internalType":"enum ILightClientMsgs.UpdateResult"}],"stateMutability":"nonpayable"},{"type":"function","name":"upgradeClient","inputs":[{"name":"","type":"bytes","internalType":"bytes"}],"outputs":[],"stateMutability":"view"},{"type":"function","name":"verifyMembership","inputs":[{"name":"msg_","type":"tuple","internalType":"struct ILightClientMsgs.MsgVerifyMembership","components":[{"name":"proof","type":"bytes","internalType":"bytes"},{"name":"proofHeight","type":"tuple","internalType":"struct IICS02ClientMsgs.Height","components":[{"name":"revisionNumber","type":"uint64","internalType":"uint64"},{"name":"revisionHeight","type":"uint64","internalType":"uint64"}]},{"name":"path","type":"bytes[]","internalType":"bytes[]"},{"name":"value","type":"bytes","internalType":"bytes"}]}],"outputs":[{"name":"","type":"uint256","internalType":"uint256"}],"stateMutability":"view"},{"type":"function","name":"verifyNonMembership","inputs":[{"name":"","type":"tuple","internalType":"struct ILightClientMsgs.MsgVerifyNonMembership","components":[{"name":"proof","type":"bytes","internalType":"bytes"},{"name":"proofHeight","type":"tuple","internalType":"struct IICS02ClientMsgs.Height","components":[{"name":"revisionNumber","type":"uint64","internalType":"uint64"},{"name":"revisionHeight","type":"uint64","internalType":"uint64"}]},{"name":"path","type":"bytes[]","internalType":"bytes[]"}]}],"outputs":[{"name":"","type":"uint256","internalType":"uint256"}],"stateMutability":"view"},{"type":"event","name":"RoleAdminChanged","inputs":[{"name":"role","type":"bytes32","indexed":true,"internalType":"bytes32"},{"name":"previousAdminRole","type":"bytes32","indexed":true,"internalType":"bytes32"},{"name":"newAdminRole","type":"bytes32","indexed":true,"internalType":"bytes32"}],"anonymous":false},{"type":"event","name":"RoleGranted","inputs":[{"name":"role","type":"bytes32","indexed":true,"internalType":"bytes32"},{"name":"account","type":"address","indexed":true,"internalType":"address"},{"name":"sender","type":"address","indexed":true,"internalType":"address"}],"anonymous":false},{"type":"event","name":"RoleRevoked","inputs":[{"name":"role","type":"bytes32","indexed":true,"internalType":"bytes32"},{"name":"account","type":"address","indexed":true,"internalType":"address"},{"name":"sender","type":"address","indexed":true,"internalType":"address"}],"anonymous":false},{"type":"error","name":"AccessControlBadConfirmation","inputs":[]},{"type":"error","name":"AccessControlUnauthorizedAccount","inputs":[{"name":"account","type":"address","internalType":"address"},{"name":"neededRole","type":"bytes32","internalType":"bytes32"}]},{"type":"error","name":"BadQuorum","inputs":[{"name":"minRequired","type":"uint8","internalType":"uint8"},{"name":"attestorCount","type":"uint256","internalType":"uint256"}]},{"type":"error","name":"ConflictingTimestamp","inputs":[{"name":"height","type":"uint64","internalType":"uint64"},{"name":"storedTimestamp","type":"uint64","internalType":"uint64"},{"name":"providedTimestamp","type":"uint64","internalType":"uint64"}]},{"type":"error","name":"ConsensusTimestampNotFound","inputs":[{"name":"height","type":"uint64","internalType":"uint64"}]},{"type":"error","name":"DuplicateSigner","inputs":[{"name":"signer","type":"address","internalType":"address"}]},{"type":"error","name":"ECDSAInvalidSignature","inputs":[]},{"type":"error","name":"ECDSAInvalidSignatureLength","inputs":[{"name":"length","type":"uint256","internalType":"uint256"}]},{"type":"error","name":"ECDSAInvalidSignatureS","inputs":[{"name":"s","type":"bytes32","internalType":"bytes32"}]},{"type":"error","name":"EmptyPacketCommitments","inputs":[]},{"type":"error","name":"EmptySignatures","inputs":[]},{"type":"error","name":"EmptyValue","inputs":[]},{"type":"error","name":"FeatureNotSupported","inputs":[]},{"type":"error","name":"FrozenClientState","inputs":[]},{"type":"error","name":"HeightMismatch","inputs":[{"name":"expected","type":"uint64","internalType":"uint64"},{"name":"provided","type":"uint64","internalType":"uint64"}]},{"type":"error","name":"InvalidSignatureLength","inputs":[{"name":"signature","type":"bytes","internalType":"bytes"}]},{"type":"error","name":"InvalidState","inputs":[{"name":"height","type":"uint64","internalType":"uint64"},{"name":"timestamp","type":"uint64","internalType":"uint64"}]},{"type":"error","name":"NoAttestors","inputs":[]},{"type":"error","name":"NotMember","inputs":[]},{"type":"error","name":"SignatureInvalid","inputs":[{"name":"signature","type":"bytes","internalType":"bytes"}]},{"type":"error","name":"ThresholdNotMet","inputs":[{"name":"validSigners","type":"uint256","internalType":"uint256"},{"name":"minRequired","type":"uint8","internalType":"uint8"}]},{"type":"error","name":"UnknownSigner","inputs":[{"name":"signer","type":"address","internalType":"address"}]}],"bytecode":{"object":"0x60806040523461030357611c13803803806100198161031f565b92833981019060a0818303126103035780516001600160401b0381116103035781019180601f84011215610303578251906001600160401b03821161029e578160051b93602061006a81870161031f565b8094815201906020829682010192831161030357602001905b8282106103075750505060208201519160ff8316809303610303576100aa60408201610358565b6100c260806100bb60608501610358565b9301610344565b948351156102f457841515806102c8575b845190156102b2575060405194608086016001600160401b0381118782101761029e57604052848652602086019081526060604087019360018060401b03169687855201915f835285519060018060401b03821161029e5768010000000000000000821161029e576001548260015580831061025a575b5060015f5260205f205f5b83811061023d575050505060ff90511669ff00000000000000000060025493610100600160481b03905160081b169251151560481b169260018060501b0319161717176002555f5b82518110156101d557600190818060a01b0360208260051b86010151165f52600360205260405f208260ff198254161790550161019d565b5f84815260046020526040902080546001600160401b0319166001600160401b038416179055846001600160a01b0381166102245750610213610462565b505b60405161168e90816104e58239f35b806102316102379261036c565b506103e2565b50610215565b82516001600160a01b031681830155602090920191600101610155565b60015f527fb10e2d527612073b26eecdfd717e6a320cf44b4afac2b0732d9fcbe2b7fa0cf69081019083015b818110610293575061014a565b5f8155600101610286565b634e487b7160e01b5f52604160045260245ffd5b856365846b7f60e01b5f5260045260245260445ffd5b5083515f19860160ff81116102e05760ff16106100d3565b634e487b7160e01b5f52601160045260245ffd5b6343d0a89360e11b5f5260045ffd5b5f80fd5b6020809161031484610344565b815201910190610083565b6040519190601f01601f191682016001600160401b0381118382101761029e57604052565b51906001600160a01b038216820361030357565b51906001600160401b038216820361030357565b6001600160a01b0381165f9081525f516020611bf35f395f51905f52602052604090205460ff166103dd576001600160a01b03165f8181525f516020611bf35f395f51905f5260205260408120805460ff191660011790553391905f516020611b735f395f51905f528180a4600190565b505f90565b6001600160a01b0381165f9081525f516020611b935f395f51905f52602052604090205460ff166103dd576001600160a01b03165f8181525f516020611b935f395f51905f5260205260408120805460ff191660011790553391905f516020611bd35f395f51905f52905f516020611b735f395f51905f529080a4600190565b5f80525f516020611b935f395f51905f526020525f516020611bb35f395f51905f525460ff166104e0575f8080525f516020611b935f395f51905f526020525f516020611bb35f395f51905f52805460ff1916600117905533905f516020611bd35f395f51905f525f516020611b735f395f51905f528280a4600190565b5f9056fe6080806040526004361015610012575f80fd5b5f3560e01c90816301ffc9a714610648575080630bece35614610585578063248a9ca31461055b5780632f2ff15d1461052c57806336568abe146104d05780634d6d9ffb1461040b5780635832611b146103c55780635972185a1461038b578063682ed5f0146102d65780638a8e4c5d1461016a57806391d148541461028d578063977cd76414610200578063a217fddf146101e6578063d547741f146101b0578063ddba65371461016a5763ef913a4b146100cc575f80fd5b34610166575f6003193601126101665761016260405160208082015260806040820152610156816100ff60c08201610f95565b60ff600254818116606085015267ffffffffffffffff8160081c16608085015260481c16151560a0830152037fffffffffffffffffffffffffffffffffffffffffffffffffffffffffffffffe081018352826107fb565b6040519182918261076a565b0390f35b5f80fd5b3461016657610178366106e6565b9060ff60025460481c1615610f1a575b7f928b1233000000000000000000000000000000000000000000000000000000005f5260045ffd5b34610166576101e46101c136610737565b906101df6101da825f525f602052600160405f20015490565b61106c565b611445565b005b34610166575f6003193601126101665760206040515f8152f35b34610166575f6003193601126101665760ff6002541660405161022d8161022681610f95565b03826107fb565b60405190604082019260408352815180945260206060840192015f945b80861061025f57505082935060208301520390f35b909260208060019273ffffffffffffffffffffffffffffffffffffffff87511681520194019501949061024a565b346101665761029b36610737565b905f525f60205273ffffffffffffffffffffffffffffffffffffffff60405f2091165f52602052602060ff60405f2054166040519015158152f35b346101665760206003193601126101665760043567ffffffffffffffff81116101665760a060031982360301126101665760ff60025460481c16610188575f80527f4c48d1d2b0f4f7485fc28e3db22341d96a20aa29e6efa8149da9751603abd4e060209081527f6e0c24a6e293ff9b755263dbaa15ba3796b0b8d3fe17cfb4ddf8143b268eac475490916103769160ff161561037e575b600401610c5b565b604051908152f35b610386610fe4565b61036e565b34610166575f6003193601126101665760206040517fbd893629a699470e4ec82a5715bb4981fdaacc5d0a728bf5f55b801d8f4ef10b8152f35b346101665760206003193601126101665760043567ffffffffffffffff8116809103610166575f526004602052602067ffffffffffffffff60405f205416604051908152f35b346101665760206003193601126101665760043567ffffffffffffffff811161016657600319608091360301126101665760ff60025460481c16610188575f80527f4c48d1d2b0f4f7485fc28e3db22341d96a20aa29e6efa8149da9751603abd4e06020527f6e0c24a6e293ff9b755263dbaa15ba3796b0b8d3fe17cfb4ddf8143b268eac475460ff16156104c3575b7fda81d7c2000000000000000000000000000000000000000000000000000000005f5260045ffd5b6104cb610fe4565b61049b565b34610166576104de36610737565b3373ffffffffffffffffffffffffffffffffffffffff821603610504576101e491611445565b7f6697b232000000000000000000000000000000000000000000000000000000005f5260045ffd5b34610166576101e461053d36610737565b906105566101da825f525f602052600160405f20015490565b611373565b346101665760206003193601126101665760206103766004355f525f602052600160405f20015490565b3461016657610593366106e6565b60ff60025460481c16610188575f80527f4c48d1d2b0f4f7485fc28e3db22341d96a20aa29e6efa8149da9751603abd4e06020527f6e0c24a6e293ff9b755263dbaa15ba3796b0b8d3fe17cfb4ddf8143b268eac47546105fb929060ff161561063b576109cb565b604051600382101561060e576020918152f35b7f4e487b71000000000000000000000000000000000000000000000000000000005f52602160045260245ffd5b610643610fe4565b6109cb565b3461016657602060031936011261016657600435907fffffffff00000000000000000000000000000000000000000000000000000000821680920361016657817f7965db0b00000000000000000000000000000000000000000000000000000000602093149081156106bc575b5015158152f35b7f01ffc9a700000000000000000000000000000000000000000000000000000000915014836106b5565b9060206003198301126101665760043567ffffffffffffffff811161016657826023820112156101665780600401359267ffffffffffffffff84116101665760248483010111610166576024019190565b6003196040910112610166576004359060243573ffffffffffffffffffffffffffffffffffffffff811681036101665790565b7fffffffffffffffffffffffffffffffffffffffffffffffffffffffffffffffe0601f602060409481855280519182918282880152018686015e5f8582860101520116010190565b6040810190811067ffffffffffffffff8211176107ce57604052565b7f4e487b71000000000000000000000000000000000000000000000000000000005f52604160045260245ffd5b90601f7fffffffffffffffffffffffffffffffffffffffffffffffffffffffffffffffe0910116810190811067ffffffffffffffff8211176107ce57604052565b81601f820112156101665780359067ffffffffffffffff82116107ce576040519261088f60207fffffffffffffffffffffffffffffffffffffffffffffffffffffffffffffffe0601f86011601856107fb565b8284526020838301011161016657815f926020809301838601378301015290565b67ffffffffffffffff81116107ce5760051b60200190565b6020818303126101665780359067ffffffffffffffff821161016657019060408282031261016657604051916108fd836107b2565b803567ffffffffffffffff8111610166578261091a91830161083c565b835260208101359067ffffffffffffffff821161016657019080601f83011215610166578135610949816108b0565b9261095760405194856107fb565b81845260208085019260051b820101918383116101665760208201905b838210610988575050505050602082015290565b813567ffffffffffffffff8111610166576020916109ab8784809488010161083c565b815201910190610974565b519067ffffffffffffffff8216820361016657565b6109d7918101906108c8565b60205f818351604051918183925191829101835e8101838152039060025afa15610bbe57610a0b5f516020830151906110d2565b5160408180518101031261016657604051610a25816107b2565b610a406040610a36602085016109b6565b93848452016109b6565b67ffffffffffffffff60208301938285521680151580610bab575b15610b715750508067ffffffffffffffff809251165f5260046020528160405f205416610b125751918183169260025490838260081c168511610ad5575b50505116905f52600460205260405f20907fffffffffffffffffffffffffffffffffffffffffffffffff00000000000000008254161790555f90565b68ffffffffffffffff007fffffffffffffffffffffffffffffffffffffffffffffff0000000000000000ff9160081b169116176002555f80610a99565b51165f52600460205267ffffffffffffffff8060405f20541691511603610b3857600290565b69010000000000000000007fffffffffffffffffffffffffffffffffffffffffffff00ffffffffffffffffff6002541617600255600190565b67ffffffffffffffff92507fdcbc5460000000000000000000000000000000000000000000000000000000005f526004521660245260445ffd5b5067ffffffffffffffff82161515610a5b565b6040513d5f823e3d90fd5b9035907fffffffffffffffffffffffffffffffffffffffffffffffffffffffffffffffe181360301821215610166570180359067ffffffffffffffff82116101665760200191813603831361016657565b8051821015610c2e5760209160051b010190565b7f4e487b71000000000000000000000000000000000000000000000000000000005f52603260045260245ffd5b6080810190610c6a8282610bc9565b905015610ef25760408101359167ffffffffffffffff831680930361016657825f52600460205267ffffffffffffffff60405f205416918215610ec657610cbc610cb48280610bc9565b8101906108c8565b60205f818351604051918183925191829101835e8101838152039060025afa15610bbe57610cf05f516020830151906110d2565b51938451850160208101956020818303126101665760208101519067ffffffffffffffff82116101665701906040828203126101665760405191610d33836107b2565b610d3f602082016109b6565b8352604081015167ffffffffffffffff81116101665760209101019680601f8901121561016657875191610d72836108b0565b98610d806040519a8b6107fb565b838a526020808b019460061b82010192831161016657602001925b828410610e925750505050602081019586525167ffffffffffffffff1690808203610e6457505083515115610e3c57602091610dd691610bc9565b908092918101031261016657355f5b83518051821015610e14576020610dfd838593610c1a565b51015114610e0d57600101610de5565b5050905090565b7f291fc442000000000000000000000000000000000000000000000000000000005f5260045ffd5b7f716c96be000000000000000000000000000000000000000000000000000000005f5260045ffd5b7fc7441689000000000000000000000000000000000000000000000000000000005f5260045260245260445ffd5b6040602085840301126101665760206040918251610eaf816107b2565b865181528287015183820152815201930192610d9b565b837ff7caaa5c000000000000000000000000000000000000000000000000000000005f5260045260245ffd5b7f1208b21b000000000000000000000000000000000000000000000000000000005f5260045ffd5b50505f80527f4c48d1d2b0f4f7485fc28e3db22341d96a20aa29e6efa8149da9751603abd4e06020527f6e0c24a6e293ff9b755263dbaa15ba3796b0b8d3fe17cfb4ddf8143b268eac475460ff16156104c3577fda81d7c2000000000000000000000000000000000000000000000000000000005f5260045ffd5b602060015491828152019060015f5260205f20905f5b818110610fb85750505090565b825473ffffffffffffffffffffffffffffffffffffffff16845260209093019260019283019201610fab565b335f9081527f4c48d1d2b0f4f7485fc28e3db22341d96a20aa29e6efa8149da9751603abd4e0602052604090205460ff161561101c57565b7fe2517d3f000000000000000000000000000000000000000000000000000000005f52336004527fbd893629a699470e4ec82a5715bb4981fdaacc5d0a728bf5f55b801d8f4ef10b60245260445ffd5b805f525f60205260405f2073ffffffffffffffffffffffffffffffffffffffff33165f5260205260ff60405f205416156110a35750565b7fe2517d3f000000000000000000000000000000000000000000000000000000005f523360045260245260445ffd5b91909182511561134b578251927fffffffffffffffffffffffffffffffffffffffffffffffffffffffffffffffe061112261110c866108b0565b9561111a60405197886107fb565b8087526108b0565b013660208601375f5b81518110156112a65761113e8183610c1a565b5160418151036112705773ffffffffffffffffffffffffffffffffffffffff61117361116a838761150d565b90929192611547565b169081156112365750805f52600360205260ff60405f2054161561120b575f5b8281106111b05750906001916111a98288610c1a565b520161112b565b8173ffffffffffffffffffffffffffffffffffffffff6111d0838a610c1a565b5116146111df57600101611193565b507fe021c4f2000000000000000000000000000000000000000000000000000000005f5260045260245ffd5b7fd7e8a2c2000000000000000000000000000000000000000000000000000000005f5260045260245ffd5b61126c906040519182917f9e3c1b3d0000000000000000000000000000000000000000000000000000000083526004830161076a565b0390fd5b61126c906040519182917f2ee17a3d0000000000000000000000000000000000000000000000000000000083526004830161076a565b509192505080519060ff60025416917fffffffffffffffffffffffffffffffffffffffffffffffffffffffffffffffff83019160ff831161131e57519160ff1610156112f0575050565b7f378b0805000000000000000000000000000000000000000000000000000000005f5260045260245260445ffd5b7f4e487b71000000000000000000000000000000000000000000000000000000005f52601160045260245ffd5b7f301b38b6000000000000000000000000000000000000000000000000000000005f5260045ffd5b805f525f60205260405f2073ffffffffffffffffffffffffffffffffffffffff83165f5260205260ff60405f205416155f1461143f57805f525f60205260405f2073ffffffffffffffffffffffffffffffffffffffff83165f5260205260405f2060017fffffffffffffffffffffffffffffffffffffffffffffffffffffffffffffff0082541617905573ffffffffffffffffffffffffffffffffffffffff339216907f2f8788117e7eff1d82e926ec794901d17c78024a50270940304540a733656f0d5f80a4600190565b50505f90565b805f525f60205260405f2073ffffffffffffffffffffffffffffffffffffffff83165f5260205260ff60405f2054165f1461143f57805f525f60205260405f2073ffffffffffffffffffffffffffffffffffffffff83165f5260205260405f207fffffffffffffffffffffffffffffffffffffffffffffffffffffffffffffff00815416905573ffffffffffffffffffffffffffffffffffffffff339216907ff6391f5c32d9c69d2a47ea670b442974b53935d1edc7fd64eb21e047a839171b5f80a4600190565b815191906041830361153d576115369250602082015190606060408401519301515f1a906115f2565b9192909190565b50505f9160029190565b600481101561060e5780611559575050565b60018103611589577ff645eedf000000000000000000000000000000000000000000000000000000005f5260045ffd5b600281036115bd57507ffce698f7000000000000000000000000000000000000000000000000000000005f5260045260245ffd5b6003146115c75750565b7fd78bce0c000000000000000000000000000000000000000000000000000000005f5260045260245ffd5b91907f7fffffffffffffffffffffffffffffff5d576e7357a4501ddfe92f46681b20a08411611676579160209360809260ff5f9560405194855216868401526040830152606082015282805260015afa15610bbe575f5173ffffffffffffffffffffffffffffffffffffffff81161561166c57905f905f90565b505f906001905f90565b5050505f916003919056fea164736f6c634300081c000a2f8788117e7eff1d82e926ec794901d17c78024a50270940304540a733656f0d4c48d1d2b0f4f7485fc28e3db22341d96a20aa29e6efa8149da9751603abd4e06e0c24a6e293ff9b755263dbaa15ba3796b0b8d3fe17cfb4ddf8143b268eac47bd893629a699470e4ec82a5715bb4981fdaacc5d0a728bf5f55b801d8f4ef10bad3228b676f7d3cd4284a5443f17f1962b36e491b30a40b2405849e597ba5fb5","linkReferences":{}},"methodIdentifiers":{"DEFAULT_ADMIN_ROLE()":"a217fddf","PROOF_SUBMITTER_ROLE()":"5972185a","getAttestorSet()":"977cd764","getClientState()":"ef913a4b","getConsensusTimestamp(uint64)":"5832611b","getRoleAdmin(bytes32)":"248a9ca3","grantRole(bytes32,address)":"2f2ff15d","hasRole(bytes32,address)":"91d14854","misbehaviour(bytes)":"ddba6537","renounceRole(bytes32,address)":"36568abe","revokeRole(bytes32,address)":"d547741f","supportsInterface(bytes4)":"01ffc9a7","updateClient(bytes)":"0bece356","upgradeClient(bytes)":"8a8e4c5d","verifyMembership((bytes,(uint64,uint64),bytes[],bytes))":"682ed5f0","verifyNonMembership((bytes,(uint64,uint64),bytes[]))":"4d6d9ffb"},"id":28}