{"abi":[{"type":"constructor","inputs":[{"name":"attestorAddresses","type":"address[]","internalType":"address[]"},{"name":"minRequiredSigs","type":"uint8","internalType":"uint8"},{"name":"initialHeight","type":"uint64","internalType":"uint64"},{"name":"initialTimestampSeconds","type":"uint64","internalType":"uint64"},{"name":"roleManager","type":"address","internalType":"address"}],"stateMutability":"nonpayable"},{"type":"function","name":"DEFAULT_ADMIN_ROLE","inputs":[],"outputs":[{"name":"","type":"bytes32","internalType":"bytes32"}],"stateMutability":"view"},{"type":"function","name":"PROOF_SUBMITTER_ROLE","inputs":[],"outputs":[{"name":"","type":"bytes32","internalType":"bytes32"}],"stateMutability":"view"},{"type":"function","name":"getAttestorSet","inputs":[],"outputs":[{"name":"attestorAddresses","type":"address[]","internalType":"address[]"},{"name":"minRequiredSigs","type":"uint8","internalType":"uint8"}],"stateMutability":"view"},{"type":"function","name":"getClientState","inputs":[],"outputs":[{"name":"","type":"bytes","internalType":"bytes"}],"stateMutability":"view"},{"type":"function","name":"getConsensusTimestamp","inputs":[{"name":"revisionHeight","type":"uint64","internalType":"uint64"}],"outputs":[{"name":"","type":"uint64","internalType":"uint64"}],"stateMutability":"view"},{"type":"function","name":"getRoleAdmin","inputs":[{"name":"role","type":"bytes32","internalType":"bytes32"}],"outputs":[{"name":"","type":"bytes32","internalType":"bytes32"}],"stateMutability":"view"},{"type":"function","name":"grantRole","inputs":[{"name":"role","type":"bytes32","internalType":"bytes32"},{"name":"account","type":"address","internalType":"address"}],"outputs":[],"stateMutability":"nonpayable"},{"type":"function","name":"hasRole","inputs":[{"name":"role","type":"bytes32","internalType":"bytes32"},{"name":"account","type":"address","internalType":"address"}],"outputs":[{"name":"","type":"bool","internalType":"bool"}],"stateMutability":"view"},{"type":"function","name":"misbehaviour","inputs":[{"name":"","type":"bytes","internalType":"bytes"}],"outputs":[],"stateMutability":"view"},{"type":"function","name":"renounceRole","inputs":[{"name":"role","type":"bytes32","internalType":"bytes32"},{"name":"callerConfirmation","type":"address","internalType":"address"}],"outputs":[],"stateMutability":"nonpayable"},{"type":"function","name":"revokeRole","inputs":[{"name":"role","type":"bytes32","internalType":"bytes32"},{"name":"account","type":"address","internalType":"address"}],"outputs":[],"stateMutability":"nonpayable"},{"type":"function","name":"supportsInterface","inputs":[{"name":"interfaceId","type":"bytes4","internalType":"bytes4"}],"outputs":[{"name":"","type":"bool","internalType":"bool"}],"stateMutability":"view"},{"type":"function","name":"updateClient","inputs":[{"name":"updateMsg","type":"bytes","internalType":"bytes"}],"outputs":[{"name":"","type":"uint8","internalType":"enum ILightClientMsgs.UpdateResult"}],"stateMutability":"nonpayable"},{"type":"function","name":"upgradeClient","inputs":[{"name":"","type":"bytes","internalType":"bytes"}],"outputs":[],"stateMutability":"view"},{"type":"function","name":"verifyMembership","inputs":[{"name":"msg_","type":"tuple","internalType":"struct ILightClientMsgs.MsgVerifyMembership","components":[{"name":"proof","type":"bytes","internalType":"bytes"},{"name":"proofHeight","type":"tuple","internalType":"struct IICS02ClientMsgs.Height","components":[{"name":"revisionNumber","type":"uint64","internalType":"uint64"},{"name":"revisionHeight","type":"uint64","internalType":"uint64"}]},{"name":"path","type":"bytes[]","internalType":"bytes[]"},{"name":"value","type":"bytes","internalType":"bytes"}]}],"outputs":[{"name":"","type":"uint256","internalType":"uint256"}],"stateMutability":"view"},{"type":"function","name":"verifyNonMembership","inputs":[{"name":"","type":"tuple","internalType":"struct ILightClientMsgs.MsgVerifyNonMembership","components":[{"name":"proof","type":"bytes","internalType":"bytes"},{"name":"proofHeight","type":"tuple","internalType":"struct IICS02ClientMsgs.Height","components":[{"name":"revisionNumber","type":"uint64","internalType":"uint64"},{"name":"revisionHeight","type":"uint64","internalType":"uint64"}]},{"name":"path","type":"bytes[]","internalType":"bytes[]"}]}],"outputs":[{"name":"","type":"uint256","internalType":"uint256"}],"stateMutability":"view"},{"type":"event","name":"RoleAdminChanged","inputs":[{"name":"role","type":"bytes32","indexed":true,"internalType":"bytes32"},{"name":"previousAdminRole","type":"bytes32","indexed":true,"internalType":"bytes32"},{"name":"newAdminRole","type":"bytes32","indexed":true,"internalType":"bytes32"}],"anonymous":false},{"type":"event","name":"RoleGranted","inputs":[{"name":"role","type":"bytes32","indexed":true,"internalType":"bytes32"},{"name":"account","type":"address","indexed":true,"internalType":"address"},{"name":"sender","type":"address","indexed":true,"internalType":"address"}],"anonymous":false},{"type":"event","name":"RoleRevoked","inputs":[{"name":"role","type":"bytes32","indexed":true,"internalType":"bytes32"},{"name":"account","type":"address","indexed":true,"internalType":"address"},{"name":"sender","type":"address","indexed":true,"internalType":"address"}],"anonymous":false},{"type":"error","name":"AccessControlBadConfirmation","inputs":[]},{"type":"error","name":"AccessControlUnauthorizedAccount","inputs":[{"name":"account","type":"address","internalType":"address"},{"name":"neededRole","type":"bytes32","internalType":"bytes32"}]},{"type":"error","name":"BadQuorum","inputs":[{"name":"minRequired","type":"uint8","internalType":"uint8"},{"name":"attestorCount","type":"uint256","internalType":"uint256"}]},{"type":"error","name":"ConflictingTimestamp","inputs":[{"name":"height","type":"uint64","internalType":"uint64"},{"name":"storedTimestamp","type":"uint64","internalType":"uint64"},{"name":"providedTimestamp","type":"uint64","internalType":"uint64"}]},{"type":"error","name":"ConsensusTimestampNotFound","inputs":[{"name":"height","type":"uint64","internalType":"uint64"}]},{"type":"error","name":"DuplicateSigner","inputs":[{"name":"signer","type":"address","internalType":"address"}]},{"type":"error","name":"ECDSAInvalidSignature","inputs":[]},{"type":"error","name":"ECDSAInvalidSignatureLength","inputs":[{"name":"length","type":"uint256","internalType":"uint256"}]},{"type":"error","name":"ECDSAInvalidSignatureS","inputs":[{"name":"s","type":"bytes32","internalType":"bytes32"}]},{"type":"error","name":"EmptyValue","inputs":[]},{"type":"error","name":"FeatureNotSupported","inputs":[]},{"type":"error","name":"FrozenClientState","inputs":[]},{"type":"error","name":"HeightMismatch","inputs":[{"name":"expected","type":"uint64","internalType":"uint64"},{"name":"provided","type":"uint64","internalType":"uint64"}]},{"type":"error","name":"InvalidSignatureLength","inputs":[{"name":"index","type":"uint256","internalType":"uint256"}]},{"type":"error","name":"LengthMismatch","inputs":[]},{"type":"error","name":"NoAttestors","inputs":[]},{"type":"error","name":"NotMember","inputs":[]},{"type":"error","name":"SignatureInvalid","inputs":[{"name":"index","type":"uint256","internalType":"uint256"}]},{"type":"error","name":"ThresholdNotMet","inputs":[{"name":"validSigners","type":"uint256","internalType":"uint256"},{"name":"minRequired","type":"uint8","internalType":"uint8"}]},{"type":"error","name":"UnknownSigner","inputs":[{"name":"signer","type":"address","internalType":"address"}]}],"bytecode":{"object":"0x6080604052346102e057611b2f80380380610019816102fc565b92833981019060a0818303126102e05780516001600160401b0381116102e05781019180601f840112156102e0578251906001600160401b038211610299578160051b93602061006a8187016102fc565b809481520190602082968201019283116102e057602001905b8282106102e45750505060208201519160ff83168093036102e0576100aa60408201610335565b6100c260806100bb60608501610335565b9301610321565b948351156102d157841580156102c7575b6102ad5760405194608086016001600160401b0381118782101761029957604052848652602086019081526060604087019360018060401b03169687855201915f835285519060018060401b038211610299576801000000000000000082116102995760015482600155808310610255575b5060015f5260205f205f5b838110610238575050505060ff90511669ff00000000000000000060025493610100600160481b03905160081b169251151560481b169260018060501b0319161717176002555f5b82518110156101d057600190818060a01b0360208260051b86010151165f52600360205260405f208260ff1982541617905501610198565b5f84815260046020526040902080546001600160401b0319166001600160401b038416179055846001600160a01b03811661021f575061020e61043f565b505b6040516115cd90816104c28239f35b8061022c61023292610349565b506103bf565b50610210565b82516001600160a01b031681830155602090920191600101610150565b60015f527fb10e2d527612073b26eecdfd717e6a320cf44b4afac2b0732d9fcbe2b7fa0cf69081019083015b81811061028e5750610145565b5f8155600101610281565b634e487b7160e01b5f52604160045260245ffd5b50505051906365846b7f60e01b5f5260045260245260445ffd5b50835185116100d3565b6343d0a89360e11b5f5260045ffd5b5f80fd5b602080916102f184610321565b815201910190610083565b6040519190601f01601f191682016001600160401b0381118382101761029957604052565b51906001600160a01b03821682036102e057565b51906001600160401b03821682036102e057565b6001600160a01b0381165f9081525f516020611b0f5f395f51905f52602052604090205460ff166103ba576001600160a01b03165f8181525f516020611b0f5f395f51905f5260205260408120805460ff191660011790553391905f516020611a8f5f395f51905f528180a4600190565b505f90565b6001600160a01b0381165f9081525f516020611aaf5f395f51905f52602052604090205460ff166103ba576001600160a01b03165f8181525f516020611aaf5f395f51905f5260205260408120805460ff191660011790553391905f516020611aef5f395f51905f52905f516020611a8f5f395f51905f529080a4600190565b5f80525f516020611aaf5f395f51905f526020525f516020611acf5f395f51905f525460ff166104bd575f8080525f516020611aaf5f395f51905f526020525f516020611acf5f395f51905f52805460ff1916600117905533905f516020611aef5f395f51905f525f516020611a8f5f395f51905f528280a4600190565b5f9056fe6080806040526004361015610012575f80fd5b5f3560e01c90816301ffc9a714610901575080630bece3561461083e578063248a9ca31461080c5780632f2ff15d146107dd57806336568abe146107815780634d6d9ffb146106bc5780635832611b146106765780635972185a1461063c578063682ed5f0146103105780638a8e4c5d146101a457806391d14854146102c7578063977cd7641461023a578063a217fddf14610220578063d547741f146101ea578063ddba6537146101a45763ef913a4b146100cc575f80fd5b346101a0575f6003193601126101a05760405160406020820191602083526080828201526101578161010060c08201610f09565b60ff600254818116606085015267ffffffffffffffff8160081c16608085015260481c16151560a0830152037fffffffffffffffffffffffffffffffffffffffffffffffffffffffffffffffe08101835282610a6c565b7fffffffffffffffffffffffffffffffffffffffffffffffffffffffffffffffe0601f8351948593602085525180918160208701528686015e5f85828601015201168101030190f35b5f80fd5b346101a0576101b23661099f565b9060ff60025460481c1615610e8e575b7f928b1233000000000000000000000000000000000000000000000000000000005f5260045ffd5b346101a05761021e6101fb366109f0565b90610219610214825f525f602052600160405f20015490565b610fe0565b611384565b005b346101a0575f6003193601126101a05760206040515f8152f35b346101a0575f6003193601126101a05760ff600254166040516102678161026081610f09565b0382610a6c565b60405190604082019260408352815180945260206060840192015f945b80861061029957505082935060208301520390f35b909260208060019273ffffffffffffffffffffffffffffffffffffffff875116815201940195019490610284565b346101a0576102d5366109f0565b905f525f60205273ffffffffffffffffffffffffffffffffffffffff60405f2091165f52602052602060ff60405f2054166040519015158152f35b346101a05760206003193601126101a05760043567ffffffffffffffff81116101a0578060040160a060031983360301126101a05760ff60025460481c166101c2575f80527f4c48d1d2b0f4f7485fc28e3db22341d96a20aa29e6efa8149da9751603abd4e06020527f6e0c24a6e293ff9b755263dbaa15ba3796b0b8d3fe17cfb4ddf8143b268eac475460ff161561062f575b60848201916103b38383610dfc565b90501561060757604401359067ffffffffffffffff82168092036101a057815f52600460205267ffffffffffffffff60405f2054169283156105db576104046103fc8380610dfc565b810190610b39565b60205f818351604051918183925191829101835e8101838152039060025afa156105d0576104385f516020830151906110a0565b51928351840160208101946020818303126101a057602081015167ffffffffffffffff81116101a0570190604090829003126101a0576040519061047b82610a23565b61048760208201610c27565b8252604081015167ffffffffffffffff81116101a05760209101019480601f870112156101a05785516104b981610b21565b966104c76040519889610a6c565b81885260208089019260051b8201019283116101a057602001905b8282106105c057505050602081019485525167ffffffffffffffff16908082036105925750506105156020915f93610dfc565b90809291810103126101a05735905f5b835180518210156105885761053b828592610e4d565b511461054957600101610525565b5050505060015b1561056057602090604051908152f35b7f291fc442000000000000000000000000000000000000000000000000000000005f5260045ffd5b5050915050610550565b7fc7441689000000000000000000000000000000000000000000000000000000005f5260045260245260445ffd5b81518152602091820191016104e2565b6040513d5f823e3d90fd5b827ff7caaa5c000000000000000000000000000000000000000000000000000000005f5260045260245ffd5b7f1208b21b000000000000000000000000000000000000000000000000000000005f5260045ffd5b610637610f58565b6103a4565b346101a0575f6003193601126101a05760206040517fbd893629a699470e4ec82a5715bb4981fdaacc5d0a728bf5f55b801d8f4ef10b8152f35b346101a05760206003193601126101a05760043567ffffffffffffffff81168091036101a0575f526004602052602067ffffffffffffffff60405f205416604051908152f35b346101a05760206003193601126101a05760043567ffffffffffffffff81116101a057600319608091360301126101a05760ff60025460481c166101c2575f80527f4c48d1d2b0f4f7485fc28e3db22341d96a20aa29e6efa8149da9751603abd4e06020527f6e0c24a6e293ff9b755263dbaa15ba3796b0b8d3fe17cfb4ddf8143b268eac475460ff1615610774575b7fda81d7c2000000000000000000000000000000000000000000000000000000005f5260045ffd5b61077c610f58565b61074c565b346101a05761078f366109f0565b3373ffffffffffffffffffffffffffffffffffffffff8216036107b55761021e91611384565b7f6697b232000000000000000000000000000000000000000000000000000000005f5260045ffd5b346101a05761021e6107ee366109f0565b90610807610214825f525f602052600160405f20015490565b6112b2565b346101a05760206003193601126101a05760206108366004355f525f602052600160405f20015490565b604051908152f35b346101a05761084c3661099f565b60ff60025460481c166101c2575f80527f4c48d1d2b0f4f7485fc28e3db22341d96a20aa29e6efa8149da9751603abd4e06020527f6e0c24a6e293ff9b755263dbaa15ba3796b0b8d3fe17cfb4ddf8143b268eac47546108b4929060ff16156108f457610c3c565b60405160038210156108c7576020918152f35b7f4e487b71000000000000000000000000000000000000000000000000000000005f52602160045260245ffd5b6108fc610f58565b610c3c565b346101a05760206003193601126101a057600435907fffffffff0000000000000000000000000000000000000000000000000000000082168092036101a057817f7965db0b0000000000000000000000000000000000000000000000000000000060209314908115610975575b5015158152f35b7f01ffc9a7000000000000000000000000000000000000000000000000000000009150148361096e565b9060206003198301126101a05760043567ffffffffffffffff81116101a057826023820112156101a05780600401359267ffffffffffffffff84116101a057602484830101116101a0576024019190565b60031960409101126101a0576004359060243573ffffffffffffffffffffffffffffffffffffffff811681036101a05790565b6040810190811067ffffffffffffffff821117610a3f57604052565b7f4e487b71000000000000000000000000000000000000000000000000000000005f52604160045260245ffd5b90601f7fffffffffffffffffffffffffffffffffffffffffffffffffffffffffffffffe0910116810190811067ffffffffffffffff821117610a3f57604052565b81601f820112156101a05780359067ffffffffffffffff8211610a3f5760405192610b0060207fffffffffffffffffffffffffffffffffffffffffffffffffffffffffffffffe0601f8601160185610a6c565b828452602083830101116101a057815f926020809301838601378301015290565b67ffffffffffffffff8111610a3f5760051b60200190565b6020818303126101a05780359067ffffffffffffffff82116101a05701906040828203126101a05760405191610b6e83610a23565b803567ffffffffffffffff81116101a05782610b8b918301610aad565b835260208101359067ffffffffffffffff82116101a057019080601f830112156101a0578135610bba81610b21565b92610bc86040519485610a6c565b81845260208085019260051b820101918383116101a05760208201905b838210610bf9575050505050602082015290565b813567ffffffffffffffff81116101a057602091610c1c87848094880101610aad565b815201910190610be5565b519067ffffffffffffffff821682036101a057565b610c4891810190610b39565b60205f818351604051918183925191829101835e8101838152039060025afa156105d057610c7c5f516020830151906110a0565b516040818051810103126101a05760405190610c9782610a23565b67ffffffffffffffff610cbb6040610cb160208501610c27565b9384865201610c27565b9160208401928352165f52600460205267ffffffffffffffff60405f205416610d675767ffffffffffffffff90511667ffffffffffffffff8251165f52600460205260405f20907fffffffffffffffffffffffffffffffffffffffffffffffff0000000000000000825416179055517fffffffffffffffffffffffffffffffffffffffffffffff0000000000000000ff68ffffffffffffffff006002549260081b169116176002555f90565b9067ffffffffffffffff8151165f52600460205267ffffffffffffffff60405f20541667ffffffffffffffff83511603610da2575050600290565b67ffffffffffffffff90511690815f52600460205267ffffffffffffffff8060405f205416915116917fee7363f8000000000000000000000000000000000000000000000000000000005f5260045260245260445260645ffd5b9035907fffffffffffffffffffffffffffffffffffffffffffffffffffffffffffffffe1813603018212156101a0570180359067ffffffffffffffff82116101a0576020019181360383136101a057565b8051821015610e615760209160051b010190565b7f4e487b71000000000000000000000000000000000000000000000000000000005f52603260045260245ffd5b50505f80527f4c48d1d2b0f4f7485fc28e3db22341d96a20aa29e6efa8149da9751603abd4e06020527f6e0c24a6e293ff9b755263dbaa15ba3796b0b8d3fe17cfb4ddf8143b268eac475460ff1615610774577fda81d7c2000000000000000000000000000000000000000000000000000000005f5260045ffd5b602060015491828152019060015f5260205f20905f5b818110610f2c5750505090565b825473ffffffffffffffffffffffffffffffffffffffff16845260209093019260019283019201610f1f565b335f9081527f4c48d1d2b0f4f7485fc28e3db22341d96a20aa29e6efa8149da9751603abd4e0602052604090205460ff1615610f9057565b7fe2517d3f000000000000000000000000000000000000000000000000000000005f52336004527fbd893629a699470e4ec82a5715bb4981fdaacc5d0a728bf5f55b801d8f4ef10b60245260445ffd5b805f525f60205260405f2073ffffffffffffffffffffffffffffffffffffffff33165f5260205260ff60405f205416156110175750565b7fe2517d3f000000000000000000000000000000000000000000000000000000005f523360045260245260445ffd5b7fffffffffffffffffffffffffffffffffffffffffffffffffffffffffffffffff81146110735760010190565b7f4e487b71000000000000000000000000000000000000000000000000000000005f52601160045260245ffd5b9190918251907fffffffffffffffffffffffffffffffffffffffffffffffffffffffffffffffe06110e96110d384610b21565b936110e16040519586610a6c565b808552610b21565b013660208401375f905f945f955b815187101561126b5761110a8783610e4d565b51604181510361123f5761113f61113673ffffffffffffffffffffffffffffffffffffffff928661144c565b90929192611486565b16801561121357805f52600360205260ff60405f205416156111e8575f5b85811061118d57506001916111859161117f61117888611046565b9789610e4d565b52611046565b9601956110f7565b8173ffffffffffffffffffffffffffffffffffffffff6111ad838a610e4d565b5116146111bc5760010161115d565b507fe021c4f2000000000000000000000000000000000000000000000000000000005f5260045260245ffd5b7fd7e8a2c2000000000000000000000000000000000000000000000000000000005f5260045260245ffd5b877f06247d83000000000000000000000000000000000000000000000000000000005f5260045260245ffd5b877f2c33b568000000000000000000000000000000000000000000000000000000005f5260045260245ffd5b9495505050505060ff6002541690818110611284575050565b7f378b0805000000000000000000000000000000000000000000000000000000005f5260045260245260445ffd5b805f525f60205260405f2073ffffffffffffffffffffffffffffffffffffffff83165f5260205260ff60405f205416155f1461137e57805f525f60205260405f2073ffffffffffffffffffffffffffffffffffffffff83165f5260205260405f2060017fffffffffffffffffffffffffffffffffffffffffffffffffffffffffffffff0082541617905573ffffffffffffffffffffffffffffffffffffffff339216907f2f8788117e7eff1d82e926ec794901d17c78024a50270940304540a733656f0d5f80a4600190565b50505f90565b805f525f60205260405f2073ffffffffffffffffffffffffffffffffffffffff83165f5260205260ff60405f2054165f1461137e57805f525f60205260405f2073ffffffffffffffffffffffffffffffffffffffff83165f5260205260405f207fffffffffffffffffffffffffffffffffffffffffffffffffffffffffffffff00815416905573ffffffffffffffffffffffffffffffffffffffff339216907ff6391f5c32d9c69d2a47ea670b442974b53935d1edc7fd64eb21e047a839171b5f80a4600190565b815191906041830361147c576114759250602082015190606060408401519301515f1a90611531565b9192909190565b50505f9160029190565b60048110156108c75780611498575050565b600181036114c8577ff645eedf000000000000000000000000000000000000000000000000000000005f5260045ffd5b600281036114fc57507ffce698f7000000000000000000000000000000000000000000000000000000005f5260045260245ffd5b6003146115065750565b7fd78bce0c000000000000000000000000000000000000000000000000000000005f5260045260245ffd5b91907f7fffffffffffffffffffffffffffffff5d576e7357a4501ddfe92f46681b20a084116115b5579160209360809260ff5f9560405194855216868401526040830152606082015282805260015afa156105d0575f5173ffffffffffffffffffffffffffffffffffffffff8116156115ab57905f905f90565b505f906001905f90565b5050505f916003919056fea164736f6c634300081c000a2f8788117e7eff1d82e926ec794901d17c78024a50270940304540a733656f0d4c48d1d2b0f4f7485fc28e3db22341d96a20aa29e6efa8149da9751603abd4e06e0c24a6e293ff9b755263dbaa15ba3796b0b8d3fe17cfb4ddf8143b268eac47bd893629a699470e4ec82a5715bb4981fdaacc5d0a728bf5f55b801d8f4ef10bad3228b676f7d3cd4284a5443f17f1962b36e491b30a40b2405849e597ba5fb5","linkReferences":{}},"methodIdentifiers":{"DEFAULT_ADMIN_ROLE()":"a217fddf","PROOF_SUBMITTER_ROLE()":"5972185a","getAttestorSet()":"977cd764","getClientState()":"ef913a4b","getConsensusTimestamp(uint64)":"5832611b","getRoleAdmin(bytes32)":"248a9ca3","grantRole(bytes32,address)":"2f2ff15d","hasRole(bytes32,address)":"91d14854","misbehaviour(bytes)":"ddba6537","renounceRole(bytes32,address)":"36568abe","revokeRole(bytes32,address)":"d547741f","supportsInterface(bytes4)":"01ffc9a7","updateClient(bytes)":"0bece356","upgradeClient(bytes)":"8a8e4c5d","verifyMembership((bytes,(uint64,uint64),bytes[],bytes))":"682ed5f0","verifyNonMembership((bytes,(uint64,uint64),bytes[]))":"4d6d9ffb"},"id":22}