{"abi":[{"type":"constructor","inputs":[{"name":"ibcRouter","type":"address","internalType":"address"},{"name":"initialTrustedHeight","type":"uint64","internalType":"uint64"},{"name":"initialTrustedTimestamp","type":"uint64","internalType":"uint64"},{"name":"initialTrustedStorageRoot","type":"bytes32","internalType":"bytes32"},{"name":"initialTrustedValidators","type":"address[]","internalType":"address[]"},{"name":"trustingPeriod","type":"uint64","internalType":"uint64"},{"name":"maxClockDrift","type":"uint64","internalType":"uint64"},{"name":"roleManager","type":"address","internalType":"address"}],"stateMutability":"nonpayable"},{"type":"function","name":"DEFAULT_ADMIN_ROLE","inputs":[],"outputs":[{"name":"","type":"bytes32","internalType":"bytes32"}],"stateMutability":"view"},{"type":"function","name":"PROOF_SUBMITTER_ROLE","inputs":[],"outputs":[{"name":"","type":"bytes32","internalType":"bytes32"}],"stateMutability":"view"},{"type":"function","name":"getClientState","inputs":[],"outputs":[{"name":"","type":"bytes","internalType":"bytes"}],"stateMutability":"view"},{"type":"function","name":"getConsensusState","inputs":[{"name":"revisionHeight","type":"uint64","internalType":"uint64"}],"outputs":[{"name":"","type":"bytes","internalType":"bytes"}],"stateMutability":"view"},{"type":"function","name":"getRoleAdmin","inputs":[{"name":"role","type":"bytes32","internalType":"bytes32"}],"outputs":[{"name":"","type":"bytes32","internalType":"bytes32"}],"stateMutability":"view"},{"type":"function","name":"grantRole","inputs":[{"name":"role","type":"bytes32","internalType":"bytes32"},{"name":"account","type":"address","internalType":"address"}],"outputs":[],"stateMutability":"nonpayable"},{"type":"function","name":"hasRole","inputs":[{"name":"role","type":"bytes32","internalType":"bytes32"},{"name":"account","type":"address","internalType":"address"}],"outputs":[{"name":"","type":"bool","internalType":"bool"}],"stateMutability":"view"},{"type":"function","name":"misbehaviour","inputs":[{"name":"","type":"bytes","internalType":"bytes"}],"outputs":[],"stateMutability":"view"},{"type":"function","name":"renounceRole","inputs":[{"name":"role","type":"bytes32","internalType":"bytes32"},{"name":"callerConfirmation","type":"address","internalType":"address"}],"outputs":[],"stateMutability":"nonpayable"},{"type":"function","name":"revokeRole","inputs":[{"name":"role","type":"bytes32","internalType":"bytes32"},{"name":"account","type":"address","internalType":"address"}],"outputs":[],"stateMutability":"nonpayable"},{"type":"function","name":"supportsInterface","inputs":[{"name":"interfaceId","type":"bytes4","internalType":"bytes4"}],"outputs":[{"name":"","type":"bool","internalType":"bool"}],"stateMutability":"view"},{"type":"function","name":"updateClient","inputs":[{"name":"updateMsg","type":"bytes","internalType":"bytes"}],"outputs":[{"name":"","type":"uint8","internalType":"enum ILightClientMsgs.UpdateResult"}],"stateMutability":"nonpayable"},{"type":"function","name":"verifyMembership","inputs":[{"name":"msg_","type":"tuple","internalType":"struct ILightClientMsgs.MsgVerifyMembership","components":[{"name":"proof","type":"bytes","internalType":"bytes"},{"name":"proofHeight","type":"tuple","internalType":"struct IICS02ClientMsgs.Height","components":[{"name":"revisionNumber","type":"uint64","internalType":"uint64"},{"name":"revisionHeight","type":"uint64","internalType":"uint64"}]},{"name":"path","type":"bytes[]","internalType":"bytes[]"},{"name":"value","type":"bytes","internalType":"bytes"}]}],"outputs":[{"name":"","type":"uint256","internalType":"uint256"}],"stateMutability":"view"},{"type":"function","name":"verifyNonMembership","inputs":[{"name":"msg_","type":"tuple","internalType":"struct ILightClientMsgs.MsgVerifyNonMembership","components":[{"name":"proof","type":"bytes","internalType":"bytes"},{"name":"proofHeight","type":"tuple","internalType":"struct IICS02ClientMsgs.Height","components":[{"name":"revisionNumber","type":"uint64","internalType":"uint64"},{"name":"revisionHeight","type":"uint64","internalType":"uint64"}]},{"name":"path","type":"bytes[]","internalType":"bytes[]"}]}],"outputs":[{"name":"","type":"uint256","internalType":"uint256"}],"stateMutability":"view"},{"type":"event","name":"RoleAdminChanged","inputs":[{"name":"role","type":"bytes32","indexed":true,"internalType":"bytes32"},{"name":"previousAdminRole","type":"bytes32","indexed":true,"internalType":"bytes32"},{"name":"newAdminRole","type":"bytes32","indexed":true,"internalType":"bytes32"}],"anonymous":false},{"type":"event","name":"RoleGranted","inputs":[{"name":"role","type":"bytes32","indexed":true,"internalType":"bytes32"},{"name":"account","type":"address","indexed":true,"internalType":"address"},{"name":"sender","type":"address","indexed":true,"internalType":"address"}],"anonymous":false},{"type":"event","name":"RoleRevoked","inputs":[{"name":"role","type":"bytes32","indexed":true,"internalType":"bytes32"},{"name":"account","type":"address","indexed":true,"internalType":"address"},{"name":"sender","type":"address","indexed":true,"internalType":"address"}],"anonymous":false},{"type":"error","name":"AccessControlBadConfirmation","inputs":[]},{"type":"error","name":"AccessControlUnauthorizedAccount","inputs":[{"name":"account","type":"address","internalType":"address"},{"name":"neededRole","type":"bytes32","internalType":"bytes32"}]},{"type":"error","name":"ConflictingConsensusState","inputs":[{"name":"revisionHeight","type":"uint64","internalType":"uint64"}]},{"type":"error","name":"ConsensusStateExpired","inputs":[{"name":"trustedTimestamp","type":"uint64","internalType":"uint64"},{"name":"currentTimestamp","type":"uint256","internalType":"uint256"},{"name":"trustingPeriod","type":"uint64","internalType":"uint64"}]},{"type":"error","name":"ConsensusStateNotFound","inputs":[{"name":"revisionHeight","type":"uint64","internalType":"uint64"}]},{"type":"error","name":"DuplicateCommitSealSigner","inputs":[{"name":"signer","type":"address","internalType":"address"}]},{"type":"error","name":"DuplicateValidator","inputs":[{"name":"validator","type":"address","internalType":"address"}]},{"type":"error","name":"EmptyValidatorSet","inputs":[]},{"type":"error","name":"HeaderFromFuture","inputs":[{"name":"currentTimestamp","type":"uint256","internalType":"uint256"},{"name":"headerTimestamp","type":"uint256","internalType":"uint256"},{"name":"maxClockDrift","type":"uint256","internalType":"uint256"}]},{"type":"error","name":"InsufficientTrustedValidatorOverlap","inputs":[{"name":"actual","type":"uint256","internalType":"uint256"},{"name":"required","type":"uint256","internalType":"uint256"}]},{"type":"error","name":"InsufficientValidatorQuorum","inputs":[{"name":"actual","type":"uint256","internalType":"uint256"},{"name":"required","type":"uint256","internalType":"uint256"}]},{"type":"error","name":"InvalidCommitSeal","inputs":[]},{"type":"error","name":"InvalidCommitmentValue","inputs":[{"name":"expectedValue","type":"bytes32","internalType":"bytes32"},{"name":"actualValue","type":"bytes32","internalType":"bytes32"}]},{"type":"error","name":"InvalidDifficulty","inputs":[{"name":"actualDifficulty","type":"uint256","internalType":"uint256"}]},{"type":"error","name":"InvalidECDSASignatureLength","inputs":[{"name":"length","type":"uint256","internalType":"uint256"}]},{"type":"error","name":"InvalidExtraDataFormat","inputs":[{"name":"itemsLength","type":"uint256","internalType":"uint256"}]},{"type":"error","name":"InvalidHeaderFormat","inputs":[{"name":"itemsLength","type":"uint256","internalType":"uint256"}]},{"type":"error","name":"InvalidHeaderHeight","inputs":[]},{"type":"error","name":"InvalidMixHash","inputs":[{"name":"actualMixHash","type":"bytes32","internalType":"bytes32"}]},{"type":"error","name":"InvalidNonce","inputs":[{"name":"actualNonce","type":"bytes","internalType":"bytes"}]},{"type":"error","name":"InvalidOmmersHash","inputs":[{"name":"actualOmmersHash","type":"bytes32","internalType":"bytes32"}]},{"type":"error","name":"InvalidPathLength","inputs":[{"name":"expectedLength","type":"uint256","internalType":"uint256"},{"name":"actualLength","type":"uint256","internalType":"uint256"}]},{"type":"error","name":"InvalidRevisionNumber","inputs":[{"name":"providedRevisionNumber","type":"uint64","internalType":"uint64"}]},{"type":"error","name":"InvalidValidatorAddress","inputs":[{"name":"validator","type":"address","internalType":"address"}]},{"type":"error","name":"InvalidValidatorAddressLength","inputs":[{"name":"length","type":"uint256","internalType":"uint256"}]},{"type":"error","name":"InvalidValueLength","inputs":[{"name":"expectedLength","type":"uint256","internalType":"uint256"},{"name":"actualLength","type":"uint256","internalType":"uint256"}]},{"type":"error","name":"UnsupportedMisbehaviour","inputs":[]},{"type":"error","name":"ValueExists","inputs":[{"name":"actualValue","type":"bytes32","internalType":"bytes32"}]}],"bytecode":{"object":"0x6080604052346103c05761393e80380380610019816103c4565b928339810190610100818303126103c057610033816103e9565b61003f602083016103fd565b9061004c604084016103fd565b60608401516080850151909291906001600160401b0381116103c05785019286601f850112156103c0578351966001600160401b038811610376578760051b9460206100998188016103c4565b809a81520190602082978201019283116103c057602001905b8282106103a8575050506100c860a087016103fd565b956100e160e06100da60c084016103fd565b92016103e9565b956001600160401b03169081156103995788511561038a575f5b89518110156101b1576001600160a01b03610116828c610411565b51161561018a575f5b81811061012f57506001016100fb565b6001600160a01b03610141828d610411565b51166001600160a01b03610155848e610411565b5116146101645760010161011f565b6001600160a01b03610176838d610411565b511663107f863360e21b5f5260045260245ffd5b6001600160a01b039061019d908b610411565b51166359bff38760e01b5f5260045260245ffd5b5060408051979896978a979181016001600160401b03811182821017610376576040525f81526020810190848252604051926080840198848a1060018060401b038b1117610376576040998a526001600160a01b031680855260208086018490526001600160401b03928316868c01819052878416606090970196909652600180546001600160a01b031916909217825592516002805495516001600160801b031996871692851692909217918c1b6fffffffffffffffff000000000000000090811692909217815560038054909616909617968b1b16959095179092555f948552600490529590922080546001600160401b03191694861694909417845583019190915592519392019190831161037657680100000000000000008311610376578154838355808410610350575b50905f5260205f205f5b83811061033357846001600160a01b03811661031a575061030961052f565b505b6040516132ec90816105b28239f35b8061032761032d92610439565b506104af565b5061030b565b82516001600160a01b0316818301556020909201916001016102ea565b825f528360205f2091820191015b81811061036b57506102e0565b5f815560010161035e565b634e487b7160e01b5f52604160045260245ffd5b63339e1ffb60e01b5f5260045ffd5b6359d119e360e01b5f5260045ffd5b602080916103b5846103e9565b8152019101906100b2565b5f80fd5b6040519190601f01601f191682016001600160401b0381118382101761037657604052565b51906001600160a01b03821682036103c057565b51906001600160401b03821682036103c057565b80518210156104255760209160051b010190565b634e487b7160e01b5f52603260045260245ffd5b6001600160a01b0381165f9081525f51602061391e5f395f51905f52602052604090205460ff166104aa576001600160a01b03165f8181525f51602061391e5f395f51905f5260205260408120805460ff191660011790553391905f51602061389e5f395f51905f528180a4600190565b505f90565b6001600160a01b0381165f9081525f5160206138be5f395f51905f52602052604090205460ff166104aa576001600160a01b03165f8181525f5160206138be5f395f51905f5260205260408120805460ff191660011790553391905f5160206138fe5f395f51905f52905f51602061389e5f395f51905f529080a4600190565b5f80525f5160206138be5f395f51905f526020525f5160206138de5f395f51905f525460ff166105ad575f8080525f5160206138be5f395f51905f526020525f5160206138de5f395f51905f52805460ff1916600117905533905f5160206138fe5f395f51905f525f51602061389e5f395f51905f528280a4600190565b5f9056fe60806040526004361015610011575f80fd5b5f3560e01c806301ffc9a7146100f45780630bece356146100ef578063248a9ca3146100ea5780632f2ff15d146100e557806336568abe146100e05780634d6d9ffb146100db5780635972185a146100d6578063682ed5f0146100d157806391d14854146100cc578063a217fddf146100c7578063d547741f146100c2578063ddba6537146100bd578063edce8bdc146100b85763ef913a4b146100b3575f80fd5b610a16565b61095e565b61088b565b61085c565b610842565b6107f4565b6105e6565b6105ac565b6103ac565b610350565b61031a565b6102b5565b610217565b34610195576020600319360112610195576004357fffffffff00000000000000000000000000000000000000000000000000000000811680910361019557807f7965db0b000000000000000000000000000000000000000000000000000000006020921490811561016b575b506040519015158152f35b7f01ffc9a7000000000000000000000000000000000000000000000000000000009150145f610160565b5f80fd5b9060206003198301126101955760043567ffffffffffffffff811161019557826023820112156101955780600401359267ffffffffffffffff84116101955760248483010111610195576024019190565b7f4e487b71000000000000000000000000000000000000000000000000000000005f52602160045260245ffd5b346101955761028161022836610199565b5f80527f4c48d1d2b0f4f7485fc28e3db22341d96a20aa29e6efa8149da9751603abd4e06020527f6e0c24a6e293ff9b755263dbaa15ba3796b0b8d3fe17cfb4ddf8143b268eac475490919060ff161561029957610d9d565b6040516003821015610294576020918152f35b6101ea565b6102a1611287565b610d9d565b90816020910312610195573590565b346101955760206003193601126101955760206102df6004355f525f602052600160405f20015490565b604051908152f35b6003196040910112610195576004359060243573ffffffffffffffffffffffffffffffffffffffff811681036101955790565b346101955761034e61032b366102e7565b90610349610344825f525f602052600160405f20015490565b61130f565b612199565b005b346101955761035e366102e7565b3373ffffffffffffffffffffffffffffffffffffffff8216036103845761034e91612270565b7f6697b232000000000000000000000000000000000000000000000000000000005f5260045ffd5b346101955760206003193601126101955760043567ffffffffffffffff8111610195578060040160806003198336030112610195575f80527f4c48d1d2b0f4f7485fc28e3db22341d96a20aa29e6efa8149da9751603abd4e060205260ff7f6e0c24a6e293ff9b755263dbaa15ba3796b0b8d3fe17cfb4ddf8143b268eac4754161561059f575b61044761044260248401611192565b61137c565b60648201916001610458848461119c565b90500361056157906104a96104966104a261049d61049661049061048961048460446104e09a01611192565b611b30565b988761119c565b9061126e565b3691610b4d565b612345565b928061121d565b906001840154906040516104d7816104c960208201948560209181520190565b03601f198101835282610afd565b519020916123d3565b805161051f5761051b61050b6104fe845467ffffffffffffffff1690565b67ffffffffffffffff1690565b6040519081529081906020820190565b0390f35b61053361052e61055e92612518565b612545565b7fd039601e000000000000000000000000000000000000000000000000000000005f52600452602490565b5ffd5b61055e61056e848461119c565b7f88b3170e000000000000000000000000000000000000000000000000000000005f52600160045260245250604490565b6105a7611287565b610433565b34610195575f6003193601126101955760206040517fbd893629a699470e4ec82a5715bb4981fdaacc5d0a728bf5f55b801d8f4ef10b8152f35b346101955760206003193601126101955760043567ffffffffffffffff8111610195578060040160a06003198336030112610195575f80527f4c48d1d2b0f4f7485fc28e3db22341d96a20aa29e6efa8149da9751603abd4e060205260ff7f6e0c24a6e293ff9b755263dbaa15ba3796b0b8d3fe17cfb4ddf8143b268eac475416156107e7575b61067c61044260248401611192565b6064820191600161068d848461119c565b90500361056157608481019060206106a5838561121d565b9050036107a957906106f46104966106ed6106e56106de61049d6104966104906106d761048460446107149c01611192565b9b8b61119c565b948761121d565b8101906102a6565b948061121d565b906001850154906040516104d7816104c960208201948560209181520190565b8051156107755761052e61072791612518565b908082036107475761051b61050b6104fe855467ffffffffffffffff1690565b7f56ed1b63000000000000000000000000000000000000000000000000000000005f5260045260245260445ffd5b61055e827f56ed1b63000000000000000000000000000000000000000000000000000000005f52906044916004525f602452565b61055e6107b6838561121d565b7f24fadac8000000000000000000000000000000000000000000000000000000005f52602060045260245250604490565b6107ef611287565b61066d565b3461019557602060ff610836610809366102e7565b905f525f845260405f209073ffffffffffffffffffffffffffffffffffffffff165f5260205260405f2090565b54166040519015158152f35b34610195575f6003193601126101955760206040515f8152f35b346101955761034e61086d366102e7565b90610886610344825f525f602052600160405f20015490565b612270565b346101955761089936610199565b50505f80527f4c48d1d2b0f4f7485fc28e3db22341d96a20aa29e6efa8149da9751603abd4e06020527f6e0c24a6e293ff9b755263dbaa15ba3796b0b8d3fe17cfb4ddf8143b268eac475460ff1615610915575b7f2c1ed462000000000000000000000000000000000000000000000000000000005f5260045ffd5b61091d611287565b6108ed565b67ffffffffffffffff81160361019557565b601f19601f602060409481855280519182918282880152018686015e5f8582860101520116010190565b346101955760206003193601126101955761097e60043561048481610922565b67ffffffffffffffff8154166002600183015492019060405192608084019160208501526040840152606080840152815480915260a08301915f5260205f20905f5b8181106109ea5761051b856109de818703601f198101835282610afd565b60405191829182610934565b825473ffffffffffffffffffffffffffffffffffffffff168452602090930192600192830192016109c0565b34610195575f6003193601126101955761051b60405173ffffffffffffffffffffffffffffffffffffffff60015416602082015267ffffffffffffffff600254818116604084015260401c16606082015267ffffffffffffffff600354818116608084015260401c1660a082015260a081526109de60c082610afd565b7f4e487b71000000000000000000000000000000000000000000000000000000005f52604160045260245ffd5b6060810190811067ffffffffffffffff821117610adc57604052565b610a93565b6040810190811067ffffffffffffffff821117610adc57604052565b90601f601f19910116810190811067ffffffffffffffff821117610adc57604052565b60405190610b2f604083610afd565b565b67ffffffffffffffff8111610adc57601f01601f191660200190565b929192610b5982610b31565b91610b676040519384610afd565b829481845281830111610195578281602093845f960137010152565b9080601f8301121561019557816020610b9e93359101610b4d565b90565b6020818303126101955780359067ffffffffffffffff8211610195570180820391608083126101955760405192610bd784610ac0565b823567ffffffffffffffff811161019557604091610bfa84601f19938701610b83565b8652011261019557604051610c0e81610ae1565b6020830135610c1c81610922565b81526040830135610c2c81610922565b60208201526020840152606082013567ffffffffffffffff811161019557610c549201610b83565b604082015290565b7f4e487b71000000000000000000000000000000000000000000000000000000005f52601160045260245ffd5b9060018201809211610c9757565b610c5c565b60c001908160c011610c9757565b60f701908160f711610c9757565b6080019081608011610c9757565b60b701908160b711610c9757565b91908201809211610c9757565b908160011b9180830460021490151715610c9757565b81519167ffffffffffffffff8311610adc57680100000000000000008311610adc578154838355808410610d77575b506020610d389101915f5260205f2090565b5f5b838110610d475750505050565b6001906020610d6a855173ffffffffffffffffffffffffffffffffffffffff1690565b9401938184015501610d3a565b825f528360205f2091820191015b818110610d925750610d26565b5f8155600101610d85565b610da991810190610ba1565b9060208201610dc461044282515167ffffffffffffffff1690565b610dce8351611614565b92606084019367ffffffffffffffff610def865167ffffffffffffffff1690565b161561116a5760035491604083901c67ffffffffffffffff1693610e1d67ffffffffffffffff861642610cd4565b9460a0840195610e35875167ffffffffffffffff1690565b9067ffffffffffffffff82161161112b5750505160200151610e7290610e649067ffffffffffffffff16611b30565b9367ffffffffffffffff1690565b67ffffffffffffffff81168015159081611102575b506110ad575090610ef591610eb66002610eae610ea385611bc2565b60e086015190611cf8565b950185611efe565b610ec660c0830194855190611fa0565b60406080610ee960015473ffffffffffffffffffffffffffffffffffffffff1690565b93015191015191612055565b610f22610f0a865167ffffffffffffffff1690565b67ffffffffffffffff165f52600460205260405f2090565b610f376104fe825467ffffffffffffffff1690565b61103b5750916002610fb5928694610fa8610f73610f64610f0a610fc39a9b5167ffffffffffffffff1690565b955167ffffffffffffffff1690565b859067ffffffffffffffff167fffffffffffffffffffffffffffffffffffffffffffffffff0000000000000000825416179055565b6001840155519101610cf7565b5167ffffffffffffffff1690565b600254610fdc9060401c67ffffffffffffffff166104fe565b67ffffffffffffffff821611610ff157505f90565b611037907fffffffffffffffffffffffffffffffff0000000000000000ffffffffffffffff6fffffffffffffffff00000000000000006002549260401b16911617600255565b5f90565b91611051611059945167ffffffffffffffff1690565b9051926120cb565b6110a75761055e611072835167ffffffffffffffff1690565b7fc1aea5f7000000000000000000000000000000000000000000000000000000005f5267ffffffffffffffff16600452602490565b60029150565b61055e906110c3855467ffffffffffffffff1690565b7feae35725000000000000000000000000000000000000000000000000000000005f5267ffffffffffffffff9081166004524260245216604452606490565b9050611123429161111e6104fe885467ffffffffffffffff1690565b610cd4565b11155f610e87565b7f9b772277000000000000000000000000000000000000000000000000000000005f524260045267ffffffffffffffff9081166024521660445260645ffd5b7f59d119e3000000000000000000000000000000000000000000000000000000005f5260045ffd5b35610b9e81610922565b9035907fffffffffffffffffffffffffffffffffffffffffffffffffffffffffffffffe181360301821215610195570180359067ffffffffffffffff821161019557602001918160051b3603831361019557565b7f4e487b71000000000000000000000000000000000000000000000000000000005f52603260045260245ffd5b9035907fffffffffffffffffffffffffffffffffffffffffffffffffffffffffffffffe181360301821215610195570180359067ffffffffffffffff82116101955760200191813603831361019557565b9015611282578061127e9161121d565b9091565b6111f0565b335f9081527f4c48d1d2b0f4f7485fc28e3db22341d96a20aa29e6efa8149da9751603abd4e0602052604090205460ff16156112bf57565b7fe2517d3f000000000000000000000000000000000000000000000000000000005f52336004527fbd893629a699470e4ec82a5715bb4981fdaacc5d0a728bf5f55b801d8f4ef10b60245260445ffd5b805f525f60205260ff6113433360405f209073ffffffffffffffffffffffffffffffffffffffff165f5260205260405f2090565b54161561134d5750565b7fe2517d3f000000000000000000000000000000000000000000000000000000005f523360045260245260445ffd5b67ffffffffffffffff168061138e5750565b7f3ce598a9000000000000000000000000000000000000000000000000000000005f5260045260245ffd5b60405190610100820182811067ffffffffffffffff821117610adc57604052606060e0838281528260208201528260408201525f838201525f60808201525f60a08201528260c08201520152565b8051600110156112825760400190565b805160071015611282576101000190565b8051600d1015611282576101c00190565b8051600e1015611282576101e00190565b805160081015611282576101200190565b8051600310156112825760800190565b8051600b1015611282576101800190565b8051600c1015611282576101a00190565b8051600410156112825760a00190565b8051156112825760200190565b8051600210156112825760600190565b805160101015611282576102200190565b80518210156112825760209160051b010190565b67ffffffffffffffff8111610adc5760051b60200190565b90611501826114df565b61150e6040519182610afd565b828152601f1961151e82946114df565b0190602036910137565b90602082519201517fffffffffffffffffffffffffffffffffffffffff00000000000000000000000081169260148110611560575050565b7fffffffffffffffffffffffffffffffffffffffff000000000000000000000000929350829060140360031b1b161690565b60405160c091906115a38382610afd565b6005815291601f1901825f5b8281106115bb57505050565b8060606020809385010152016115af565b906115d6826114df565b6115e36040519182610afd565b828152601f196115f382946114df565b01905f5b82811061160357505050565b8060606020809385010152016115f7565b61163061162b6116226113b9565b92808452612518565b612587565b602082019080825251600f8110611b0557507f1dcc4de8dec75d7aab85b567b6ccd41ad312451b948a7413f0a142fd40d493476116766116708351611407565b51612652565b03611aca57600161169061168a8351611417565b51612545565b03611a8f577f63746963616c2062797a616e74696e65206661756c7420746f6c6572616e63656116c36116708351611428565b03611a54576116db6116d58251611439565b5161266e565b80516008811490811591611a24575b506119ea575061162b61175d6116d5836117216117106104fe61168a611762985161144a565b67ffffffffffffffff166060880152565b61172e611670825161145b565b60808701526117576117466104fe61168a845161146b565b67ffffffffffffffff1660a0880152565b5161147c565b612518565b90604081019180835251600581036119bf57506117886117828351611407565b51612587565b908151156119975761179a82516114f7565b9360c082019485525f5b8351811015611933576117ba6116d582866114cb565b80516014810361190857506117d16117d791611528565b60601c90565b73ffffffffffffffffffffffffffffffffffffffff811680156118c6575f5b8381106118325750509061182c600192611811838a516114cb565b9073ffffffffffffffffffffffffffffffffffffffff169052565b016117a4565b8161187761185e611844848d516114cb565b5173ffffffffffffffffffffffffffffffffffffffff1690565b73ffffffffffffffffffffffffffffffffffffffff1690565b14611884576001016117f6565b7f41fe18cc000000000000000000000000000000000000000000000000000000005f5273ffffffffffffffffffffffffffffffffffffffff831660045260245ffd5b7f59bff387000000000000000000000000000000000000000000000000000000005f5273ffffffffffffffffffffffffffffffffffffffff821660045260245ffd5b7f83e46ad2000000000000000000000000000000000000000000000000000000005f5260045260245ffd5b509261178291945061194692505161148d565b61195081516115cc565b9260e081019384525f5b8251811015611991578061198a816119776116d5600195886114cb565b88519061198483836114cb565b526114cb565b500161195a565b50925050565b7f339e1ffb000000000000000000000000000000000000000000000000000000005f5260045ffd5b7f30c6792a000000000000000000000000000000000000000000000000000000005f5260045260245ffd5b611a20906040519182917fd5edd2a500000000000000000000000000000000000000000000000000000000835260048301610934565b0390fd5b7f011b4d03dd8c01f1049143cf9c4c817e4b167f1d1b83e5c6f0f10d89ba1e7bce9150602083012014155f6116ea565b611a6461167061055e9251611428565b7fa19e609c000000000000000000000000000000000000000000000000000000005f52600452602490565b611a9f61168a61055e9251611417565b7ff71b722f000000000000000000000000000000000000000000000000000000005f52600452602490565b611ada61167061055e9251611407565b7fb8120dca000000000000000000000000000000000000000000000000000000005f52600452602490565b7fbc277732000000000000000000000000000000000000000000000000000000005f5260045260245ffd5b67ffffffffffffffff1690815f52600460205260405f209167ffffffffffffffff83541615611b5c5750565b7ff761631b000000000000000000000000000000000000000000000000000000005f5260045260245ffd5b60405190611b96604083610afd565b600182527fc0000000000000000000000000000000000000000000000000000000000000006020830152565b6020611c7d611bcf611592565b611c48611be660408601611bec611be6825161149d565b51612ff1565b611bf58561149d565b52611bff8461149d565b50611c0d611be68251611407565b611c1685611407565b52611c2084611407565b50611c2e611be682516114aa565b611c37856114aa565b52611c41846114aa565b505161145b565b611c518261145b565b52611c5b8161145b565b50611c64611b87565b611c6d8261148d565b52611c778161148d565b50612744565b910190611c8b8251516115cc565b905f5b83518051821015611ce1579080600192600c82145f14611ccf575050611cb3836127f5565b611cbd82866114cb565b52611cc881856114cb565b5001611c8e565b611cdc91611be6916114cb565b611cb3565b505050611cee9150612744565b6020815191012090565b919091611d0583516114f7565b925f5b8151811015611eeb57611d1b81836114cb565b51805160418103611ec0575080601b60ff611d6a611d64611d3e611d77966127d4565b517fff000000000000000000000000000000000000000000000000000000000000001690565b60f81c90565b1610611e6d575b8461309f565b50611d818161286f565b15801590611e4f575b611e275773ffffffffffffffffffffffffffffffffffffffff81165f5b838110611dc757505090611dc160019261181183896114cb565b01611d08565b81611dd861185e611844848c6114cb565b14611de557600101611da7565b7f33af0d5f000000000000000000000000000000000000000000000000000000005f5273ffffffffffffffffffffffffffffffffffffffff831660045260245ffd5b7f09cb44e6000000000000000000000000000000000000000000000000000000005f5260045ffd5b5073ffffffffffffffffffffffffffffffffffffffff811615611d8a565b611eaf611e87611e82611d64611d3e856127d4565b61285d565b60f81b7fff000000000000000000000000000000000000000000000000000000000000001690565b5f1a611eba826127d4565b53611d71565b7ff2db9ce1000000000000000000000000000000000000000000000000000000005f5260045260245ffd5b505050565b5f198114610c975760010190565b905f915f5b8151811015611f5757611f3673ffffffffffffffffffffffffffffffffffffffff611f2e83856114cb565b511684612879565b611f43575b600101611f03565b92611f4f600191611ef0565b939050611f3b565b50506003611f66915404610c89565b90818110611f72575050565b7fe2dcb1b9000000000000000000000000000000000000000000000000000000005f5260045260245260445ffd5b905f915f5b8151811015611ff957611fd873ffffffffffffffffffffffffffffffffffffffff611fd083856114cb565b5116846128d0565b611fe5575b600101611fa5565b92611ff1600191611ef0565b939050611fdd565b5050518060011b9080820460021490151715610c9757600361201b9104610c89565b90818110612027575050565b7f7818f4e4000000000000000000000000000000000000000000000000000000005f5260045260245260445ffd5b61209f9261162b9261175d926040517fffffffffffffffffffffffffffffffffffffffff000000000000000000000000602082019260601b168252601481526104d7603482610afd565b805160021015611282576060610b9e910151612652565b8054821015611282575f5260205f2001905f90565b919067ffffffffffffffff806120e9855467ffffffffffffffff1690565b92169116149081159161218a575b5061218457600201908154815103612184575f5b815181101561217c5761214161212182856120b6565b905473ffffffffffffffffffffffffffffffffffffffff9160031b1c1690565b73ffffffffffffffffffffffffffffffffffffffff61216661185e61184485876114cb565b9116036121755760010161210b565b5050505f90565b505050600190565b50505f90565b9050600182015414155f6120f7565b805f525f60205260ff6121cd8360405f209073ffffffffffffffffffffffffffffffffffffffff165f5260205260405f2090565b541661218457805f525f6020526122058260405f209073ffffffffffffffffffffffffffffffffffffffff165f5260205260405f2090565b60017fffffffffffffffffffffffffffffffffffffffffffffffffffffffffffffff0082541617905573ffffffffffffffffffffffffffffffffffffffff339216907f2f8788117e7eff1d82e926ec794901d17c78024a50270940304540a733656f0d5f80a4600190565b805f525f60205260ff6122a48360405f209073ffffffffffffffffffffffffffffffffffffffff165f5260205260405f2090565b54161561218457805f525f6020526122dd8260405f209073ffffffffffffffffffffffffffffffffffffffff165f5260205260405f2090565b7fffffffffffffffffffffffffffffffffffffffffffffffffffffffffffffff00815416905573ffffffffffffffffffffffffffffffffffffffff339216907ff6391f5c32d9c69d2a47ea670b442974b53935d1edc7fd64eb21e047a839171b5f80a4600190565b60208151910120604051602081019182527f1260944489272988d9df285149b5aa1b0f48f2136d6f416159f840a3e074760060408201526040815261238b606082610afd565b51902090565b604051906123a0602083610afd565b5f808352366020840137565b906123b682610b31565b6123c36040519182610afd565b828152601f1961151e8294610b31565b61162b612415919493946123e76020610b31565b956123f56040519788610afd565b602087526124036020610b31565b601f1960208901910136823752612518565b906124208451610ce1565b9184511515806124f8575b6124349061253e565b6124466124415f85612997565b6123ac565b925f19015f5b818110612460575050610b9e939450612ac7565b806124e2600f6124a56124dc611d64611d3e8d61247f60029960011c90565b908d6124d68a6124ce8a6124a561249c611d64611d3e8a8a6127e4565b60041c600f1690565b1660f81b7fff000000000000000000000000000000000000000000000000000000000000001690565b5f1a926127e4565b536127e4565b60ff1690565b5f1a6124f160018301886127e4565b530161244c565b50600161242b565b6040519061250d82610ae1565b5f6020838281520152565b612520612500565b5060208151916040519261253384610ae1565b835201602082015290565b1561019557565b8051801515908161257b575b50156101955761256090612d9d565b9051906020811061256f575090565b6020036101000a900490565b6021915011155f612551565b61259081612dc9565b156101955761259e81612de9565b6125a7816114df565b916125b56040519384610afd565b818352601f196125c4836114df565b015f5b81811061263b57505060206125e79101516125e181612e4a565b90610cd4565b5f905b8282106125f75750505090565b61263381612606600193612eb5565b9061260f610b20565b82815281602082015261262286896114cb565b5261262d85886114cb565b50610cd4565b9101906125ea565b602090612646612500565b828288010152016125c7565b6021815103610195576020015160018101809111610c97575190565b80511561019557612681610b9e91612d9d565b61268d819392936123ac565b928360200190612f7e565b805191908290602001825e015f815290565b610b2f906126cc6126c694936040519586936020850190612698565b90612698565b03601f198101845283610afd565b6001907fff00000000000000000000000000000000000000000000000000000000000000610b9e94931681520190612698565b916001610b9e94937fff000000000000000000000000000000000000000000000000000000000000006126c6941681520190612698565b5f9060605b81518310156127715761276960019161276285856114cb565b51906126aa565b920191612749565b9150508051603881106127b05750610b9e61278c825161301d565b916104c96127a0611e876124dc8651610caa565b916040519485936020850161270d565b6127c2611e876124dc610b9e93610c9c565b6104c9604051938492602084016126da565b8051604010156112825760600190565b908151811015611282570160200190565b600181511480612842575b610b9e578051603881106128305750610b9e61281c825161301d565b916104c96127a0611e876124dc8651610cc6565b6127c2611e876124dc610b9e93610cb8565b50608060ff612856611d64611d3e8561149d565b1610612800565b60ff601b9116019060ff8211610c9757565b6004111561029457565b905f5b82548110156121755773ffffffffffffffffffffffffffffffffffffffff6128a482856120b6565b90549060031b1c1673ffffffffffffffffffffffffffffffffffffffff83161461217c5760010161287c565b905f5b82518110156121755773ffffffffffffffffffffffffffffffffffffffff6128fb82856114cb565b511673ffffffffffffffffffffffffffffffffffffffff83161461217c576001016128d3565b905f198201918211610c9757565b907fffffffffffffffffffffffffffffffffffffffffffffffffffffffffffffff408201918211610c9757565b907fffffffffffffffffffffffffffffffffffffffffffffffffffffffffffffff808201918211610c9757565b6020039060208211610c9757565b91908203918211610c9757565b91906129b08351610ce1565b908351151580612abd575b6129c49061253e565b6129d16124418284612997565b938192600180841614612a5b575b5f19869101935b8481106129f4575050505050565b83612a526001612a48600f6124a56124dc611d64611d3e8b60029b612a41612a34886124a58f611d64611d3e612a2d61249c9360011c90565b80996127e4565b9b8d03809c5f1a926127e4565b538c6127e4565b5f1a9201896127e4565b530185906129e6565b92507f0f00000000000000000000000000000000000000000000000000000000000000612a9a6124dc611d64611d3e612a948760011c90565b866127e4565b60f81b165f1a612aa98661149d565b535f19612ab583611ef0565b9390506129df565b50818111156129bb565b915f915f612ad3612500565b50845115612d645790935f915b81518310156101955782158080612d4e575b61019557159081612d31575b5061019557612b1061178283836114cb565b948551600281145f14612c0d5750612b32612b2d6116d58861149d565b613134565b95612b48612b418888846131a1565b8092610cd4565b965111612bef5715612b7f5750612b5f9051612921565b11610195575111612b76576116d5610b9e91611407565b50610b9e612391565b919094612b8c8651612921565b82146101955780612bae612baa612ba4600194611407565b51612dc9565b1590565b15612bd057612bbf612bc591611407565b51613126565b915b01919490612ae0565b612bdc612be991611407565b5160208101519051902090565b91612bc7565b505091509250612c00915051612921565b1161019557610b9e612391565b929491939192601103612cd25781518314612cb457612c3e612c386124dc611d64611d3e87876127e4565b93610c89565b92601081101561019557612c5b612c5582896114cb565b51613110565b15612c7d5750505050612c7091925051612921565b0361019557610b9e612391565b86612c95612baa612ba484600196989a97999b6114cb565b15612ca757612be991612bbf916114cb565b612be991612bdc916114cb565b505050612cc19051612921565b03610195576116d5610b9e916114ba565b6040517f08c379a000000000000000000000000000000000000000000000000000000000815260206004820152601360248201527f696e76616c6964206e6f6465206c656e677468000000000000000000000000006044820152606490fd5b9050612d46612d4084846114cb565b516130d9565b14155f612afe565b50612d5c612bdc85856114cb565b871415612af2565b509050612d9592507f56e81f171bcc55a6ff8345e692c0f86e5b48e01b996cadc001622fb5e363b42191501461253e565b610b9e612391565b906020820191612dad8351612e4a565b925190838201809211610c975751928303928311610c97579190565b805115612de457602060c0910151515f1a1061103757600190565b505f90565b805115612de4575f9060208101908151612e0281612e4a565b8101809111610c9757915190518101809111610c975791905b828110612e285750905090565b612e3181612eb5565b8101809111610c9757612e449091611ef0565b90612e1b565b515f1a6080811015612e5b57505f90565b60b881108015612e9f575b15612e715750600190565b60c0811015612e9057610b9e90612e8b9060b75b90612997565b610c89565b610b9e90612e8b9060f7612e85565b5060c08110158015612e66575060f88110612e66565b80515f1a906080821015612eca575050600190565b60b8821015612ee05750612e8b610b9e9161295c565b60c0821015612f215760010151602082900360b7016101000a9004017fffffffffffffffffffffffffffffffffffffffffffffffffffffffffffffff4a0190565b60f8821015612f375750612e8b610b9e9161292f565b60010151602082900360f7016101000a9004017fffffffffffffffffffffffffffffffffffffffffffffffffffffffffffffff0a0190565b601f8111610c97576101000a90565b90918015611eeb575b6020811015612fc15780612f9a57505050565b612fae612fa9612fb392612989565b612f6f565b612921565b905182518216911916179052565b91908051825260208101809111610c97579060208101809111610c975791601f19810190811115612f8757610c5c565b612ffb81516123ac565b9081511561301957806020610b9e9201519051908360200190612f7e565b5090565b5f81805b61308b575061302f816123ac565b91815b61303b57505090565b61304482612921565b6130767fff000000000000000000000000000000000000000000000000000000000000008360f81b165f1a91856127e4565b5360081c908015610c97575f19019081613032565b9061309590611ef0565b9060081c80613021565b81519190604183036130cf576130c89250602082015190606060408401519301515f1a90613245565b9192909190565b50505f9160029190565b805160208110156130f1575060208101519051902090565b906020015120604051602081019182526020815261238b604082610afd565b6001815103612de45760200151515f1a60801490565b61312f90612d9d565b902090565b9081511561019557600f61315061249c611d64611d3e8661149d565b16806131635750610b9e60025f936129a4565b600181036131785750610b9e60015f936129a4565b6002810361318e5750610b9e60026001936129a4565b60030361019557610b9e600180936129a4565b91905f5b838101808211610c9757825181108061323b575b15613233576131e97fff0000000000000000000000000000000000000000000000000000000000000091846127e4565b51167fff0000000000000000000000000000000000000000000000000000000000000061321683866127e4565b5116900361322c5761322790611ef0565b6131a5565b9250505090565b509250505090565b50835182106131b9565b91907f7fffffffffffffffffffffffffffffff5d576e7357a4501ddfe92f46681b20a084116132d4579160209360809260ff5f9560405194855216868401526040830152606082015282805260015afa156132c9575f5173ffffffffffffffffffffffffffffffffffffffff8116156132bf57905f905f90565b505f906001905f90565b6040513d5f823e3d90fd5b5050505f916003919056fea164736f6c634300081c000a2f8788117e7eff1d82e926ec794901d17c78024a50270940304540a733656f0d4c48d1d2b0f4f7485fc28e3db22341d96a20aa29e6efa8149da9751603abd4e06e0c24a6e293ff9b755263dbaa15ba3796b0b8d3fe17cfb4ddf8143b268eac47bd893629a699470e4ec82a5715bb4981fdaacc5d0a728bf5f55b801d8f4ef10bad3228b676f7d3cd4284a5443f17f1962b36e491b30a40b2405849e597ba5fb5","linkReferences":{}},"methodIdentifiers":{"DEFAULT_ADMIN_ROLE()":"a217fddf","PROOF_SUBMITTER_ROLE()":"5972185a","getClientState()":"ef913a4b","getConsensusState(uint64)":"edce8bdc","getRoleAdmin(bytes32)":"248a9ca3","grantRole(bytes32,address)":"2f2ff15d","hasRole(bytes32,address)":"91d14854","misbehaviour(bytes)":"ddba6537","renounceRole(bytes32,address)":"36568abe","revokeRole(bytes32,address)":"d547741f","supportsInterface(bytes4)":"01ffc9a7","updateClient(bytes)":"0bece356","verifyMembership((bytes,(uint64,uint64),bytes[],bytes))":"682ed5f0","verifyNonMembership((bytes,(uint64,uint64),bytes[]))":"4d6d9ffb"},"id":36}