{"abi":[{"type":"constructor","inputs":[{"name":"bridgeReceiveTypeUrl_","type":"string","internalType":"string"},{"name":"denom_","type":"string","internalType":"string"},{"name":"icaAddress_","type":"string","internalType":"string"}],"stateMutability":"nonpayable"},{"type":"function","name":"bridgeReceiveTypeUrl","inputs":[],"outputs":[{"name":"","type":"string","internalType":"string"}],"stateMutability":"view"},{"type":"function","name":"constructMintCall","inputs":[{"name":"receiver","type":"string","internalType":"string"},{"name":"amount","type":"uint256","internalType":"uint256"}],"outputs":[{"name":"","type":"bytes","internalType":"bytes"}],"stateMutability":"view"},{"type":"function","name":"denom","inputs":[],"outputs":[{"name":"","type":"string","internalType":"string"}],"stateMutability":"view"},{"type":"function","name":"icaAddress","inputs":[],"outputs":[{"name":"","type":"string","internalType":"string"}],"stateMutability":"view"}],"bytecode":{"object":"0x60806040523461046857610ecb803803806100198161046c565b92833981016060828203126104685781516001600160401b0381116104685781610044918401610491565b60208301519092906001600160401b0381116104685782610066918301610491565b60408201519092906001600160401b038111610468576100869201610491565b82516001600160401b0381116102a3575f54600181811c9116801561045e575b602082101461028557601f81116103fc575b506020601f821160011461039b57819293945f92610390575b50508160011b915f199060031b1c1916175f555b81516001600160401b0381116102a357600154600181811c91168015610386575b602082101461028557601f8111610323575b50602092601f82116001146102c257928192935f926102b7575b50508160011b915f199060031b1c1916176001555b80516001600160401b0381116102a357600254600181811c91168015610299575b602082101461028557601f8111610222575b50602091601f82116001146101c2579181925f926101b7575b50508160011b915f199060031b1c1916176002555b6040516109e890816104e38239f35b015190505f80610193565b601f1982169260025f52805f20915f5b85811061020a575083600195106101f2575b505050811b016002556101a8565b01515f1960f88460031b161c191690555f80806101e4565b919260206001819286850151815501940192016101d2565b60025f527f405787fa12a823e0f2b7631cc41b3ba8828b3321ca811111fa75cd3aa3bb5ace601f830160051c8101916020841061027b575b601f0160051c01905b818110610270575061017a565b5f8155600101610263565b909150819061025a565b634e487b7160e01b5f52602260045260245ffd5b90607f1690610168565b634e487b7160e01b5f52604160045260245ffd5b015190505f80610132565b601f1982169360015f52805f20915f5b86811061030b57508360019596106102f3575b505050811b01600155610147565b01515f1960f88460031b161c191690555f80806102e5565b919260206001819286850151815501940192016102d2565b60015f527fb10e2d527612073b26eecdfd717e6a320cf44b4afac2b0732d9fcbe2b7fa0cf6601f830160051c8101916020841061037c575b601f0160051c01905b8181106103715750610118565b5f8155600101610364565b909150819061035b565b90607f1690610106565b015190505f806100d1565b601f198216905f8052805f20915f5b8181106103e4575095836001959697106103cc575b505050811b015f556100e5565b01515f1960f88460031b161c191690555f80806103bf565b9192602060018192868b0151815501940192016103aa565b5f80527f290decd9548b62a8d60345a988386fc84ba6bc95484008f6362f93160ef3e563601f830160051c81019160208410610454575b601f0160051c01905b81811061044957506100b8565b5f815560010161043c565b9091508190610433565b90607f16906100a6565b5f80fd5b6040519190601f01601f191682016001600160401b038111838210176102a357604052565b81601f82011215610468578051906001600160401b0382116102a3576104c0601f8301601f191660200161046c565b928284526020838301011161046857815f9260208093018386015e830101529056fe60806040526004361015610011575f80fd5b5f3560e01c80632ff02e27146107dc57806356d981a7146102275780638f2edc84146101675763c370b04214610045575f80fd5b34610163575f7ffffffffffffffffffffffffffffffffffffffffffffffffffffffffffffffffc360112610163576040515f6001546100838161089f565b808452906001811690811561012157506001146100c3575b6100bf836100ab818503826108f0565b60405191829160208352602083019061095e565b0390f35b60015f9081527fb10e2d527612073b26eecdfd717e6a320cf44b4afac2b0732d9fcbe2b7fa0cf6939250905b808210610107575090915081016020016100ab61009b565b9192600181602092548385880101520191019092916100ef565b7fffffffffffffffffffffffffffffffffffffffffffffffffffffffffffffff001660208086019190915291151560051b840190910191506100ab905061009b565b5f80fd5b34610163575f7ffffffffffffffffffffffffffffffffffffffffffffffffffffffffffffffffc360112610163576040515f5f546101a48161089f565b808452906001811690811561012157506001146101cb576100bf836100ab818503826108f0565b5f8080527f290decd9548b62a8d60345a988386fc84ba6bc95484008f6362f93160ef3e563939250905b80821061020d575090915081016020016100ab61009b565b9192600181602092548385880101520191019092916101f5565b346101635760407ffffffffffffffffffffffffffffffffffffffffffffffffffffffffffffffffc3601126101635760043567ffffffffffffffff8111610163573660238201121561016357806004013567ffffffffffffffff8111610163573660248284010111610163575f602435807a184f03e93ff9f4daa797ed6e38ed64bf6a1f0100000000000000008110156107b4575b806d04ee2d6d415b85acef8100000000600a921015610799575b662386f26fc10000811015610785575b6305f5e100811015610774575b612710811015610765575b6064811015610757575b101561074d575b6001820190600a7fffffffffffffffffffffffffffffffffffffffffffffffffffffffffffffffff602161035b610345866109a1565b9561035360405197886108f0565b8087526109a1565b957fffffffffffffffffffffffffffffffffffffffffffffffffffffffffffffffe06020870197013688378501015b01917f30313233343536373839616263646566000000000000000000000000000000008282061a83530480156103e4577fffffffffffffffffffffffffffffffffffffffffffffffffffffffffffffffff600a919261038a565b5050604051927f7b226d65737361676573223a5b7b224074797065223a2200000000000000000060208501525f945f5461041d8161089f565b906001811690811561071257506001146106bc575b507f222c227369676e6572223a22000000000000000000000000000000000000000086526002545f966104648261089f565b916001811690811561067e5750600114610625575b50507f222c2264656e6f6d223a2200000000000000000000000000000000000000000086525f956001546104ac8161089f565b90600181169081156105e25750600114610584575b5050600e6100ab946004948489600c9660248b977f222c227265636569766572223a220000000000000000000000000000000000006100bf9e52018683013701907f222c22616d6f756e74223a22000000000000000000000000000000000000000084830152518092601a83015e01017f227d5d7d000000000000000000000000000000000000000000000000000000008382015203017fffffffffffffffffffffffffffffffffffffffffffffffffffffffffffffffe48101845201826108f0565b60015f908152919750907fb10e2d527612073b26eecdfd717e6a320cf44b4afac2b0732d9fcbe2b7fa0cf65b8282106105cb57505095909501600b0194600e6100ab6104c1565b60018160209254600b858d010152019101906105b0565b7fffffffffffffffffffffffffffffffffffffffffffffffffffffffffffffff0016600b84810191909152821515909202909201019650600e90506100ab6104c1565b60025f90815292975090917f405787fa12a823e0f2b7631cc41b3ba8828b3321ca811111fa75cd3aa3bb5ace5b83821061066757505001600c01948680610479565b60018160209254600c858701015201910190610652565b600c9499507fffffffffffffffffffffffffffffffffffffffffffffffffffffffffffffff0091509291921683830152801515020101948680610479565b5f808052919650907f290decd9548b62a8d60345a988386fc84ba6bc95484008f6362f93160ef3e5635b8282106106fb57505084016037019486610432565b600181602092546037858b010152019101906106e6565b60379398507fffffffffffffffffffffffffffffffffffffffffffffffffffffffffffffff0091501682870152801515028501019486610432565b906001019061030f565b606460029104930192610308565b612710600491049301926102fe565b6305f5e100600891049301926102f3565b662386f26fc10000601091049301926102e6565b6d04ee2d6d415b85acef8100000000602091049301926102d6565b50604091507a184f03e93ff9f4daa797ed6e38ed64bf6a1f01000000000000000081046102bc565b34610163575f7ffffffffffffffffffffffffffffffffffffffffffffffffffffffffffffffffc360112610163576040515f60025461081a8161089f565b80845290600181169081156101215750600114610841576100bf836100ab818503826108f0565b60025f9081527f405787fa12a823e0f2b7631cc41b3ba8828b3321ca811111fa75cd3aa3bb5ace939250905b808210610885575090915081016020016100ab61009b565b91926001816020925483858801015201910190929161086d565b90600182811c921680156108e6575b60208310146108b957565b7f4e487b71000000000000000000000000000000000000000000000000000000005f52602260045260245ffd5b91607f16916108ae565b90601f7fffffffffffffffffffffffffffffffffffffffffffffffffffffffffffffffe0910116810190811067ffffffffffffffff82111761093157604052565b7f4e487b71000000000000000000000000000000000000000000000000000000005f52604160045260245ffd5b907fffffffffffffffffffffffffffffffffffffffffffffffffffffffffffffffe0601f602080948051918291828752018686015e5f8582860101520116010190565b67ffffffffffffffff811161093157601f017fffffffffffffffffffffffffffffffffffffffffffffffffffffffffffffffe0166020019056fea164736f6c634300081c000a","linkReferences":{}},"methodIdentifiers":{"bridgeReceiveTypeUrl()":"8f2edc84","constructMintCall(string,uint256)":"56d981a7","denom()":"c370b042","icaAddress()":"2ff02e27"},"id":57}