{"abi":[{"type":"function","name":"getClientState","inputs":[],"outputs":[{"name":"","type":"bytes","internalType":"bytes"}],"stateMutability":"view"},{"type":"function","name":"misbehaviour","inputs":[{"name":"","type":"bytes","internalType":"bytes"}],"outputs":[],"stateMutability":"nonpayable"},{"type":"function","name":"updateClient","inputs":[{"name":"updateMsg","type":"bytes","internalType":"bytes"}],"outputs":[{"name":"","type":"uint8","internalType":"enum ILightClientMsgs.UpdateResult"}],"stateMutability":"nonpayable"},{"type":"function","name":"verifyMembership","inputs":[{"name":"msg_","type":"tuple","internalType":"struct ILightClientMsgs.MsgVerifyMembership","components":[{"name":"proof","type":"bytes","internalType":"bytes"},{"name":"proofHeight","type":"tuple","internalType":"struct IICS02ClientMsgs.Height","components":[{"name":"revisionNumber","type":"uint64","internalType":"uint64"},{"name":"revisionHeight","type":"uint64","internalType":"uint64"}]},{"name":"path","type":"bytes[]","internalType":"bytes[]"},{"name":"value","type":"bytes","internalType":"bytes"}]}],"outputs":[{"name":"","type":"uint256","internalType":"uint256"}],"stateMutability":"nonpayable"},{"type":"function","name":"verifyNonMembership","inputs":[{"name":"msg_","type":"tuple","internalType":"struct ILightClientMsgs.MsgVerifyNonMembership","components":[{"name":"proof","type":"bytes","internalType":"bytes"},{"name":"proofHeight","type":"tuple","internalType":"struct IICS02ClientMsgs.Height","components":[{"name":"revisionNumber","type":"uint64","internalType":"uint64"},{"name":"revisionHeight","type":"uint64","internalType":"uint64"}]},{"name":"path","type":"bytes[]","internalType":"bytes[]"}]}],"outputs":[{"name":"","type":"uint256","internalType":"uint256"}],"stateMutability":"nonpayable"}],"bytecode":{"object":"0x60808060405234601557610c5a908161001a8239f35b5f80fdfe6080806040526004361015610012575f80fd5b5f3560e01c9081630bece3561461031f575080634d6d9ffb1461024a578063682ed5f0146100d2578063ddba6537146100c25763ef913a4b14610053575f80fd5b346100be575f6003193601126100be576100ba60405167ffffffffffffffff5f54818116602084015260401c16604082015267ffffffffffffffff600154166060820152606081526100a6608082610860565b60405191829160208352602083019061081f565b0390f35b5f80fd5b346100be576100d0366107ce565b005b346100be5760206003193601126100be5760043567ffffffffffffffff81116100be578060040160a060031983360301126100be57602482019161014661011884610a96565b936101406064608485019461013961013087896109cd565b90501515610914565b0185610979565b91610b32565b5f52600360205260405f20549182156101ec5761016d91610166916109cd565b36916108b0565b602081519101200361018e5760209067ffffffffffffffff60405191168152f35b60646040517f08c379a000000000000000000000000000000000000000000000000000000000815260206004820152600e60248201527f76616c7565206d69736d617463680000000000000000000000000000000000006044820152fd5b60646040517f08c379a000000000000000000000000000000000000000000000000000000000815260206004820152601260248201527f6d697373696e67206d656d6265727368697000000000000000000000000000006044820152fd5b346100be5760206003193601126100be5760043567ffffffffffffffff81116100be57608060031982360301126100be5761029c6024820161014061028e82610a96565b936064810190600401610979565b5f52600360205260405f20546102c15760209067ffffffffffffffff60405191168152f35b60646040517f08c379a000000000000000000000000000000000000000000000000000000000815260206004820152601160248201527f6d656d62657273686970206578697374730000000000000000000000000000006044820152fd5b346100be5761032d366107ce565b8101906020818303126100be5780359067ffffffffffffffff82116100be570191828203608081126100be57606082019082821067ffffffffffffffff8311176107a1576040918252126100be5760405161038781610844565b61039084610883565b815261039e60208501610883565b602082015281526103b160408401610883565b926020820193845260608101359067ffffffffffffffff82116100be57019180601f840112156100be578235926103e784610898565b936103f56040519586610860565b80855260208086019160051b830101918383116100be5760208101915b8383106106a6578787876040810191825267ffffffffffffffff8351161561064857519167ffffffffffffffff808451169161045660208601938385511690610a1e565b82825116905f52600260205260405f20907fffffffffffffffffffffffffffffffffffffffffffffffff0000000000000000825416179055511680602060405161049f81610844565b868152015267ffffffffffffffff8451167fffffffffffffffffffffffffffffffffffffffffffffffff00000000000000005f5416175f5581517fffffffffffffffffffffffffffffffff0000000000000000ffffffffffffffff6fffffffffffffffff00000000000000005f549260401b169116175f557fffffffffffffffffffffffffffffffffffffffffffffffff000000000000000060015416176001555f5b8251805182101561063e576020908260051b01015160208101906105698251511515610914565b5160405160208101916040820160208452815180915260608301602060608360051b8601019301915f5b8181106105f7575050505091816105ba6105db93600197969503601f198101835282610860565b51902067ffffffffffffffff88511667ffffffffffffffff87511690610a50565b905160208151910120905f52600360205260405f205501610542565b90919293602080610632837fffffffffffffffffffffffffffffffffffffffffffffffffffffffffffffffa08a60019603018852885161081f565b96019401929101610593565b60206040515f8152f35b60646040517f08c379a000000000000000000000000000000000000000000000000000000000815260206004820152600e60248201527f7a65726f2074696d657374616d700000000000000000000000000000000000006044820152fd5b823567ffffffffffffffff81116100be578201906040601f1983880301126100be57604051906106d582610844565b602083013567ffffffffffffffff81116100be5760209084010187601f820112156100be57803561070581610898565b916107136040519384610860565b81835260208084019260051b820101918a83116100be5760208201905b8382106107735750505050825260408301359167ffffffffffffffff83116100be57610764886020809695819601016108f6565b83820152815201920191610412565b813567ffffffffffffffff81116100be576020916107968e8480948801016108f6565b815201910190610730565b7f4e487b71000000000000000000000000000000000000000000000000000000005f52604160045260245ffd5b9060206003198301126100be5760043567ffffffffffffffff81116100be57826023820112156100be5780600401359267ffffffffffffffff84116100be57602484830101116100be576024019190565b90601f19601f602080948051918291828752018686015e5f8582860101520116010190565b6040810190811067ffffffffffffffff8211176107a157604052565b90601f601f19910116810190811067ffffffffffffffff8211176107a157604052565b359067ffffffffffffffff821682036100be57565b67ffffffffffffffff81116107a15760051b60200190565b92919267ffffffffffffffff82116107a157604051916108da6020601f19601f8401160184610860565b8294818452818301116100be578281602093845f960137010152565b9080601f830112156100be57816020610911933591016108b0565b90565b1561091b57565b60646040517f08c379a000000000000000000000000000000000000000000000000000000000815260206004820152600b60248201527f656d7074792076616c75650000000000000000000000000000000000000000006044820152fd5b9035907fffffffffffffffffffffffffffffffffffffffffffffffffffffffffffffffe1813603018212156100be570180359067ffffffffffffffff82116100be57602001918160051b360383136100be57565b9035907fffffffffffffffffffffffffffffffffffffffffffffffffffffffffffffffe1813603018212156100be570180359067ffffffffffffffff82116100be576020019181360383136100be57565b9067ffffffffffffffff6040519181602084019416845216604082015260408152610a4a606082610860565b51902090565b9167ffffffffffffffff60405192816020850195168552166040830152606082015260608152610a4a608082610860565b3567ffffffffffffffff811681036100be5790565b610ab590610aaf6020610aa883610a81565b9201610a81565b90610a1e565b5f52600260205267ffffffffffffffff60405f2054168015610ad45790565b60646040517f08c379a000000000000000000000000000000000000000000000000000000000815260206004820152600e60248201527f756e6b6e6f776e206865696768740000000000000000000000000000000000006044820152fd5b90929192610b4b6020610b4484610a81565b9301610a81565b90604051946020860191816040880160208552526060870160608360051b89010192825f907fffffffffffffffffffffffffffffffffffffffffffffffffffffffffffffffe1813603015b838310610bc45750505050505094610bbb81610911969703601f198101835282610860565b51902091610a50565b9091929394957fffffffffffffffffffffffffffffffffffffffffffffffffffffffffffffffa08c82030186528635828112156100be578301906020823592019167ffffffffffffffff81116100be5780360383136100be57602082601f19601f8480600198869897879852868601375f84820186015201160101980196019493019190610b9656fea164736f6c634300081c000a","linkReferences":{}},"methodIdentifiers":{"getClientState()":"ef913a4b","misbehaviour(bytes)":"ddba6537","updateClient(bytes)":"0bece356","verifyMembership((bytes,(uint64,uint64),bytes[],bytes))":"682ed5f0","verifyNonMembership((bytes,(uint64,uint64),bytes[]))":"4d6d9ffb"},"id":41}