{"abi":[{"type":"constructor","inputs":[{"name":"updateClientProgramVkey","type":"bytes32","internalType":"bytes32"},{"name":"membershipProgramVkey","type":"bytes32","internalType":"bytes32"},{"name":"updateClientAndMembershipProgramVkey","type":"bytes32","internalType":"bytes32"},{"name":"misbehaviourProgramVkey","type":"bytes32","internalType":"bytes32"},{"name":"sp1Verifier","type":"address","internalType":"address"},{"name":"_clientState","type":"bytes","internalType":"bytes"},{"name":"_consensusState","type":"bytes32","internalType":"bytes32"},{"name":"roleManager","type":"address","internalType":"address"}],"stateMutability":"nonpayable"},{"type":"function","name":"ALLOWED_SP1_CLOCK_DRIFT","inputs":[],"outputs":[{"name":"","type":"uint16","internalType":"uint16"}],"stateMutability":"view"},{"type":"function","name":"DEFAULT_ADMIN_ROLE","inputs":[],"outputs":[{"name":"","type":"bytes32","internalType":"bytes32"}],"stateMutability":"view"},{"type":"function","name":"MEMBERSHIP_PROGRAM_VKEY","inputs":[],"outputs":[{"name":"","type":"bytes32","internalType":"bytes32"}],"stateMutability":"view"},{"type":"function","name":"MISBEHAVIOUR_PROGRAM_VKEY","inputs":[],"outputs":[{"name":"","type":"bytes32","internalType":"bytes32"}],"stateMutability":"view"},{"type":"function","name":"PROOF_SUBMITTER_ROLE","inputs":[],"outputs":[{"name":"","type":"bytes32","internalType":"bytes32"}],"stateMutability":"view"},{"type":"function","name":"UPDATE_CLIENT_AND_MEMBERSHIP_PROGRAM_VKEY","inputs":[],"outputs":[{"name":"","type":"bytes32","internalType":"bytes32"}],"stateMutability":"view"},{"type":"function","name":"UPDATE_CLIENT_PROGRAM_VKEY","inputs":[],"outputs":[{"name":"","type":"bytes32","internalType":"bytes32"}],"stateMutability":"view"},{"type":"function","name":"VERIFIER","inputs":[],"outputs":[{"name":"","type":"address","internalType":"contract ISP1Verifier"}],"stateMutability":"view"},{"type":"function","name":"clientState","inputs":[],"outputs":[{"name":"chainId","type":"string","internalType":"string"},{"name":"trustLevel","type":"tuple","internalType":"struct IICS07TendermintMsgs.TrustThreshold","components":[{"name":"numerator","type":"uint8","internalType":"uint8"},{"name":"denominator","type":"uint8","internalType":"uint8"}]},{"name":"latestHeight","type":"tuple","internalType":"struct IICS02ClientMsgs.Height","components":[{"name":"revisionNumber","type":"uint64","internalType":"uint64"},{"name":"revisionHeight","type":"uint64","internalType":"uint64"}]},{"name":"trustingPeriod","type":"uint32","internalType":"uint32"},{"name":"unbondingPeriod","type":"uint32","internalType":"uint32"},{"name":"isFrozen","type":"bool","internalType":"bool"},{"name":"zkAlgorithm","type":"uint8","internalType":"enum IICS07TendermintMsgs.SupportedZkAlgorithm"}],"stateMutability":"view"},{"type":"function","name":"getClientState","inputs":[],"outputs":[{"name":"","type":"bytes","internalType":"bytes"}],"stateMutability":"view"},{"type":"function","name":"getConsensusStateHash","inputs":[{"name":"revisionHeight","type":"uint64","internalType":"uint64"}],"outputs":[{"name":"","type":"bytes32","internalType":"bytes32"}],"stateMutability":"view"},{"type":"function","name":"getRoleAdmin","inputs":[{"name":"role","type":"bytes32","internalType":"bytes32"}],"outputs":[{"name":"","type":"bytes32","internalType":"bytes32"}],"stateMutability":"view"},{"type":"function","name":"grantRole","inputs":[{"name":"role","type":"bytes32","internalType":"bytes32"},{"name":"account","type":"address","internalType":"address"}],"outputs":[],"stateMutability":"nonpayable"},{"type":"function","name":"hasRole","inputs":[{"name":"role","type":"bytes32","internalType":"bytes32"},{"name":"account","type":"address","internalType":"address"}],"outputs":[{"name":"","type":"bool","internalType":"bool"}],"stateMutability":"view"},{"type":"function","name":"misbehaviour","inputs":[{"name":"misbehaviourMsg","type":"bytes","internalType":"bytes"}],"outputs":[],"stateMutability":"nonpayable"},{"type":"function","name":"multicall","inputs":[{"name":"data","type":"bytes[]","internalType":"bytes[]"}],"outputs":[{"name":"results","type":"bytes[]","internalType":"bytes[]"}],"stateMutability":"nonpayable"},{"type":"function","name":"renounceRole","inputs":[{"name":"role","type":"bytes32","internalType":"bytes32"},{"name":"callerConfirmation","type":"address","internalType":"address"}],"outputs":[],"stateMutability":"nonpayable"},{"type":"function","name":"revokeRole","inputs":[{"name":"role","type":"bytes32","internalType":"bytes32"},{"name":"account","type":"address","internalType":"address"}],"outputs":[],"stateMutability":"nonpayable"},{"type":"function","name":"supportsInterface","inputs":[{"name":"interfaceId","type":"bytes4","internalType":"bytes4"}],"outputs":[{"name":"","type":"bool","internalType":"bool"}],"stateMutability":"view"},{"type":"function","name":"updateClient","inputs":[{"name":"updateMsg","type":"bytes","internalType":"bytes"}],"outputs":[{"name":"","type":"uint8","internalType":"enum ILightClientMsgs.UpdateResult"}],"stateMutability":"nonpayable"},{"type":"function","name":"verifyMembership","inputs":[{"name":"msg_","type":"tuple","internalType":"struct ILightClientMsgs.MsgVerifyMembership","components":[{"name":"proof","type":"bytes","internalType":"bytes"},{"name":"proofHeight","type":"tuple","internalType":"struct IICS02ClientMsgs.Height","components":[{"name":"revisionNumber","type":"uint64","internalType":"uint64"},{"name":"revisionHeight","type":"uint64","internalType":"uint64"}]},{"name":"path","type":"bytes[]","internalType":"bytes[]"},{"name":"value","type":"bytes","internalType":"bytes"}]}],"outputs":[{"name":"","type":"uint256","internalType":"uint256"}],"stateMutability":"nonpayable"},{"type":"function","name":"verifyNonMembership","inputs":[{"name":"msg_","type":"tuple","internalType":"struct ILightClientMsgs.MsgVerifyNonMembership","components":[{"name":"proof","type":"bytes","internalType":"bytes"},{"name":"proofHeight","type":"tuple","internalType":"struct IICS02ClientMsgs.Height","components":[{"name":"revisionNumber","type":"uint64","internalType":"uint64"},{"name":"revisionHeight","type":"uint64","internalType":"uint64"}]},{"name":"path","type":"bytes[]","internalType":"bytes[]"}]}],"outputs":[{"name":"","type":"uint256","internalType":"uint256"}],"stateMutability":"nonpayable"},{"type":"event","name":"RoleAdminChanged","inputs":[{"name":"role","type":"bytes32","indexed":true,"internalType":"bytes32"},{"name":"previousAdminRole","type":"bytes32","indexed":true,"internalType":"bytes32"},{"name":"newAdminRole","type":"bytes32","indexed":true,"internalType":"bytes32"}],"anonymous":false},{"type":"event","name":"RoleGranted","inputs":[{"name":"role","type":"bytes32","indexed":true,"internalType":"bytes32"},{"name":"account","type":"address","indexed":true,"internalType":"address"},{"name":"sender","type":"address","indexed":true,"internalType":"address"}],"anonymous":false},{"type":"event","name":"RoleRevoked","inputs":[{"name":"role","type":"bytes32","indexed":true,"internalType":"bytes32"},{"name":"account","type":"address","indexed":true,"internalType":"address"},{"name":"sender","type":"address","indexed":true,"internalType":"address"}],"anonymous":false},{"type":"error","name":"AccessControlBadConfirmation","inputs":[]},{"type":"error","name":"AccessControlUnauthorizedAccount","inputs":[{"name":"account","type":"address","internalType":"address"},{"name":"neededRole","type":"bytes32","internalType":"bytes32"}]},{"type":"error","name":"AddressEmptyCode","inputs":[{"name":"target","type":"address","internalType":"address"}]},{"type":"error","name":"CannotHandleMisbehavior","inputs":[]},{"type":"error","name":"ChainIdMismatch","inputs":[{"name":"expected","type":"string","internalType":"string"},{"name":"actual","type":"string","internalType":"string"}]},{"type":"error","name":"ClientStateMismatch","inputs":[{"name":"expected","type":"bytes","internalType":"bytes"},{"name":"actual","type":"bytes","internalType":"bytes"}]},{"type":"error","name":"ConsensusStateHashMismatch","inputs":[{"name":"expected","type":"bytes32","internalType":"bytes32"},{"name":"actual","type":"bytes32","internalType":"bytes32"}]},{"type":"error","name":"ConsensusStateNotFound","inputs":[]},{"type":"error","name":"ConsensusStateRootMismatch","inputs":[{"name":"expected","type":"bytes32","internalType":"bytes32"},{"name":"actual","type":"bytes32","internalType":"bytes32"}]},{"type":"error","name":"EmptyValue","inputs":[]},{"type":"error","name":"FailedCall","inputs":[]},{"type":"error","name":"FeatureNotSupported","inputs":[]},{"type":"error","name":"FrozenClientState","inputs":[]},{"type":"error","name":"InvalidMembershipProof","inputs":[]},{"type":"error","name":"KeyValuePairNotInCache","inputs":[{"name":"path","type":"bytes[]","internalType":"bytes[]"},{"name":"value","type":"bytes","internalType":"bytes"}]},{"type":"error","name":"LengthIsOutOfRange","inputs":[{"name":"length","type":"uint256","internalType":"uint256"},{"name":"min","type":"uint256","internalType":"uint256"},{"name":"max","type":"uint256","internalType":"uint256"}]},{"type":"error","name":"MembershipProofKeyNotFound","inputs":[{"name":"path","type":"bytes[]","internalType":"bytes[]"}]},{"type":"error","name":"MembershipProofValueMismatch","inputs":[{"name":"expected","type":"bytes","internalType":"bytes"},{"name":"actual","type":"bytes","internalType":"bytes"}]},{"type":"error","name":"ProofHeightMismatch","inputs":[{"name":"expectedRevisionNumber","type":"uint64","internalType":"uint64"},{"name":"expectedRevisionHeight","type":"uint64","internalType":"uint64"},{"name":"actualRevisionNumber","type":"uint64","internalType":"uint64"},{"name":"actualRevisionHeight","type":"uint64","internalType":"uint64"}]},{"type":"error","name":"ProofIsInTheFuture","inputs":[{"name":"now","type":"uint256","internalType":"uint256"},{"name":"proofTimestamp","type":"uint256","internalType":"uint256"}]},{"type":"error","name":"ProofIsTooOld","inputs":[{"name":"now","type":"uint256","internalType":"uint256"},{"name":"proofTimestamp","type":"uint256","internalType":"uint256"}]},{"type":"error","name":"TrustThresholdMismatch","inputs":[{"name":"expectedNumerator","type":"uint256","internalType":"uint256"},{"name":"expectedDenominator","type":"uint256","internalType":"uint256"},{"name":"actualNumerator","type":"uint256","internalType":"uint256"},{"name":"actualDenominator","type":"uint256","internalType":"uint256"}]},{"type":"error","name":"TrustingPeriodMismatch","inputs":[{"name":"expected","type":"uint256","internalType":"uint256"},{"name":"actual","type":"uint256","internalType":"uint256"}]},{"type":"error","name":"TrustingPeriodTooLong","inputs":[{"name":"trustingPeriod","type":"uint256","internalType":"uint256"},{"name":"unbondingPeriod","type":"uint256","internalType":"uint256"}]},{"type":"error","name":"UnbondingPeriodMismatch","inputs":[{"name":"expected","type":"uint256","internalType":"uint256"},{"name":"actual","type":"uint256","internalType":"uint256"}]},{"type":"error","name":"UnknownMembershipProofType","inputs":[{"name":"proofType","type":"uint8","internalType":"uint8"}]},{"type":"error","name":"UnknownZkAlgorithm","inputs":[{"name":"algorithm","type":"uint8","internalType":"uint8"}]},{"type":"error","name":"VerificationKeyMismatch","inputs":[{"name":"expected","type":"bytes32","internalType":"bytes32"},{"name":"actual","type":"bytes32","internalType":"bytes32"}]}],"bytecode":{"object":"0x61012060405234610541576137358038038061001a81610564565b928339810161010082820312610541578151916020810151604082015160608301519061004960808501610589565b60a08501519095906001600160401b0381116105415785019080601f8301121561054157815161007b9260200161059d565b9261008d60e060c08701519601610589565b9660805260a05260c05260e05280518101906020820190602081840312610541576020810151906001600160401b038211610541570191829003601f1981019061012013610541576040519160e083016001600160401b0381118482101761052d5760405260208401516001600160401b038111610541576020908501019080601f830112156105415781516101259260200161059d565b825260408112610541576040610139610545565b916101458286016105dd565b8352610153606086016105dd565b602084015260208401928352603f19011261054157610170610545565b61017c608085016105eb565b815261018a60a085016105eb565b6020820152604083019081526101a260c085016105ff565b90606084019182526101b660e086016105ff565b92608085019384526101008601519586151587036105415760a0860196875261012001519460028610156105415760c08101958652518051906001600160401b03821161052d57600154600181811c91168015610523575b602082101461050f57601f81116104ac575b50602090601f831160011461043f5763ffffffff95949392915f9183610434575b50508160011b915f199060031b1c1916176001555b5160ff81511661ff00602060025493015160081b169161ffff191617176002555160018060401b0381511660035491602068010000000000000000600160801b0391015160401b169160018060801b031916171760035551169267ffffffff00000000600454925160201b169051151560401b92519160028310156104205769ff00000000000000000068ff00000000000000009360481b169469ff000000000000000000199160018060481b0319161716179116171760045560018060401b0360035460401c165f52600560205260405f205560018060a01b03166101005260045463ffffffff8116610708810163ffffffff811161040c5763ffffffff809360201c1692839116116103f757826001600160a01b0381166103de575061037c610706565b505b604051612f0c908161078982396080518181816105570152611482015260a0518181816101f90152611e3e015260c051818181610cf001526121c2015260e0518181816102a00152610afe015261010051818181610cb50152611a570152f35b806103eb6103f192610610565b50610686565b5061037e565b6333fae18560e21b5f5260045260245260445ffd5b634e487b7160e01b5f52601160045260245ffd5b634e487b7160e01b5f52602160045260245ffd5b015190505f80610241565b90601f1983169160015f52815f20925f5b818110610494575091600193918563ffffffff99989796941061047c575b505050811b01600155610256565b01515f1960f88460031b161c191690555f808061046e565b92936020600181928786015181550195019301610450565b60015f527fb10e2d527612073b26eecdfd717e6a320cf44b4afac2b0732d9fcbe2b7fa0cf6601f840160051c81019160208510610505575b601f0160051c01905b8181106104fa5750610220565b5f81556001016104ed565b90915081906104e4565b634e487b7160e01b5f52602260045260245ffd5b90607f169061020e565b634e487b7160e01b5f52604160045260245ffd5b5f80fd5b60408051919082016001600160401b0381118382101761052d57604052565b6040519190601f01601f191682016001600160401b0381118382101761052d57604052565b51906001600160a01b038216820361054157565b9192916001600160401b03821161052d576105c1601f8301601f1916602001610564565b938285528282011161054157815f926020928387015e84010152565b519060ff8216820361054157565b51906001600160401b038216820361054157565b519063ffffffff8216820361054157565b6001600160a01b0381165f9081525f5160206137155f395f51905f52602052604090205460ff16610681576001600160a01b03165f8181525f5160206137155f395f51905f5260205260408120805460ff191660011790553391905f5160206136955f395f51905f528180a4600190565b505f90565b6001600160a01b0381165f9081525f5160206136b55f395f51905f52602052604090205460ff16610681576001600160a01b03165f8181525f5160206136b55f395f51905f5260205260408120805460ff191660011790553391905f5160206136f55f395f51905f52905f5160206136955f395f51905f529080a4600190565b5f80525f5160206136b55f395f51905f526020525f5160206136d55f395f51905f525460ff16610784575f8080525f5160206136b55f395f51905f526020525f5160206136d55f395f51905f52805460ff1916600117905533905f5160206136f55f395f51905f525f5160206136955f395f51905f528280a4600190565b5f9056fe6080806040526004361015610012575f80fd5b5f3560e01c90816301ffc9a714610d13575080630225293e14610cd957806308c84e7014610c895780630bece35614610bc657806323842fb814610b96578063248a9ca314610b6c5780632c3ee47414610b505780632f2ff15d14610b21578063314d4dff14610ae757806336568abe14610a8b5780634d6d9ffb146109a95780635972185a1461096f578063682ed5f01461084b57806391d1485414610802578063a217fddf146107e8578063ac9650d81461066a578063bd3ce6b01461057a578063ca7242f914610540578063d547741f1461050a578063ddba65371461021c578063e45a6d0d146101e25763ef913a4b1461010e575f80fd5b346101de575f6003193601126101de576101da60405160208082015261012060408201526101c6816101436101608201610f03565b60ff600254818116606085015260081c16608083015267ffffffffffffffff60035481811660a085015260401c1660c083015260ff60045463ffffffff811660e085015263ffffffff8160201c16610100850152818160401c16151561012085015260481c166101b28161109c565b61014083015203601f198101835282611079565b604051918291602083526020830190610e35565b0390f35b5f80fd5b346101de575f6003193601126101de5760206040517f00000000000000000000000000000000000000000000000000000000000000008152f35b346101de5761022a36610db1565b6004549160ff8360401c166104e2575f80527f4c48d1d2b0f4f7485fc28e3db22341d96a20aa29e6efa8149da9751603abd4e06020527f6e0c24a6e293ff9b755263dbaa15ba3796b0b8d3fe17cfb4ddf8143b268eac4754610298929060ff16156104d5575b810190611116565b6102c78151517f00000000000000000000000000000000000000000000000000000000000000008082146111c6565b6020815101518051810160208101916020818303126101de57602081015167ffffffffffffffff81116101de57019061018090829003126101de576040519061030f82611009565b602081015167ffffffffffffffff81116101de5783908201602001906103349161129d565b825261034260408201611385565b60208301908152906103578460608301611256565b604084019081529161036c8560a08401611256565b60608501908152946103818160e085016113a2565b92608086019384526101400190610397916113a2565b9360a081019485525190516fffffffffffffffffffffffffffffffff166103bd9161265e565b516040805182516fffffffffffffffffffffffffffffffff166020808301918252840151828401529190920151606080840191909152825290610401608082611079565b51902090516020015167ffffffffffffffff1661041d90611686565b61042a91908181146118b9565b516040805182516fffffffffffffffffffffffffffffffff16602080830191825284015182840152919092015160608084019190915282529061046e608082611079565b51902090516020015167ffffffffffffffff1661048a90611686565b61049791908181146118b9565b516104a190611a40565b7fffffffffffffffffffffffffffffffffffffffffffffff00ffffffffffffffff1668010000000000000000176004555f80f35b6104dd6117cb565b610290565b7f928b1233000000000000000000000000000000000000000000000000000000005f5260045ffd5b346101de5761053e61051b36610e02565b90610539610534825f525f602052600160405f20015490565b611853565b611be2565b005b346101de575f6003193601126101de5760206040517f00000000000000000000000000000000000000000000000000000000000000008152f35b346101de575f6003193601126101de576040516105a18161059a81610f03565b0382611079565b6101206040516105b081610fc0565b60025460ff8116825260ff602083019160081c16815260ff6040516105d481610fc0565b67ffffffffffffffff600354818116835281602084019160401c168152816004549385808660481c1697816106146040519d8d8f9e8f9081520190610e35565b9a511660208c0152511660408a0152511660608801525116608086015263ffffffff811660a086015263ffffffff8160201c1660c086015260401c16151560e08401526106608161109c565b6101008301520390f35b346101de5760206003193601126101de5760043567ffffffffffffffff81116101de57366023820112156101de57806004013567ffffffffffffffff81116101de57602482013660248360051b850101116101de576020906040516106cf8382611079565b5f815282810191601f1984013684376106e785611772565b956106f56040519788611079565b858752601f1961070487611772565b01855f5b8281106107d8575050505f5b868110156107c5576001906107a15f8061076e8861073a60248760051b8a01018a6116cd565b8d8d6040959395519483869484860198893784019083820190898252519283915e010185815203601f198101835282611079565b5190305af43d156107bd573d90610784826110a6565b916107926040519384611079565b82523d5f8b84013e5b30612d1f565b6107ab828b61178a565b526107b6818a61178a565b5001610714565b60609061079b565b604051868152806101da8189018b610e5a565b606082828c010152018690610708565b346101de575f6003193601126101de5760206040515f8152f35b346101de5761081036610e02565b905f525f60205273ffffffffffffffffffffffffffffffffffffffff60405f2091165f52602052602060ff60405f2054166040519015158152f35b346101de5760206003193601126101de5760043567ffffffffffffffff81116101de578060040160a060031983360301126101de5760ff60045460401c166104e2575f80527f4c48d1d2b0f4f7485fc28e3db22341d96a20aa29e6efa8149da9751603abd4e06020527f6e0c24a6e293ff9b755263dbaa15ba3796b0b8d3fe17cfb4ddf8143b268eac475460ff1615610962575b60848201916108ee83836116cd565b90501561093a576020928261090681610932956116cd565b602461092a61092361091b606489018761171e565b9790966116cd565b36916110c2565b950191611d2b565b604051908152f35b7f1208b21b000000000000000000000000000000000000000000000000000000005f5260045ffd5b61096a6117cb565b6108df565b346101de575f6003193601126101de5760206040517fbd893629a699470e4ec82a5715bb4981fdaacc5d0a728bf5f55b801d8f4ef10b8152f35b346101de5760206003193601126101de5760043567ffffffffffffffff81116101de5780600401608060031983360301126101de5760ff60045460401c166104e2575f80527f4c48d1d2b0f4f7485fc28e3db22341d96a20aa29e6efa8149da9751603abd4e060209081527f6e0c24a6e293ff9b755263dbaa15ba3796b0b8d3fe17cfb4ddf8143b268eac4754909261093292909160ff1615610a7e575b610a61610a5482806116cd565b919092606485019061171e565b929091602460405195610a748988611079565b5f87520191611d2b565b610a866117cb565b610a47565b346101de57610a9936610e02565b3373ffffffffffffffffffffffffffffffffffffffff821603610abf5761053e91611be2565b7f6697b232000000000000000000000000000000000000000000000000000000005f5260045ffd5b346101de575f6003193601126101de5760206040517f00000000000000000000000000000000000000000000000000000000000000008152f35b346101de5761053e610b3236610e02565b90610b4b610534825f525f602052600160405f20015490565b611b10565b346101de575f6003193601126101de5760206040516107088152f35b346101de5760206003193601126101de5760206109326004355f525f602052600160405f20015490565b346101de5760206003193601126101de5760043567ffffffffffffffff811681036101de57610932602091611686565b346101de57610bd436610db1565b60ff60045460401c166104e2575f80527f4c48d1d2b0f4f7485fc28e3db22341d96a20aa29e6efa8149da9751603abd4e06020527f6e0c24a6e293ff9b755263dbaa15ba3796b0b8d3fe17cfb4ddf8143b268eac4754610c3c929060ff1615610c7c5761146e565b6040516003821015610c4f576020918152f35b7f4e487b71000000000000000000000000000000000000000000000000000000005f52602160045260245ffd5b610c846117cb565b61146e565b346101de575f6003193601126101de57602060405173ffffffffffffffffffffffffffffffffffffffff7f0000000000000000000000000000000000000000000000000000000000000000168152f35b346101de575f6003193601126101de5760206040517f00000000000000000000000000000000000000000000000000000000000000008152f35b346101de5760206003193601126101de57600435907fffffffff0000000000000000000000000000000000000000000000000000000082168092036101de57817f7965db0b0000000000000000000000000000000000000000000000000000000060209314908115610d87575b5015158152f35b7f01ffc9a70000000000000000000000000000000000000000000000000000000091501483610d80565b9060206003198301126101de5760043567ffffffffffffffff81116101de57826023820112156101de5780600401359267ffffffffffffffff84116101de57602484830101116101de576024019190565b60031960409101126101de576004359060243573ffffffffffffffffffffffffffffffffffffffff811681036101de5790565b90601f19601f602080948051918291828752018686015e5f8582860101520116010190565b9080602083519182815201916020808360051b8301019401925f915b838310610e8557505050505090565b9091929394602080610ea383601f1986600196030187528951610e35565b97019301930191939290610e76565b90600182811c92168015610ef9575b6020831014610ecc57565b7f4e487b71000000000000000000000000000000000000000000000000000000005f52602260045260245ffd5b91607f1691610ec1565b6001545f9291610f1282610eb2565b8082529160018116908115610f865750600114610f2d575050565b60015f9081529293509091907fb10e2d527612073b26eecdfd717e6a320cf44b4afac2b0732d9fcbe2b7fa0cf65b838310610f6c575060209250010190565b600181602092949394548385870101520191019190610f5b565b60209495507fffffffffffffffffffffffffffffffffffffffffffffffffffffffffffffff0091509291921683830152151560051b010190565b6040810190811067ffffffffffffffff821117610fdc57604052565b7f4e487b71000000000000000000000000000000000000000000000000000000005f52604160045260245ffd5b60c0810190811067ffffffffffffffff821117610fdc57604052565b6020810190811067ffffffffffffffff821117610fdc57604052565b6060810190811067ffffffffffffffff821117610fdc57604052565b60e0810190811067ffffffffffffffff821117610fdc57604052565b90601f601f19910116810190811067ffffffffffffffff821117610fdc57604052565b60021115610c4f57565b67ffffffffffffffff8111610fdc57601f01601f191660200190565b9291926110ce826110a6565b916110dc6040519384611079565b8294818452818301116101de578281602093845f960137010152565b9080601f830112156101de57816020611113933591016110c2565b90565b6020818303126101de5780359067ffffffffffffffff82116101de5701906020828203126101de576040519161114b83611025565b80359067ffffffffffffffff82116101de57016060818303126101de576040519161117583611041565b81358352602082013567ffffffffffffffff81116101de57816111999184016110f8565b6020840152604082013567ffffffffffffffff81116101de576111bc92016110f8565b6040820152815290565b156111cf575050565b7fd56bdc26000000000000000000000000000000000000000000000000000000005f5260045260245260445ffd5b929192611209826110a6565b916112176040519384611079565b8294818452818301116101de578281602093845f96015e010152565b519060ff821682036101de57565b519067ffffffffffffffff821682036101de57565b91908260409103126101de5760405161126e81610fc0565b602061128781839561127f81611241565b855201611241565b910152565b519063ffffffff821682036101de57565b91908281039261012084126101de57604051916112b98361105d565b8294825167ffffffffffffffff81116101de57830182601f820112156101de576040916112ef84836020601f19955191016111fd565b865201126101de576113349060405161130781610fc0565b61131360208501611233565b815261132160408501611233565b6020820152602085015260608301611256565b604083015261134560a0820161128c565b606083015261135660c0820161128c565b608083015260e08101519081151582036101de576101009160a084015201519060028210156101de5760c00152565b51906fffffffffffffffffffffffffffffffff821682036101de57565b91908260609103126101de576040516113ba81611041565b60408082946113c881611385565b8452602081015160208501520151910152565b9190610180838203126101de57604051906113f582611009565b819380519167ffffffffffffffff83116101de576101408261141e8360a096611287960161129d565b865261142d83602083016113a2565b602087015261143f83608083016113a2565b604087015261145060e08201611385565b6060870152611463836101008301611256565b608087015201611256565b61147a91810190611116565b6114a98151517f00000000000000000000000000000000000000000000000000000000000000008082146111c6565b60208151015180518101906020818303126101de5760208101519167ffffffffffffffff83116101de576114e49260208092019201016113db565b906114ee826118f0565b6114f782611983565b916003831015610c4f578261162957908167ffffffffffffffff6020604060a0611113960193845184848201511685600354851c1681116115a1575b5050015160405161158681611578858201948591909160408060608301946fffffffffffffffffffffffffffffffff8151168452602081015160208501520151910152565b03601f198101835282611079565b51902092510151165f52600560205260405f20555b51611a40565b6115e08661162293511667ffffffffffffffff167fffffffffffffffffffffffffffffffffffffffffffffffff00000000000000006003541617600355565b7fffffffffffffffffffffffffffffffff0000000000000000ffffffffffffffff6fffffffffffffffff00000000000000006003549260401b16911617600355565b5f80611533565b506001820361166e5761111390680100000000000000007fffffffffffffffffffffffffffffffffffffffffffffff00ffffffffffffffff600454161760045561159b565b6002821461167f576111139061159b565b5050600290565b67ffffffffffffffff165f52600560205260405f205480156116a55790565b7f5b48b457000000000000000000000000000000000000000000000000000000005f5260045ffd5b9035907fffffffffffffffffffffffffffffffffffffffffffffffffffffffffffffffe1813603018212156101de570180359067ffffffffffffffff82116101de576020019181360383136101de57565b9035907fffffffffffffffffffffffffffffffffffffffffffffffffffffffffffffffe1813603018212156101de570180359067ffffffffffffffff82116101de57602001918160051b360383136101de57565b67ffffffffffffffff8111610fdc5760051b60200190565b805182101561179e5760209160051b010190565b7f4e487b71000000000000000000000000000000000000000000000000000000005f52603260045260245ffd5b335f9081527f4c48d1d2b0f4f7485fc28e3db22341d96a20aa29e6efa8149da9751603abd4e0602052604090205460ff161561180357565b7fe2517d3f000000000000000000000000000000000000000000000000000000005f52336004527fbd893629a699470e4ec82a5715bb4981fdaacc5d0a728bf5f55b801d8f4ef10b60245260445ffd5b805f525f60205260405f2073ffffffffffffffffffffffffffffffffffffffff33165f5260205260ff60405f2054161561188a5750565b7fe2517d3f000000000000000000000000000000000000000000000000000000005f523360045260245260445ffd5b156118c2575050565b7f6d23e8a3000000000000000000000000000000000000000000000000000000005f5260045260245260445ffd5b6119819061191681516fffffffffffffffffffffffffffffffff6060840151169061265e565b61197967ffffffffffffffff602060808185015160405161196b81611578868201948591909160408060608301946fffffffffffffffffffffffffffffffff8151168452602081015160208501520151910152565b519020940151015116611686565b8082146118b9565b565b67ffffffffffffffff602060a08301510151165f52600560205260405f205480155f146119b05750505f90565b604082019081516040516119f98161157860208201948591909160408060608301946fffffffffffffffffffffffffffffffff8151168452602081015160208501520151910152565b5190201491821592611a17575b505015611a1257600190565b600290565b6fffffffffffffffffffffffffffffffff91925060208291015151169151511611155f80611a06565b73ffffffffffffffffffffffffffffffffffffffff7f0000000000000000000000000000000000000000000000000000000000000000169080516040602083015192015192803b156101de575f92611ad892611aea604051968795869485947f41493c600000000000000000000000000000000000000000000000000000000086526004860152606060248601526064850190610e35565b90600319848303016044850152610e35565b03915afa8015611b0557611afb5750565b5f61198191611079565b6040513d5f823e3d90fd5b805f525f60205260405f2073ffffffffffffffffffffffffffffffffffffffff83165f5260205260ff60405f205416155f14611bdc57805f525f60205260405f2073ffffffffffffffffffffffffffffffffffffffff83165f5260205260405f2060017fffffffffffffffffffffffffffffffffffffffffffffffffffffffffffffff0082541617905573ffffffffffffffffffffffffffffffffffffffff339216907f2f8788117e7eff1d82e926ec794901d17c78024a50270940304540a733656f0d5f80a4600190565b50505f90565b805f525f60205260405f2073ffffffffffffffffffffffffffffffffffffffff83165f5260205260ff60405f2054165f14611bdc57805f525f60205260405f2073ffffffffffffffffffffffffffffffffffffffff83165f5260205260405f207fffffffffffffffffffffffffffffffffffffffffffffffffffffffffffffff00815416905573ffffffffffffffffffffffffffffffffffffffff339216907ff6391f5c32d9c69d2a47ea670b442974b53935d1edc7fd64eb21e047a839171b5f80a4600190565b3567ffffffffffffffff811681036101de5790565b929190611ccb81611772565b93611cd96040519586611079565b602085838152019160051b8101918383116101de5781905b838210611cff575050505050565b813567ffffffffffffffff81116101de57602091611d2087849387016110f8565b815201910190611cf1565b90949291939480156125a5578101906020818303126101de5780359067ffffffffffffffff82116101de57016040818303126101de5760405191611d6e83610fc0565b813560028110156101de578352602082013567ffffffffffffffff81116101de57611d9992016110f8565b90602081019182528051611dac8161109c565b611db58161109c565b612022575051908151820160208101926020818303126101de57602081015167ffffffffffffffff81116101de570190608090829003126101de5760405192611dfd84610fc0565b602082015167ffffffffffffffff81116101de5782611e26836020604094611e2e9701016129d0565b8652016113a2565b9460208301958652611e658351517f00000000000000000000000000000000000000000000000000000000000000008082146111c6565b6020835101519182518301926020818503126101de5760208101519067ffffffffffffffff82116101de5701926040848203126101de5760405193611ea985610fc0565b6020810151855260408101519167ffffffffffffffff83116101de57611ed6926020809201920101612a36565b94611ef06020850196808852518015158061201657612b83565b5f805b87518051831015611fe357611f0b83611f1e9261178a565b5151611f18368888611cbf565b90612db8565b15611fd957508694611f7d611f92956fffffffffffffffffffffffffffffffff9a9895611f7661159b966020633b9aca009f9d8198611f5d915161178a565b51015190815181518082149182611fc5575b5050612bc1565b6001612c0f565b51950194611f8a86611caa565b875191612e2a565b516001815111611fa6575b50505151160490565b611fb2611fbe92611caa565b90848451511691612eba565b5f80611f9d565b909150898401209089830120145f80611f6f565b9060010190611ef3565b5061159b92506020915094611f7d611f92956fffffffffffffffffffffffffffffffff9a9895633b9aca009c9a98612c0f565b5061ffff811115612b83565b949060018695939495516120358161109c565b61203e8161109c565b146120855760ff86516120508161109c565b6120598161109c565b7fd3a2e6c9000000000000000000000000000000000000000000000000000000005f521660045260245ffd5b90919293945051926060602060405161209d81610fc0565b6040516120a981611009565b6040516120b58161105d565b8481526040516120c481610fc0565b5f81525f85820152848201526040516120dc81610fc0565b5f81525f8582015260408201525f858201525f60808201525f60a08201525f60c0820152815261210a612998565b83820152612116612998565b60408201525f8482015260405161212c81610fc0565b5f81525f84820152608082015260405161214581610fc0565b5f81525f8482015260a08201528152015283518401936020818603126101de5760208101519067ffffffffffffffff82116101de5701936020858203126101de576040519461219386611025565b60208101519067ffffffffffffffff82116101de5760206121bc92816121e995019201016129d0565b808652517f00000000000000000000000000000000000000000000000000000000000000008082146111c6565b602084510151948551860160208101966020818303126101de57602081015167ffffffffffffffff81116101de570190604090829003126101de576040519661223188610fc0565b602082015167ffffffffffffffff81116101de57816020612254928501016113db565b885260408201519167ffffffffffffffff83116101de576122789201602001612a36565b936122926020880195808752518015158061201657612b83565b60208101956122a087611caa565b67ffffffffffffffff60a08a5101519181602084015116918291161480612586575b6122cb85611caa565b9267ffffffffffffffff6122de8c611caa565b915116911561253857505050506122f99061159b89516118f0565b6123038751611983565b6003811015610c4f5780612507575061231b86611caa565b67ffffffffffffffff8060035460401c169116116124b4575b5060408651015160405161237d8161157860208201948591909160408060608301946fffffffffffffffffffffffffffffffff8151168452602081015160208501520151910152565b51902067ffffffffffffffff61239287611caa565b165f52600560205260405f20555b5f805b8551805183101561248957611f0b836123bb9261178a565b1561247f5750633b9aca0096936fffffffffffffffffffffffffffffffff9693611f76879460206123f261240a9660409b5161178a565b51015190815181518082149182612469575050612bc1565b6124318351858101519067ffffffffffffffff602060a08185015193015101511690612e2a565b516001815111612447575b505051015151160490565b61245361246292611caa565b90858585510151511691612eba565b5f8061243c565b9091506020840120906020830120145f80611f6f565b90600101906123a3565b50604095925061240a9150936fffffffffffffffffffffffffffffffff9693633b9aca009895612c0f565b6124c06124f591611caa565b67ffffffffffffffff167fffffffffffffffffffffffffffffffffffffffffffffffff00000000000000006003541617600355565b6125016115e086611caa565b5f612334565b60019150036123a0577f59bc8fd3000000000000000000000000000000000000000000000000000000005f5260045ffd5b6084945067ffffffffffffffff9081604051957fb8d8167e00000000000000000000000000000000000000000000000000000000875216600486015216602484015260448301526064820152fd5b5061259084611caa565b67ffffffffffffffff808451169116146122c2565b505090916125b860206125cd9201611caa565b91604051946125c686610fc0565b3691611cbf565b8352602083019182526040516125ec81611578866020830195866128ca565b5190205c915190518215612606575050633b9aca00900490565b9061265a612648926040519384937ff06fc33b000000000000000000000000000000000000000000000000000000008552604060048601526044850190610e5a565b90600319848303016024850152610e35565b0390fd5b906fffffffffffffffffffffffffffffffff633b9aca0091160442811161289b5780420342811161286e576107081061283f57508051516126a0600154610eb2565b1480612818575b815190156127d85750602081015160ff815116906002549160ff83169283821492836127bf575b6020015160ff169215612777575050505063ffffffff606082015116906004549163ffffffff831680820361274957505063ffffffff608081920151169160201c1680820361271b575050565b7f1eb5c1eb000000000000000000000000000000000000000000000000000000005f5260045260245260445ffd5b7f73b1bde3000000000000000000000000000000000000000000000000000000005f5260045260245260445ffd5b6084945060ff90604051947fd382033a000000000000000000000000000000000000000000000000000000008652600486015260081c16602484015260448301526064820152fd5b6020810151600883901c60ff90811691161493506126ce565b61265a906040519182917ff6b6676b0000000000000000000000000000000000000000000000000000000083526040600484015261264860448401610f03565b508051602081519101206040516128328161059a81610f03565b60208151910120146126a7565b7f12e74add000000000000000000000000000000000000000000000000000000005f524260045260245260445ffd5b7f4e487b71000000000000000000000000000000000000000000000000000000005f52601160045260245ffd5b7f20daedb6000000000000000000000000000000000000000000000000000000005f524260045260245260445ffd5b9067ffffffffffffffff90939293168152604060208201526080810190835191604080830152825180915260a0820190602060a08260051b8501019401915f905b82821061294f57505050506020611113939401519060607fffffffffffffffffffffffffffffffffffffffffffffffffffffffffffffffc082850301910152610e35565b9091929460208061298a837fffffffffffffffffffffffffffffffffffffffffffffffffffffffffffffff6089600196030186528951610e35565b97019201920190929161290b565b604051906129a582611041565b5f6040838281528260208201520152565b9080601f830112156101de578151611113926020016111fd565b91906060838203126101de57604051906129e982611041565b819380518352602081015167ffffffffffffffff81116101de5782612a0f9183016129b6565b602084015260408101519167ffffffffffffffff83116101de5760409261128792016129b6565b9080601f830112156101de57815191612a4e83611772565b92612a5c6040519485611079565b80845260208085019160051b830101918383116101de5760208101915b838310612a8857505050505090565b825167ffffffffffffffff81116101de578201906040601f1983880301126101de5760405190612ab782610fc0565b602083015167ffffffffffffffff81116101de5760209084010187601f820112156101de578051612ae781611772565b91612af56040519384611079565b81835260208084019260051b820101918a83116101de5760208201905b838210612b555750505050825260408301519167ffffffffffffffff83116101de57612b46886020809695819601016129b6565b83820152815201920191612a79565b815167ffffffffffffffff81116101de57602091612b788e8480948801016129b6565b815201910190612b12565b15612b8b5750565b7fb0369c31000000000000000000000000000000000000000000000000000000005f52600452600160245261ffff60445260645ffd5b91909115612bcd575050565b9061265a612648926040519384937f5f1ca381000000000000000000000000000000000000000000000000000000008552604060048601526044850190610e35565b91909115612c1b575050565b604051907ffef760c700000000000000000000000000000000000000000000000000000000825280602483016020600485015252604482019260448260051b84010191815f907fffffffffffffffffffffffffffffffffffffffffffffffffffffffffffffffe1813603015b838310612c945786860387fd5b90919293947fffffffffffffffffffffffffffffffffffffffffffffffffffffffffffffffbc8782030188528535828112156101de578301906020823592019167ffffffffffffffff81116101de5780360383136101de57602082601f19601f8480600198869897879852868601375f85828601015201160101970198019301919096939296612c87565b90612d5c5750805115612d3457602081519101fd5b7fd6bda275000000000000000000000000000000000000000000000000000000005f5260045ffd5b81511580612daf575b612d6d575090565b73ffffffffffffffffffffffffffffffffffffffff907f9996b315000000000000000000000000000000000000000000000000000000005f521660045260245ffd5b50803b15612d65565b908151815103611bdc575f5b8251811015612e2257612dd7818461178a565b5151612de3828461178a565b515103612e1b57612df4818461178a565b5160208151910120612e06828461178a565b516020815191012003612e1b57600101612dc4565b5050505f90565b505050600190565b91612e7f60209261197960405185810190612e7681611578888591909160408060608301946fffffffffffffffffffffffffffffffff8151168452602081015160208501520151910152565b51902091611686565b0151808203612e8c575050565b7f4b2dfe98000000000000000000000000000000000000000000000000000000005f5260045260245260445ffd5b929190925f5b8451811015612ef8578083612ed76001938861178a565b51604051612eee81611578602082019489866128ca565b5190205d01612ec0565b505050905056fea164736f6c634300081c000a2f8788117e7eff1d82e926ec794901d17c78024a50270940304540a733656f0d4c48d1d2b0f4f7485fc28e3db22341d96a20aa29e6efa8149da9751603abd4e06e0c24a6e293ff9b755263dbaa15ba3796b0b8d3fe17cfb4ddf8143b268eac47bd893629a699470e4ec82a5715bb4981fdaacc5d0a728bf5f55b801d8f4ef10bad3228b676f7d3cd4284a5443f17f1962b36e491b30a40b2405849e597ba5fb5","linkReferences":{}},"methodIdentifiers":{"ALLOWED_SP1_CLOCK_DRIFT()":"2c3ee474","DEFAULT_ADMIN_ROLE()":"a217fddf","MEMBERSHIP_PROGRAM_VKEY()":"e45a6d0d","MISBEHAVIOUR_PROGRAM_VKEY()":"314d4dff","PROOF_SUBMITTER_ROLE()":"5972185a","UPDATE_CLIENT_AND_MEMBERSHIP_PROGRAM_VKEY()":"0225293e","UPDATE_CLIENT_PROGRAM_VKEY()":"ca7242f9","VERIFIER()":"08c84e70","clientState()":"bd3ce6b0","getClientState()":"ef913a4b","getConsensusStateHash(uint64)":"23842fb8","getRoleAdmin(bytes32)":"248a9ca3","grantRole(bytes32,address)":"2f2ff15d","hasRole(bytes32,address)":"91d14854","misbehaviour(bytes)":"ddba6537","multicall(bytes[])":"ac9650d8","renounceRole(bytes32,address)":"36568abe","revokeRole(bytes32,address)":"d547741f","supportsInterface(bytes4)":"01ffc9a7","updateClient(bytes)":"0bece356","verifyMembership((bytes,(uint64,uint64),bytes[],bytes))":"682ed5f0","verifyNonMembership((bytes,(uint64,uint64),bytes[]))":"4d6d9ffb"},"id":38}