{
  "_format": "hh-sol-artifact-1",
  "contractName": "SafeMigration",
  "sourceName": "contracts/libraries/SafeMigration.sol",
  "abi": [
    {
      "inputs": [
        {
          "internalType": "address",
          "name": "safeSingleton",
          "type": "address"
        },
        {
          "internalType": "address",
          "name": "safeL2Singleton",
          "type": "address"
        },
        {
          "internalType": "address",
          "name": "fallbackHandler",
          "type": "address"
        }
      ],
      "stateMutability": "nonpayable",
      "type": "constructor"
    },
    {
      "anonymous": false,
      "inputs": [
        {
          "indexed": false,
          "internalType": "address",
          "name": "singleton",
          "type": "address"
        }
      ],
      "name": "ChangedMasterCopy",
      "type": "event"
    },
    {
      "inputs": [],
      "name": "MIGRATION_SINGLETON",
      "outputs": [
        {
          "internalType": "address",
          "name": "",
          "type": "address"
        }
      ],
      "stateMutability": "view",
      "type": "function"
    },
    {
      "inputs": [],
      "name": "SAFE_FALLBACK_HANDLER",
      "outputs": [
        {
          "internalType": "address",
          "name": "",
          "type": "address"
        }
      ],
      "stateMutability": "view",
      "type": "function"
    },
    {
      "inputs": [],
      "name": "SAFE_L2_SINGLETON",
      "outputs": [
        {
          "internalType": "address",
          "name": "",
          "type": "address"
        }
      ],
      "stateMutability": "view",
      "type": "function"
    },
    {
      "inputs": [],
      "name": "SAFE_SINGLETON",
      "outputs": [
        {
          "internalType": "address",
          "name": "",
          "type": "address"
        }
      ],
      "stateMutability": "view",
      "type": "function"
    },
    {
      "inputs": [],
      "name": "migrateL2Singleton",
      "outputs": [],
      "stateMutability": "nonpayable",
      "type": "function"
    },
    {
      "inputs": [],
      "name": "migrateL2WithFallbackHandler",
      "outputs": [],
      "stateMutability": "nonpayable",
      "type": "function"
    },
    {
      "inputs": [],
      "name": "migrateSingleton",
      "outputs": [],
      "stateMutability": "nonpayable",
      "type": "function"
    },
    {
      "inputs": [],
      "name": "migrateWithFallbackHandler",
      "outputs": [],
      "stateMutability": "nonpayable",
      "type": "function"
    }
  ],
  "bytecode": "0x61010060405234801561001157600080fd5b50604051610b4f380380610b4f8339818101604052606081101561003457600080fd5b810190808051906020019092919080519060200190929190805190602001909291905050503073ffffffffffffffffffffffffffffffffffffffff1660808173ffffffffffffffffffffffffffffffffffffffff1660601b8152505061009f836102a360201b60201c565b610111576040517f08c379a000000000000000000000000000000000000000000000000000000000815260040180806020018281038252601e8152602001807f536166652053696e676c65746f6e206973206e6f74206465706c6f796564000081525060200191505060405180910390fd5b610120826102a360201b60201c565b610175576040517f08c379a0000000000000000000000000000000000000000000000000000000008152600401808060200182810382526023815260200180610b2c6023913960400191505060405180910390fd5b610184816102a360201b60201c565b6101f6576040517f08c379a00000000000000000000000000000000000000000000000000000000081526004018080602001828103825260208152602001807f66616c6c6261636b2068616e646c6572206973206e6f74206465706c6f79656481525060200191505060405180910390fd5b8273ffffffffffffffffffffffffffffffffffffffff1660a08173ffffffffffffffffffffffffffffffffffffffff1660601b815250508173ffffffffffffffffffffffffffffffffffffffff1660c08173ffffffffffffffffffffffffffffffffffffffff1660601b815250508073ffffffffffffffffffffffffffffffffffffffff1660e08173ffffffffffffffffffffffffffffffffffffffff1660601b815250505050506102b6565b600080823b905060008111915050919050565b60805160601c60a05160601c60c05160601c60e05160601c610803610329600039806102fb52806103e852806105a452508061022c52806102ad52806104935250806104b752806106d05280610751525080610187528061031f528061046f52806104db528061062b52506108036000f3fe608060405234801561001057600080fd5b50600436106100885760003560e01c80639bf47d6e1161005b5780639bf47d6e14610109578063caa12add1461013d578063ed007fc614610171578063f6682ab01461017b57610088565b806307f464a41461008d5780630d7101f71461009757806368cb3d94146100cb57806372f7a956146100d5575b600080fd5b610095610185565b005b61009f6102f9565b604051808273ffffffffffffffffffffffffffffffffffffffff16815260200191505060405180910390f35b6100d361031d565b005b6100dd61046d565b604051808273ffffffffffffffffffffffffffffffffffffffff16815260200191505060405180910390f35b610111610491565b604051808273ffffffffffffffffffffffffffffffffffffffff16815260200191505060405180910390f35b6101456104b5565b604051808273ffffffffffffffffffffffffffffffffffffffff16815260200191505060405180910390f35b6101796104d9565b005b610183610629565b005b7f000000000000000000000000000000000000000000000000000000000000000073ffffffffffffffffffffffffffffffffffffffff163073ffffffffffffffffffffffffffffffffffffffff16141561022a576040517f08c379a000000000000000000000000000000000000000000000000000000000815260040180806020018281038252603081526020018061079e6030913960400191505060405180910390fd5b7f00000000000000000000000000000000000000000000000000000000000000006000806101000a81548173ffffffffffffffffffffffffffffffffffffffff021916908373ffffffffffffffffffffffffffffffffffffffff1602179055507f75e41bc35ff1bf14d81d1d2f649c0084a0f974f9289c803ec9898eeec4c8d0b87f0000000000000000000000000000000000000000000000000000000000000000604051808273ffffffffffffffffffffffffffffffffffffffff16815260200191505060405180910390a1565b7f000000000000000000000000000000000000000000000000000000000000000081565b7f000000000000000000000000000000000000000000000000000000000000000073ffffffffffffffffffffffffffffffffffffffff163073ffffffffffffffffffffffffffffffffffffffff1614156103c2576040517f08c379a000000000000000000000000000000000000000000000000000000000815260040180806020018281038252603081526020018061079e6030913960400191505060405180910390fd5b6103ca610185565b3073ffffffffffffffffffffffffffffffffffffffff1663f08a03237f00000000000000000000000000000000000000000000000000000000000000006040518263ffffffff1660e01b8152600401808273ffffffffffffffffffffffffffffffffffffffff168152602001915050600060405180830381600087803b15801561045357600080fd5b505af1158015610467573d6000803e3d6000fd5b50505050565b7f000000000000000000000000000000000000000000000000000000000000000081565b7f000000000000000000000000000000000000000000000000000000000000000081565b7f000000000000000000000000000000000000000000000000000000000000000081565b7f000000000000000000000000000000000000000000000000000000000000000073ffffffffffffffffffffffffffffffffffffffff163073ffffffffffffffffffffffffffffffffffffffff16141561057e576040517f08c379a000000000000000000000000000000000000000000000000000000000815260040180806020018281038252603081526020018061079e6030913960400191505060405180910390fd5b610586610629565b3073ffffffffffffffffffffffffffffffffffffffff1663f08a03237f00000000000000000000000000000000000000000000000000000000000000006040518263ffffffff1660e01b8152600401808273ffffffffffffffffffffffffffffffffffffffff168152602001915050600060405180830381600087803b15801561060f57600080fd5b505af1158015610623573d6000803e3d6000fd5b50505050565b7f000000000000000000000000000000000000000000000000000000000000000073ffffffffffffffffffffffffffffffffffffffff163073ffffffffffffffffffffffffffffffffffffffff1614156106ce576040517f08c379a000000000000000000000000000000000000000000000000000000000815260040180806020018281038252603081526020018061079e6030913960400191505060405180910390fd5b7f00000000000000000000000000000000000000000000000000000000000000006000806101000a81548173ffffffffffffffffffffffffffffffffffffffff021916908373ffffffffffffffffffffffffffffffffffffffff1602179055507f75e41bc35ff1bf14d81d1d2f649c0084a0f974f9289c803ec9898eeec4c8d0b87f0000000000000000000000000000000000000000000000000000000000000000604051808273ffffffffffffffffffffffffffffffffffffffff16815260200191505060405180910390a156fe4d6967726174696f6e2073686f756c64206f6e6c792062652063616c6c6564207669612064656c656761746563616c6ca2646970667358221220225c3ae21c323c66a6ac816f6d90cf900873611c034a6b26050d6022c9efdafd64736f6c63430007060033536166652053696e676c65746f6e20284c3229206973206e6f74206465706c6f796564",
  "linkReferences": {},
  "deployedLinkReferences": {}
}