{
  "_format": "hh-sol-artifact-1",
  "contractName": "SafeToL2Setup",
  "sourceName": "contracts/libraries/SafeToL2Setup.sol",
  "abi": [
    {
      "inputs": [],
      "stateMutability": "nonpayable",
      "type": "constructor"
    },
    {
      "anonymous": false,
      "inputs": [
        {
          "indexed": false,
          "internalType": "address",
          "name": "singleton",
          "type": "address"
        }
      ],
      "name": "ChangedMasterCopy",
      "type": "event"
    },
    {
      "inputs": [
        {
          "internalType": "address",
          "name": "l2Singleton",
          "type": "address"
        }
      ],
      "name": "setupToL2",
      "outputs": [],
      "stateMutability": "nonpayable",
      "type": "function"
    }
  ],
  "bytecode": "0x60a060405234801561001057600080fd5b503073ffffffffffffffffffffffffffffffffffffffff1660808173ffffffffffffffffffffffffffffffffffffffff1660601b8152505060805160601c61033461006460003980607652506103346000f3fe608060405234801561001057600080fd5b506004361061002b5760003560e01c8063fe51f64314610030575b600080fd5b6100726004803603602081101561004657600080fd5b81019080803573ffffffffffffffffffffffffffffffffffffffff169060200190929190505050610074565b005b7f000000000000000000000000000000000000000000000000000000000000000073ffffffffffffffffffffffffffffffffffffffff163073ffffffffffffffffffffffffffffffffffffffff161415610119576040517f08c379a00000000000000000000000000000000000000000000000000000000081526004018080602001828103825260348152602001806102a96034913960400191505060405180910390fd5b600060055414610174576040517f08c379a00000000000000000000000000000000000000000000000000000000081526004018080602001828103825260228152602001806102dd6022913960400191505060405180910390fd5b80600061018082610295565b14156101f4576040517f08c379a000000000000000000000000000000000000000000000000000000000815260040180806020018281038252601c8152602001807f4163636f756e7420646f65736e277420636f6e7461696e20636f64650000000081525060200191505060405180910390fd5b60016101fe6102a0565b1461029157816000806101000a81548173ffffffffffffffffffffffffffffffffffffffff021916908373ffffffffffffffffffffffffffffffffffffffff1602179055507f75e41bc35ff1bf14d81d1d2f649c0084a0f974f9289c803ec9898eeec4c8d0b882604051808273ffffffffffffffffffffffffffffffffffffffff16815260200191505060405180910390a15b5050565b6000813b9050919050565b60004690509056fe53616665546f4c3253657475702073686f756c64206f6e6c792062652063616c6c6564207669612064656c656761746563616c6c53616665206d7573742068617665206e6f7420657865637574656420616e79207478a264697066735822122023649cd94e3067c8a913b2bbb4a32dc4fea9be2d0f070a4b7403c3e4e8db452464736f6c63430007060033",
  "linkReferences": {},
  "deployedLinkReferences": {}
}