{"contracts/libraries/SafeMigration.sol":{"SafeMigration":{"abi":[{"inputs":[{"internalType":"address","name":"safeSingleton","type":"address"},{"internalType":"address","name":"safeL2Singleton","type":"address"},{"internalType":"address","name":"fallbackHandler","type":"address"}],"stateMutability":"nonpayable","type":"constructor"},{"anonymous":false,"inputs":[{"indexed":false,"internalType":"address","name":"singleton","type":"address"}],"name":"ChangedMasterCopy","type":"event"},{"inputs":[],"name":"MIGRATION_SINGLETON","outputs":[{"internalType":"address","name":"","type":"address"}],"stateMutability":"view","type":"function"},{"inputs":[],"name":"SAFE_FALLBACK_HANDLER","outputs":[{"internalType":"address","name":"","type":"address"}],"stateMutability":"view","type":"function"},{"inputs":[],"name":"SAFE_L2_SINGLETON","outputs":[{"internalType":"address","name":"","type":"address"}],"stateMutability":"view","type":"function"},{"inputs":[],"name":"SAFE_SINGLETON","outputs":[{"internalType":"address","name":"","type":"address"}],"stateMutability":"view","type":"function"},{"inputs":[],"name":"migrateL2Singleton","outputs":[],"stateMutability":"nonpayable","type":"function"},{"inputs":[],"name":"migrateL2WithFallbackHandler","outputs":[],"stateMutability":"nonpayable","type":"function"},{"inputs":[],"name":"migrateSingleton","outputs":[],"stateMutability":"nonpayable","type":"function"},{"inputs":[],"name":"migrateWithFallbackHandler","outputs":[],"stateMutability":"nonpayable","type":"function"}],"devdoc":{"author":"@safe-global/safe-protocol","details":"IMPORTANT: The library is intended to be used with the Safe standard proxy that stores the singleton address      at the storage slot 0. Use at your own risk with custom proxy implementations. The contract will allow invocations      to the migration functions only via delegatecall.","events":{"ChangedMasterCopy(address)":{"params":{"singleton":"New master copy address"}}},"kind":"dev","methods":{"constructor":{"params":{"fallbackHandler":"Address of the fallback handler implementation","safeL2Singleton":"Address of the SafeL2 Singleton implementation","safeSingleton":"Address of the Safe Singleton implementation"}}},"title":"Migration Contract for Safe Upgrade","version":1},"evm":{"bytecode":{"linkReferences":{},"object":"61010060405234801561001157600080fd5b50604051610b4f380380610b4f8339818101604052606081101561003457600080fd5b810190808051906020019092919080519060200190929190805190602001909291905050503073ffffffffffffffffffffffffffffffffffffffff1660808173ffffffffffffffffffffffffffffffffffffffff1660601b8152505061009f836102a360201b60201c565b610111576040517f08c379a000000000000000000000000000000000000000000000000000000000815260040180806020018281038252601e8152602001807f536166652053696e676c65746f6e206973206e6f74206465706c6f796564000081525060200191505060405180910390fd5b610120826102a360201b60201c565b610175576040517f08c379a0000000000000000000000000000000000000000000000000000000008152600401808060200182810382526023815260200180610b2c6023913960400191505060405180910390fd5b610184816102a360201b60201c565b6101f6576040517f08c379a00000000000000000000000000000000000000000000000000000000081526004018080602001828103825260208152602001807f66616c6c6261636b2068616e646c6572206973206e6f74206465706c6f79656481525060200191505060405180910390fd5b8273ffffffffffffffffffffffffffffffffffffffff1660a08173ffffffffffffffffffffffffffffffffffffffff1660601b815250508173ffffffffffffffffffffffffffffffffffffffff1660c08173ffffffffffffffffffffffffffffffffffffffff1660601b815250508073ffffffffffffffffffffffffffffffffffffffff1660e08173ffffffffffffffffffffffffffffffffffffffff1660601b815250505050506102b6565b600080823b905060008111915050919050565b60805160601c60a05160601c60c05160601c60e05160601c610803610329600039806102fb52806103e852806105a452508061022c52806102ad52806104935250806104b752806106d05280610751525080610187528061031f528061046f52806104db528061062b52506108036000f3fe608060405234801561001057600080fd5b50600436106100885760003560e01c80639bf47d6e1161005b5780639bf47d6e14610109578063caa12add1461013d578063ed007fc614610171578063f6682ab01461017b57610088565b806307f464a41461008d5780630d7101f71461009757806368cb3d94146100cb57806372f7a956146100d5575b600080fd5b610095610185565b005b61009f6102f9565b604051808273ffffffffffffffffffffffffffffffffffffffff16815260200191505060405180910390f35b6100d361031d565b005b6100dd61046d565b604051808273ffffffffffffffffffffffffffffffffffffffff16815260200191505060405180910390f35b610111610491565b604051808273ffffffffffffffffffffffffffffffffffffffff16815260200191505060405180910390f35b6101456104b5565b604051808273ffffffffffffffffffffffffffffffffffffffff16815260200191505060405180910390f35b6101796104d9565b005b610183610629565b005b7f000000000000000000000000000000000000000000000000000000000000000073ffffffffffffffffffffffffffffffffffffffff163073ffffffffffffffffffffffffffffffffffffffff16141561022a576040517f08c379a000000000000000000000000000000000000000000000000000000000815260040180806020018281038252603081526020018061079e6030913960400191505060405180910390fd5b7f00000000000000000000000000000000000000000000000000000000000000006000806101000a81548173ffffffffffffffffffffffffffffffffffffffff021916908373ffffffffffffffffffffffffffffffffffffffff1602179055507f75e41bc35ff1bf14d81d1d2f649c0084a0f974f9289c803ec9898eeec4c8d0b87f0000000000000000000000000000000000000000000000000000000000000000604051808273ffffffffffffffffffffffffffffffffffffffff16815260200191505060405180910390a1565b7f000000000000000000000000000000000000000000000000000000000000000081565b7f000000000000000000000000000000000000000000000000000000000000000073ffffffffffffffffffffffffffffffffffffffff163073ffffffffffffffffffffffffffffffffffffffff1614156103c2576040517f08c379a000000000000000000000000000000000000000000000000000000000815260040180806020018281038252603081526020018061079e6030913960400191505060405180910390fd5b6103ca610185565b3073ffffffffffffffffffffffffffffffffffffffff1663f08a03237f00000000000000000000000000000000000000000000000000000000000000006040518263ffffffff1660e01b8152600401808273ffffffffffffffffffffffffffffffffffffffff168152602001915050600060405180830381600087803b15801561045357600080fd5b505af1158015610467573d6000803e3d6000fd5b50505050565b7f000000000000000000000000000000000000000000000000000000000000000081565b7f000000000000000000000000000000000000000000000000000000000000000081565b7f000000000000000000000000000000000000000000000000000000000000000081565b7f000000000000000000000000000000000000000000000000000000000000000073ffffffffffffffffffffffffffffffffffffffff163073ffffffffffffffffffffffffffffffffffffffff16141561057e576040517f08c379a000000000000000000000000000000000000000000000000000000000815260040180806020018281038252603081526020018061079e6030913960400191505060405180910390fd5b610586610629565b3073ffffffffffffffffffffffffffffffffffffffff1663f08a03237f00000000000000000000000000000000000000000000000000000000000000006040518263ffffffff1660e01b8152600401808273ffffffffffffffffffffffffffffffffffffffff168152602001915050600060405180830381600087803b15801561060f57600080fd5b505af1158015610623573d6000803e3d6000fd5b50505050565b7f000000000000000000000000000000000000000000000000000000000000000073ffffffffffffffffffffffffffffffffffffffff163073ffffffffffffffffffffffffffffffffffffffff1614156106ce576040517f08c379a000000000000000000000000000000000000000000000000000000000815260040180806020018281038252603081526020018061079e6030913960400191505060405180910390fd5b7f00000000000000000000000000000000000000000000000000000000000000006000806101000a81548173ffffffffffffffffffffffffffffffffffffffff021916908373ffffffffffffffffffffffffffffffffffffffff1602179055507f75e41bc35ff1bf14d81d1d2f649c0084a0f974f9289c803ec9898eeec4c8d0b87f0000000000000000000000000000000000000000000000000000000000000000604051808273ffffffffffffffffffffffffffffffffffffffff16815260200191505060405180910390a156fe4d6967726174696f6e2073686f756c64206f6e6c792062652063616c6c6564207669612064656c656761746563616c6ca2646970667358221220225c3ae21c323c66a6ac816f6d90cf900873611c034a6b26050d6022c9efdafd64736f6c63430007060033536166652053696e676c65746f6e20284c3229206973206e6f74206465706c6f796564","opcodes":"PUSH2 0x100 PUSH1 0x40 MSTORE CALLVALUE DUP1 ISZERO PUSH2 0x11 JUMPI PUSH1 0x0 DUP1 REVERT JUMPDEST POP PUSH1 0x40 MLOAD PUSH2 0xB4F CODESIZE SUB DUP1 PUSH2 0xB4F DUP4 CODECOPY DUP2 DUP2 ADD PUSH1 0x40 MSTORE PUSH1 0x60 DUP2 LT ISZERO PUSH2 0x34 JUMPI PUSH1 0x0 DUP1 REVERT JUMPDEST DUP2 ADD SWAP1 DUP1 DUP1 MLOAD SWAP1 PUSH1 0x20 ADD SWAP1 SWAP3 SWAP2 SWAP1 DUP1 MLOAD SWAP1 PUSH1 0x20 ADD SWAP1 SWAP3 SWAP2 SWAP1 DUP1 MLOAD SWAP1 PUSH1 0x20 ADD SWAP1 SWAP3 SWAP2 SWAP1 POP POP POP ADDRESS PUSH20 0xFFFFFFFFFFFFFFFFFFFFFFFFFFFFFFFFFFFFFFFF AND PUSH1 0x80 DUP2 PUSH20 0xFFFFFFFFFFFFFFFFFFFFFFFFFFFFFFFFFFFFFFFF AND PUSH1 0x60 SHL DUP2 MSTORE POP POP PUSH2 0x9F DUP4 PUSH2 0x2A3 PUSH1 0x20 SHL PUSH1 0x20 SHR JUMP JUMPDEST PUSH2 0x111 JUMPI PUSH1 0x40 MLOAD PUSH32 0x8C379A000000000000000000000000000000000000000000000000000000000 DUP2 MSTORE PUSH1 0x4 ADD DUP1 DUP1 PUSH1 0x20 ADD DUP3 DUP2 SUB DUP3 MSTORE PUSH1 0x1E DUP2 MSTORE PUSH1 0x20 ADD DUP1 PUSH32 0x536166652053696E676C65746F6E206973206E6F74206465706C6F7965640000 DUP2 MSTORE POP PUSH1 0x20 ADD SWAP2 POP POP PUSH1 0x40 MLOAD DUP1 SWAP2 SUB SWAP1 REVERT JUMPDEST PUSH2 0x120 DUP3 PUSH2 0x2A3 PUSH1 0x20 SHL PUSH1 0x20 SHR JUMP JUMPDEST PUSH2 0x175 JUMPI PUSH1 0x40 MLOAD PUSH32 0x8C379A000000000000000000000000000000000000000000000000000000000 DUP2 MSTORE PUSH1 0x4 ADD DUP1 DUP1 PUSH1 0x20 ADD DUP3 DUP2 SUB DUP3 MSTORE PUSH1 0x23 DUP2 MSTORE PUSH1 0x20 ADD DUP1 PUSH2 0xB2C PUSH1 0x23 SWAP2 CODECOPY PUSH1 0x40 ADD SWAP2 POP POP PUSH1 0x40 MLOAD DUP1 SWAP2 SUB SWAP1 REVERT JUMPDEST PUSH2 0x184 DUP2 PUSH2 0x2A3 PUSH1 0x20 SHL PUSH1 0x20 SHR JUMP JUMPDEST PUSH2 0x1F6 JUMPI PUSH1 0x40 MLOAD PUSH32 0x8C379A000000000000000000000000000000000000000000000000000000000 DUP2 MSTORE PUSH1 0x4 ADD DUP1 DUP1 PUSH1 0x20 ADD DUP3 DUP2 SUB DUP3 MSTORE PUSH1 0x20 DUP2 MSTORE PUSH1 0x20 ADD DUP1 PUSH32 0x66616C6C6261636B2068616E646C6572206973206E6F74206465706C6F796564 DUP2 MSTORE POP PUSH1 0x20 ADD SWAP2 POP POP PUSH1 0x40 MLOAD DUP1 SWAP2 SUB SWAP1 REVERT JUMPDEST DUP3 PUSH20 0xFFFFFFFFFFFFFFFFFFFFFFFFFFFFFFFFFFFFFFFF AND PUSH1 0xA0 DUP2 PUSH20 0xFFFFFFFFFFFFFFFFFFFFFFFFFFFFFFFFFFFFFFFF AND PUSH1 0x60 SHL DUP2 MSTORE POP POP DUP2 PUSH20 0xFFFFFFFFFFFFFFFFFFFFFFFFFFFFFFFFFFFFFFFF AND PUSH1 0xC0 DUP2 PUSH20 0xFFFFFFFFFFFFFFFFFFFFFFFFFFFFFFFFFFFFFFFF AND PUSH1 0x60 SHL DUP2 MSTORE POP POP DUP1 PUSH20 0xFFFFFFFFFFFFFFFFFFFFFFFFFFFFFFFFFFFFFFFF AND PUSH1 0xE0 DUP2 PUSH20 0xFFFFFFFFFFFFFFFFFFFFFFFFFFFFFFFFFFFFFFFF AND PUSH1 0x60 SHL DUP2 MSTORE POP POP POP POP POP PUSH2 0x2B6 JUMP JUMPDEST PUSH1 0x0 DUP1 DUP3 EXTCODESIZE SWAP1 POP PUSH1 0x0 DUP2 GT SWAP2 POP POP SWAP2 SWAP1 POP JUMP JUMPDEST PUSH1 0x80 MLOAD PUSH1 0x60 SHR PUSH1 0xA0 MLOAD PUSH1 0x60 SHR PUSH1 0xC0 MLOAD PUSH1 0x60 SHR PUSH1 0xE0 MLOAD PUSH1 0x60 SHR PUSH2 0x803 PUSH2 0x329 PUSH1 0x0 CODECOPY DUP1 PUSH2 0x2FB MSTORE DUP1 PUSH2 0x3E8 MSTORE DUP1 PUSH2 0x5A4 MSTORE POP DUP1 PUSH2 0x22C MSTORE DUP1 PUSH2 0x2AD MSTORE DUP1 PUSH2 0x493 MSTORE POP DUP1 PUSH2 0x4B7 MSTORE DUP1 PUSH2 0x6D0 MSTORE DUP1 PUSH2 0x751 MSTORE POP DUP1 PUSH2 0x187 MSTORE DUP1 PUSH2 0x31F MSTORE DUP1 PUSH2 0x46F MSTORE DUP1 PUSH2 0x4DB MSTORE DUP1 PUSH2 0x62B MSTORE POP PUSH2 0x803 PUSH1 0x0 RETURN INVALID PUSH1 0x80 PUSH1 0x40 MSTORE CALLVALUE DUP1 ISZERO PUSH2 0x10 JUMPI PUSH1 0x0 DUP1 REVERT JUMPDEST POP PUSH1 0x4 CALLDATASIZE LT PUSH2 0x88 JUMPI PUSH1 0x0 CALLDATALOAD PUSH1 0xE0 SHR DUP1 PUSH4 0x9BF47D6E GT PUSH2 0x5B JUMPI DUP1 PUSH4 0x9BF47D6E EQ PUSH2 0x109 JUMPI DUP1 PUSH4 0xCAA12ADD EQ PUSH2 0x13D JUMPI DUP1 PUSH4 0xED007FC6 EQ PUSH2 0x171 JUMPI DUP1 PUSH4 0xF6682AB0 EQ PUSH2 0x17B JUMPI PUSH2 0x88 JUMP JUMPDEST DUP1 PUSH4 0x7F464A4 EQ PUSH2 0x8D JUMPI DUP1 PUSH4 0xD7101F7 EQ PUSH2 0x97 JUMPI DUP1 PUSH4 0x68CB3D94 EQ PUSH2 0xCB JUMPI DUP1 PUSH4 0x72F7A956 EQ PUSH2 0xD5 JUMPI JUMPDEST PUSH1 0x0 DUP1 REVERT JUMPDEST PUSH2 0x95 PUSH2 0x185 JUMP JUMPDEST STOP JUMPDEST PUSH2 0x9F PUSH2 0x2F9 JUMP JUMPDEST PUSH1 0x40 MLOAD DUP1 DUP3 PUSH20 0xFFFFFFFFFFFFFFFFFFFFFFFFFFFFFFFFFFFFFFFF AND DUP2 MSTORE PUSH1 0x20 ADD SWAP2 POP POP PUSH1 0x40 MLOAD DUP1 SWAP2 SUB SWAP1 RETURN JUMPDEST PUSH2 0xD3 PUSH2 0x31D JUMP JUMPDEST STOP JUMPDEST PUSH2 0xDD PUSH2 0x46D JUMP JUMPDEST PUSH1 0x40 MLOAD DUP1 DUP3 PUSH20 0xFFFFFFFFFFFFFFFFFFFFFFFFFFFFFFFFFFFFFFFF AND DUP2 MSTORE PUSH1 0x20 ADD SWAP2 POP POP PUSH1 0x40 MLOAD DUP1 SWAP2 SUB SWAP1 RETURN JUMPDEST PUSH2 0x111 PUSH2 0x491 JUMP JUMPDEST PUSH1 0x40 MLOAD DUP1 DUP3 PUSH20 0xFFFFFFFFFFFFFFFFFFFFFFFFFFFFFFFFFFFFFFFF AND DUP2 MSTORE PUSH1 0x20 ADD SWAP2 POP POP PUSH1 0x40 MLOAD DUP1 SWAP2 SUB SWAP1 RETURN JUMPDEST PUSH2 0x145 PUSH2 0x4B5 JUMP JUMPDEST PUSH1 0x40 MLOAD DUP1 DUP3 PUSH20 0xFFFFFFFFFFFFFFFFFFFFFFFFFFFFFFFFFFFFFFFF AND DUP2 MSTORE PUSH1 0x20 ADD SWAP2 POP POP PUSH1 0x40 MLOAD DUP1 SWAP2 SUB SWAP1 RETURN JUMPDEST PUSH2 0x179 PUSH2 0x4D9 JUMP JUMPDEST STOP JUMPDEST PUSH2 0x183 PUSH2 0x629 JUMP JUMPDEST STOP JUMPDEST PUSH32 0x0 PUSH20 0xFFFFFFFFFFFFFFFFFFFFFFFFFFFFFFFFFFFFFFFF AND ADDRESS PUSH20 0xFFFFFFFFFFFFFFFFFFFFFFFFFFFFFFFFFFFFFFFF AND EQ ISZERO PUSH2 0x22A JUMPI PUSH1 0x40 MLOAD PUSH32 0x8C379A000000000000000000000000000000000000000000000000000000000 DUP2 MSTORE PUSH1 0x4 ADD DUP1 DUP1 PUSH1 0x20 ADD DUP3 DUP2 SUB DUP3 MSTORE PUSH1 0x30 DUP2 MSTORE PUSH1 0x20 ADD DUP1 PUSH2 0x79E PUSH1 0x30 SWAP2 CODECOPY PUSH1 0x40 ADD SWAP2 POP POP PUSH1 0x40 MLOAD DUP1 SWAP2 SUB SWAP1 REVERT JUMPDEST PUSH32 0x0 PUSH1 0x0 DUP1 PUSH2 0x100 EXP DUP2 SLOAD DUP2 PUSH20 0xFFFFFFFFFFFFFFFFFFFFFFFFFFFFFFFFFFFFFFFF MUL NOT AND SWAP1 DUP4 PUSH20 0xFFFFFFFFFFFFFFFFFFFFFFFFFFFFFFFFFFFFFFFF AND MUL OR SWAP1 SSTORE POP PUSH32 0x75E41BC35FF1BF14D81D1D2F649C0084A0F974F9289C803EC9898EEEC4C8D0B8 PUSH32 0x0 PUSH1 0x40 MLOAD DUP1 DUP3 PUSH20 0xFFFFFFFFFFFFFFFFFFFFFFFFFFFFFFFFFFFFFFFF AND DUP2 MSTORE PUSH1 0x20 ADD SWAP2 POP POP PUSH1 0x40 MLOAD DUP1 SWAP2 SUB SWAP1 LOG1 JUMP JUMPDEST PUSH32 0x0 DUP2 JUMP JUMPDEST PUSH32 0x0 PUSH20 0xFFFFFFFFFFFFFFFFFFFFFFFFFFFFFFFFFFFFFFFF AND ADDRESS PUSH20 0xFFFFFFFFFFFFFFFFFFFFFFFFFFFFFFFFFFFFFFFF AND EQ ISZERO PUSH2 0x3C2 JUMPI PUSH1 0x40 MLOAD PUSH32 0x8C379A000000000000000000000000000000000000000000000000000000000 DUP2 MSTORE PUSH1 0x4 ADD DUP1 DUP1 PUSH1 0x20 ADD DUP3 DUP2 SUB DUP3 MSTORE PUSH1 0x30 DUP2 MSTORE PUSH1 0x20 ADD DUP1 PUSH2 0x79E PUSH1 0x30 SWAP2 CODECOPY PUSH1 0x40 ADD SWAP2 POP POP PUSH1 0x40 MLOAD DUP1 SWAP2 SUB SWAP1 REVERT JUMPDEST PUSH2 0x3CA PUSH2 0x185 JUMP JUMPDEST ADDRESS PUSH20 0xFFFFFFFFFFFFFFFFFFFFFFFFFFFFFFFFFFFFFFFF AND PUSH4 0xF08A0323 PUSH32 0x0 PUSH1 0x40 MLOAD DUP3 PUSH4 0xFFFFFFFF AND PUSH1 0xE0 SHL DUP2 MSTORE PUSH1 0x4 ADD DUP1 DUP3 PUSH20 0xFFFFFFFFFFFFFFFFFFFFFFFFFFFFFFFFFFFFFFFF AND DUP2 MSTORE PUSH1 0x20 ADD SWAP2 POP POP PUSH1 0x0 PUSH1 0x40 MLOAD DUP1 DUP4 SUB DUP2 PUSH1 0x0 DUP8 DUP1 EXTCODESIZE ISZERO DUP1 ISZERO PUSH2 0x453 JUMPI PUSH1 0x0 DUP1 REVERT JUMPDEST POP GAS CALL ISZERO DUP1 ISZERO PUSH2 0x467 JUMPI RETURNDATASIZE PUSH1 0x0 DUP1 RETURNDATACOPY RETURNDATASIZE PUSH1 0x0 REVERT JUMPDEST POP POP POP POP JUMP JUMPDEST PUSH32 0x0 DUP2 JUMP JUMPDEST PUSH32 0x0 DUP2 JUMP JUMPDEST PUSH32 0x0 DUP2 JUMP JUMPDEST PUSH32 0x0 PUSH20 0xFFFFFFFFFFFFFFFFFFFFFFFFFFFFFFFFFFFFFFFF AND ADDRESS PUSH20 0xFFFFFFFFFFFFFFFFFFFFFFFFFFFFFFFFFFFFFFFF AND EQ ISZERO PUSH2 0x57E JUMPI PUSH1 0x40 MLOAD PUSH32 0x8C379A000000000000000000000000000000000000000000000000000000000 DUP2 MSTORE PUSH1 0x4 ADD DUP1 DUP1 PUSH1 0x20 ADD DUP3 DUP2 SUB DUP3 MSTORE PUSH1 0x30 DUP2 MSTORE PUSH1 0x20 ADD DUP1 PUSH2 0x79E PUSH1 0x30 SWAP2 CODECOPY PUSH1 0x40 ADD SWAP2 POP POP PUSH1 0x40 MLOAD DUP1 SWAP2 SUB SWAP1 REVERT JUMPDEST PUSH2 0x586 PUSH2 0x629 JUMP JUMPDEST ADDRESS PUSH20 0xFFFFFFFFFFFFFFFFFFFFFFFFFFFFFFFFFFFFFFFF AND PUSH4 0xF08A0323 PUSH32 0x0 PUSH1 0x40 MLOAD DUP3 PUSH4 0xFFFFFFFF AND PUSH1 0xE0 SHL DUP2 MSTORE PUSH1 0x4 ADD DUP1 DUP3 PUSH20 0xFFFFFFFFFFFFFFFFFFFFFFFFFFFFFFFFFFFFFFFF AND DUP2 MSTORE PUSH1 0x20 ADD SWAP2 POP POP PUSH1 0x0 PUSH1 0x40 MLOAD DUP1 DUP4 SUB DUP2 PUSH1 0x0 DUP8 DUP1 EXTCODESIZE ISZERO DUP1 ISZERO PUSH2 0x60F JUMPI PUSH1 0x0 DUP1 REVERT JUMPDEST POP GAS CALL ISZERO DUP1 ISZERO PUSH2 0x623 JUMPI RETURNDATASIZE PUSH1 0x0 DUP1 RETURNDATACOPY RETURNDATASIZE PUSH1 0x0 REVERT JUMPDEST POP POP POP POP JUMP JUMPDEST PUSH32 0x0 PUSH20 0xFFFFFFFFFFFFFFFFFFFFFFFFFFFFFFFFFFFFFFFF AND ADDRESS PUSH20 0xFFFFFFFFFFFFFFFFFFFFFFFFFFFFFFFFFFFFFFFF AND EQ ISZERO PUSH2 0x6CE JUMPI PUSH1 0x40 MLOAD PUSH32 0x8C379A000000000000000000000000000000000000000000000000000000000 DUP2 MSTORE PUSH1 0x4 ADD DUP1 DUP1 PUSH1 0x20 ADD DUP3 DUP2 SUB DUP3 MSTORE PUSH1 0x30 DUP2 MSTORE PUSH1 0x20 ADD DUP1 PUSH2 0x79E PUSH1 0x30 SWAP2 CODECOPY PUSH1 0x40 ADD SWAP2 POP POP PUSH1 0x40 MLOAD DUP1 SWAP2 SUB SWAP1 REVERT JUMPDEST PUSH32 0x0 PUSH1 0x0 DUP1 PUSH2 0x100 EXP DUP2 SLOAD DUP2 PUSH20 0xFFFFFFFFFFFFFFFFFFFFFFFFFFFFFFFFFFFFFFFF MUL NOT AND SWAP1 DUP4 PUSH20 0xFFFFFFFFFFFFFFFFFFFFFFFFFFFFFFFFFFFFFFFF AND MUL OR SWAP1 SSTORE POP PUSH32 0x75E41BC35FF1BF14D81D1D2F649C0084A0F974F9289C803EC9898EEEC4C8D0B8 PUSH32 0x0 PUSH1 0x40 MLOAD DUP1 DUP3 PUSH20 0xFFFFFFFFFFFFFFFFFFFFFFFFFFFFFFFFFFFFFFFF AND DUP2 MSTORE PUSH1 0x20 ADD SWAP2 POP POP PUSH1 0x40 MLOAD DUP1 SWAP2 SUB SWAP1 LOG1 JUMP INVALID 0x4D PUSH10 0x67726174696F6E207368 PUSH16 0x756C64206F6E6C792062652063616C6C PUSH6 0x642076696120 PUSH5 0x656C656761 PUSH21 0x6563616C6CA2646970667358221220225C3AE21C32 EXTCODECOPY PUSH7 0xA6AC816F6D90CF SWAP1 ADDMOD PUSH20 0x611C034A6B26050D6022C9EFDAFD64736F6C6343 STOP SMOD MOD STOP CALLER MSTORE8 PUSH2 0x6665 KECCAK256 MSTORE8 PUSH10 0x6E676C65746F6E20284C ORIGIN 0x29 KECCAK256 PUSH10 0x73206E6F74206465706C PUSH16 0x79656400000000000000000000000000 "},"gasEstimates":{"creation":{"codeDepositCost":"410200","executionCost":"infinite","totalCost":"infinite"},"external":{"MIGRATION_SINGLETON()":"infinite","SAFE_FALLBACK_HANDLER()":"infinite","SAFE_L2_SINGLETON()":"infinite","SAFE_SINGLETON()":"infinite","migrateL2Singleton()":"infinite","migrateL2WithFallbackHandler()":"infinite","migrateSingleton()":"infinite","migrateWithFallbackHandler()":"infinite"},"internal":{"hasCode(address)":"infinite"}},"methodIdentifiers":{"MIGRATION_SINGLETON()":"72f7a956","SAFE_FALLBACK_HANDLER()":"0d7101f7","SAFE_L2_SINGLETON()":"9bf47d6e","SAFE_SINGLETON()":"caa12add","migrateL2Singleton()":"07f464a4","migrateL2WithFallbackHandler()":"68cb3d94","migrateSingleton()":"f6682ab0","migrateWithFallbackHandler()":"ed007fc6"}},"storageLayout":{"storage":[{"astId":188,"contract":"contracts/libraries/SafeMigration.sol:SafeMigration","label":"singleton","offset":0,"slot":"0","type":"t_address"},{"astId":192,"contract":"contracts/libraries/SafeMigration.sol:SafeMigration","label":"modules","offset":0,"slot":"1","type":"t_mapping(t_address,t_address)"},{"astId":196,"contract":"contracts/libraries/SafeMigration.sol:SafeMigration","label":"owners","offset":0,"slot":"2","type":"t_mapping(t_address,t_address)"},{"astId":198,"contract":"contracts/libraries/SafeMigration.sol:SafeMigration","label":"ownerCount","offset":0,"slot":"3","type":"t_uint256"},{"astId":200,"contract":"contracts/libraries/SafeMigration.sol:SafeMigration","label":"threshold","offset":0,"slot":"4","type":"t_uint256"},{"astId":202,"contract":"contracts/libraries/SafeMigration.sol:SafeMigration","label":"nonce","offset":0,"slot":"5","type":"t_uint256"},{"astId":204,"contract":"contracts/libraries/SafeMigration.sol:SafeMigration","label":"_deprecatedDomainSeparator","offset":0,"slot":"6","type":"t_bytes32"},{"astId":208,"contract":"contracts/libraries/SafeMigration.sol:SafeMigration","label":"signedMessages","offset":0,"slot":"7","type":"t_mapping(t_bytes32,t_uint256)"},{"astId":214,"contract":"contracts/libraries/SafeMigration.sol:SafeMigration","label":"approvedHashes","offset":0,"slot":"8","type":"t_mapping(t_address,t_mapping(t_bytes32,t_uint256))"}],"types":{"t_address":{"encoding":"inplace","label":"address","numberOfBytes":"20"},"t_bytes32":{"encoding":"inplace","label":"bytes32","numberOfBytes":"32"},"t_mapping(t_address,t_address)":{"encoding":"mapping","key":"t_address","label":"mapping(address => address)","numberOfBytes":"32","value":"t_address"},"t_mapping(t_address,t_mapping(t_bytes32,t_uint256))":{"encoding":"mapping","key":"t_address","label":"mapping(address => mapping(bytes32 => uint256))","numberOfBytes":"32","value":"t_mapping(t_bytes32,t_uint256)"},"t_mapping(t_bytes32,t_uint256)":{"encoding":"mapping","key":"t_bytes32","label":"mapping(bytes32 => uint256)","numberOfBytes":"32","value":"t_uint256"},"t_uint256":{"encoding":"inplace","label":"uint256","numberOfBytes":"32"}}},"userdoc":{"events":{"ChangedMasterCopy(address)":{"notice":"Event indicating a change of a singleton address. Named master copy here for legacy reasons."}},"kind":"user","methods":{"MIGRATION_SINGLETON()":{"notice":"Address of this contract"},"SAFE_FALLBACK_HANDLER()":{"notice":"Address of the Fallback Handler"},"SAFE_L2_SINGLETON()":{"notice":"Address of the Safe Singleton (L2) implementation"},"SAFE_SINGLETON()":{"notice":"Address of the Safe Singleton implementation"},"constructor":{"notice":"Constructor"},"migrateL2Singleton()":{"notice":"Migrate the Safe contract to a new Safe Singleton (L2) implementation."},"migrateL2WithFallbackHandler()":{"notice":"Migrate to Safe Singleton (L2) and set the fallback handler. This function is intended to be used when migrating         a Safe to a version which also requires updating fallback handler."},"migrateSingleton()":{"notice":"Migrate the Safe contract to a new Safe Singleton implementation."},"migrateWithFallbackHandler()":{"notice":"Migrate to Safe Singleton and set the fallback handler. This function is intended to be used when migrating         a Safe to a version which also requires updating fallback handler."}},"notice":"This is a generic contract that facilitates Safe and SafeL2 proxy contracts to migrate their singleton address.         The supported target Safe version is immutable and set in the constructor during the deployment of the contract.         This contract also supports migration with fallback handler update.","version":1}}}}