{
  "_format": "hh-sol-artifact-1",
  "contractName": "Migration",
  "sourceName": "contracts/examples/libraries/Migrate_1_3_0_to_1_2_0.sol",
  "abi": [
    {
      "inputs": [
        {
          "internalType": "address",
          "name": "targetSingleton",
          "type": "address"
        }
      ],
      "stateMutability": "nonpayable",
      "type": "constructor"
    },
    {
      "anonymous": false,
      "inputs": [
        {
          "indexed": false,
          "internalType": "address",
          "name": "singleton",
          "type": "address"
        }
      ],
      "name": "ChangedMasterCopy",
      "type": "event"
    },
    {
      "inputs": [],
      "name": "migrate",
      "outputs": [],
      "stateMutability": "nonpayable",
      "type": "function"
    },
    {
      "inputs": [],
      "name": "migrationSingleton",
      "outputs": [
        {
          "internalType": "address",
          "name": "",
          "type": "address"
        }
      ],
      "stateMutability": "view",
      "type": "function"
    },
    {
      "inputs": [],
      "name": "safe120Singleton",
      "outputs": [
        {
          "internalType": "address",
          "name": "",
          "type": "address"
        }
      ],
      "stateMutability": "view",
      "type": "function"
    }
  ],
  "bytecode": "0x60c060405234801561001057600080fd5b506040516104d43803806104d48339818101604052602081101561003357600080fd5b8101908080519060200190929190505050600073ffffffffffffffffffffffffffffffffffffffff168173ffffffffffffffffffffffffffffffffffffffff1614156100ca576040517f08c379a00000000000000000000000000000000000000000000000000000000081526004018080602001828103825260228152602001806104b26022913960400191505060405180910390fd5b8073ffffffffffffffffffffffffffffffffffffffff1660a08173ffffffffffffffffffffffffffffffffffffffff1660601b815250503073ffffffffffffffffffffffffffffffffffffffff1660808173ffffffffffffffffffffffffffffffffffffffff1660601b815250505060805160601c60a05160601c61034861016a6000398060de52806101a752508060ba528061010252506103486000f3fe608060405234801561001057600080fd5b50600436106100415760003560e01c80632e7731851461004657806389f543081461007a5780638fd3ab80146100ae575b600080fd5b61004e6100b8565b604051808273ffffffffffffffffffffffffffffffffffffffff16815260200191505060405180910390f35b6100826100dc565b604051808273ffffffffffffffffffffffffffffffffffffffff16815260200191505060405180910390f35b6100b6610100565b005b7f000000000000000000000000000000000000000000000000000000000000000081565b7f000000000000000000000000000000000000000000000000000000000000000081565b7f000000000000000000000000000000000000000000000000000000000000000073ffffffffffffffffffffffffffffffffffffffff163073ffffffffffffffffffffffffffffffffffffffff1614156101a5576040517f08c379a00000000000000000000000000000000000000000000000000000000081526004018080602001828103825260308152602001806102e36030913960400191505060405180910390fd5b7f00000000000000000000000000000000000000000000000000000000000000006000806101000a81548173ffffffffffffffffffffffffffffffffffffffff021916908373ffffffffffffffffffffffffffffffffffffffff1602179055507f035aff83d86937d35b32e04f0ddc6ff469290eef2f1b692d8a815c89404d474960001b30604051602001808381526020018273ffffffffffffffffffffffffffffffffffffffff16815260200192505050604051602081830303815290604052805190602001206006819055507f75e41bc35ff1bf14d81d1d2f649c0084a0f974f9289c803ec9898eeec4c8d0b860008054906101000a900473ffffffffffffffffffffffffffffffffffffffff16604051808273ffffffffffffffffffffffffffffffffffffffff16815260200191505060405180910390a156fe4d6967726174696f6e2073686f756c64206f6e6c792062652063616c6c6564207669612064656c656761746563616c6ca26469706673582212208265a433c85f106e80e59f3211085423f9a0f1760d7365c427c7b970d922c31264736f6c63430007060033496e76616c69642073696e676c65746f6e20616464726573732070726f7669646564",
  "linkReferences": {},
  "deployedLinkReferences": {}
}